:020000040800F2
:10000000B80F0020550400085D0400085F040008D4
:100010006104000863040008650400080000000093
:10002000000000000000000000000000670400085D
:1000300069040008000000006B0400086D0400085B
:100040006F0400086F0400086F0400086F040008C4
:100050006F0400086F0400086F0400086F040008B4
:100060006F0400086F0400086F0400086F040008A4
:100070006F0400086F0400086F0400086F04000894
:100080006F0400086F0400086F0400086F04000884
:100090006F0400086F0400086F040008A1470008FF
:1000A0006F0400086F0400086F0400086F04000864
:1000B0006F0400080F3200086F0400086F04000886
:1000C0006F0400086F0400086F0400086F04000844
:1000D0006F040008114A00086F0400086F0400084C
:1000E0006F0400086F0400086F04000800F002F8B5
:1000F00000F0B0F80AA090E8000C82448344AAF112
:100100000107DA4501D100F0A5F8AFF2090EBAE80F
:100110000F0013F0010F18BFFB1A43F0010318473B
:10012000C4690000E46900000A444FF0000C10F8B4
:10013000013B13F0070408BF10F8014B1D1108BF65
:1001400010F8015B641E05D010F8016B641E01F805
:10015000016BF9D113F0080F1EBF10F8014BAD1C55
:100160000C1B09D16D1E58BF01F801CBFAD505E073
:1001700014F8016B01F8016B6D1EF9D59142D6D3CD
:10018000704700000023002400250026103A28BFF5
:1001900078C1FBD8520728BF30C148BF0B607047F9
:1001A0006E2904F08D85702904F0CF86662906F04B
:1001B0001784652906F01484672906F011846129E3
:1001C00006F0108403681B0A28BF41F080016929EA
:1001D00004F03A85642904F03785752904F03485E4
:1001E0006F2904F05C86782904F09B86E92904F0E5
:1001F000F785E42904F0F485F52904F0F185EF2969
:1002000004F05986F82904F09A860368DB0928BFB0
:1002100041F08001632905F0C383732905F0C88389
:10022000E32905F0D383F32905F0D8830020704734
:100230001FB505F025FC04000020002106F024F97C
:10024000401C60600020002106F008F9E0601FBD3E
:1002500010B510BD05F0E6FB1146FFF7E9FF01F010
:100260000AF805F0C3FC03B4FFF7F2FF03BC05F086
:100270000BFD00000CB50020019000906C48006858
:1002800040F480306A49086000BF6948006800F4A3
:10029000003000900198401C0190009818B9019816
:1002A000B0F5A06FF1D16248006800F4003010B1E1
:1002B0000120009001E0002000900098012843D127
:1002C0005C48006840F010005A4908600846006821
:1002D00020F0030008600846006840F00200086053
:1002E000534840685249486008464068486008469C
:1002F000406840F4806048600846406820F47C1004
:1003000048600846406840F4E810486008460068C5
:1003100040F08070086000BF4548006800F0007041
:100320000028F9D04248406820F003004049486066
:100330000846406840F00200486000BF3C48406802
:1003400000F00C000828F9D10CBD10B5FFF792FFA2
:1003500010BD10B53648006840F00100344908600F
:1003600008464068344908403149486008460068FA
:10037000324908402E4908600846006820F4802071
:1003800008600846406820F4FE0048604FF41F00F3
:100390008860FFF7DAFF4FF000602949086010BD60
:1003A00010B5002100200022214B5B6803F00C01F6
:1003B00021B1042906D0082928D107E0214B224C7D
:1003C000236027E01F4B204C236023E0184B5B6821
:1003D00003F47010164B5B6803F48032022303EBC6
:1003E000904022B9194B4343174C23600DE0104B4A
:1003F0005B6803F4003323B1144B4343124C236076
:1004000003E0104B4343104C236003E00D4B0E4CB4
:10041000236000BF00BF064B5B68C3F303130C4CA3
:10042000E15C094B1B68CB40074C236010BD00000A
:1004300000100240002002400000FFF8FFFFF6FE1F
:1004400008ED00E000127A000000002000093D00E5
:10045000040000200948804709480047FEE7FEE7FE
:10046000FEE7FEE7FEE7FEE7FEE7FEE7FEE7FEE764
:1004700004480549054A064B70470000530300082D
:10048000ED000008B8090020B80F0020B80B0020CC
:10049000B80B002010B56FF0040000F03EFE2E48AF
:1004A00000682E49B0FBF1F02D490870084600782D
:1004B00000EB4001C1EBC0104FF6FF7101EAC00034
:1004C0002849088010BD0146254A12784A434FF05A
:1004D000E0235A6100229A611A46126942F0010231
:1004E0001A6100BF4FF0E022106900F001021AB15A
:1004F00000F48032002AF5D04FF0E022126922F099
:1005000001024FF0E0231A6100229A617047014610
:10051000144A12884A434FF0E0235A6100229A613C
:100520001A46126942F001021A6100BF4FF0E02240
:10053000106900F001021AB100F48032002AF5D0EF
:100540004FF0E022126922F001024FF0E0231A611D
:1005500000229A61704700000000002000127A001B
:10056000140000201600002010B54FF4A06000F029
:1005700085FD10BD10B50446CC48844208D1012148
:10058000042000F02DFB0021042000F029FB46E0B0
:10059000C748844208D10121082000F021FB002136
:1005A000082000F01DFB3AE0C248844208D1012136
:1005B000102000F015FB0021102000F011FB2EE0B0
:1005C000BD48844208D10121202000F009FB002110
:1005D000202000F005FB22E0B848844208D1012128
:1005E000402000F0FDFA0021402000F0F9FA16E06A
:1005F000B348844208D10121802000F0F1FA0021A3
:10060000802000F0EDFA0AE0AE48844207D10121D3
:10061000801500F0E5FA0021A01500F0E1FA10BD08
:1006200010B50121084600F0DBFA0021012000F09E
:10063000D7FA10BD2DE9F041024600250026002022
:1006400000230024002791F803C00CF00F0591F857
:1006500003C00CF0100CBCF1000F03D091F802C0E5
:100660004CEA050591F800C0BCF1000F31D01468C8
:1006700000202BE04FF0010C0CFA00F3B1F800C0A1
:100680000CEA03069E4220D183004FF00F0C0CFAB7
:1006900003F7BC4305FA03FC4CEA040491F803C0D9
:1006A000BCF1280F06D14FF0010C0CFA00FCC2F887
:1006B00014C00AE091F803C0BCF1480F05D14FF017
:1006C000010C0CFA00FCC2F810C0401C0828D1D361
:1006D0001460B1F800C0BCF1FF0F34DD5468002095
:1006E0002EE000F1080C4FF0010808FA0CF3B1F805
:1006F00000C00CEA03069E4221D183004FF00F0C8C
:100700000CFA03F7BC4305FA03FC4CEA040491F825
:1007100003C0BCF1280F05D100F1080C08FA0CF851
:10072000C2F8148091F803C0BCF1480F07D100F162
:10073000080C4FF0010808FA0CF8C2F81080401CB1
:100740000828CED35460BDE8F0814FF6FF710180D8
:10075000022181700421C170704702460020936815
:100760000B400BB1012000E0002070470146886873
:1007700080B2704702460020D3680B400BB10120C5
:1007800000E0002070470146C86880B270470161F0
:100790007047416170470AB1016100E041617047F3
:1007A000C16070474FF480320A4382618161826187
:1007B00082698269704702460020434B18684FF6F1
:1007C0008073184040EA021008433F4B186070479E
:1007D0003E49C8617047F0B50A4600230024002155
:1007E000002500F00046B6F1004F02D1364EF16907
:1007F00001E0354E7168C0F3034583B200F4401642
:10080000B6F5401F08D121F070612F4E766826F0B2
:1008100070662D4F7E6012E000F48016B6F5801FE2
:1008200006D1032606FA05F4A14341F0706106E003
:10083000460D360103FA06F6B14341F0706122B16C
:10084000460D360103FA06F6314300F00046B6F1D4
:10085000004F02D11C4EF16101E01B4E7160F0BDF2
:1008600030B500228B071C0F0F2303FA04F2164B3E
:1008700008338C1053F824309343134C08348D10F4
:1008800044F8253023468C1053F824308C07240F6D
:1008900000FA04F423430C4C08348D1044F825303E
:1008A00030BD0A49DC310860704700000008014093
:1008B000000C0140001001400014014000180140EC
:1008C000001C0140002001400000014000002042C7
:1008D000DF48006840F00100DD49086008464068D4
:1008E000DC490840DA49486008460068DA490840AF
:1008F000D74908600846006820F480200860084650
:10090000406820F4FE0048604FF41F008860704784
:10091000CF49096821F48031CD4A11601146096838
:1009200021F480211160B0F5803F03D0B0F5802F15
:100930000ED106E0C649096841F48031C44A11600D
:1009400007E0C349096841F4A021C14A116000E0F1
:1009500000BF00BF704710B50146002200230020F1
:100960004A11012A02D1BA4C236806E0022A02D1B8
:10097000B74C236A01E0B64C636A01F01F02012400
:1009800094401C400CB1012000E0002010BD38B59F
:10099000002000900024002500BF3120FFF7DBFF7E
:1009A00005460098401C00900098B0F5A06F01D05B
:1009B000002DF2D03120FFF7CEFF08B1012400E076
:1009C0000024204638BD01460020A14A106820F0CE
:1009D000F80040EAC10010607047A0490860704705
:1009E000024600209A4B586820F47C1042EA01032A
:1009F0001843974B586070479849086670470146FE
:100A00000020934A506820F003000843506070476C
:100A10008F48406800F00C007047014600208C4A67
:100A2000506820F0F00008435060704701460020F5
:100A3000874A506820F4E0600843506070470146E0
:100A40000020834A506820F4605040EAC1005060A2
:100A5000704729B17E4A527A02437D4B5A7204E0B4
:100A60007B4A527A82437A4B5A7270477B49D8311B
:100A70000860704701460020754A506820F44040E5
:100A80000843506070470021714A20321170704A4B
:100A900082F82010012802D004280AD104E00121A4
:100AA0006B4A2032117005E00521694A203211702D
:100AB00000E000BF00BF70476949086070476449A3
:100AC000096A0143624A1162704765494439086006
:100AD000704730B500210022002400235C4D6D6872
:100AE00005F00C0121B1042905D0082923D105E026
:100AF0005C4D056022E05B4D05601FE0544D6D6864
:100B000005F47012524D6D6805F48034022505EB32
:100B100092421CB9544D554305600BE04C4D6D6835
:100B200005F400351DB1504D5543056002E04D4DB3
:100B30005543056002E04B4D056000BF00BF444DCA
:100B40006D6805F0F0010909484D6B5C0568DD40F2
:100B500045603F4D6D6805F4E061090A434D6B5CEB
:100B60004568DD4085603A4D6D6805F46051C90AFD
:100B70003E4D6B5C4568DD40C560354D6D6805F4E4
:100B80004041890B3A4D6B5CC568B5FBF3F50561D7
:100B900030BD29B12E4A526902432D4B5A6104E0FF
:100BA0002B4A526982432A4B5A61704729B1284A1D
:100BB00092690243264B9A6104E0254A9269824376
:100BC000234B9A61704729B1214AD2690243204BD5
:100BD000DA6104E01E4AD26982431D4BDA61704734
:100BE00029B11B4AD2680243194BDA6004E0184A63
:100BF000D2688243164BDA60704729B1144A1269F1
:100C00000243134B1A6104E0114A12698243104BEC
:100C10001A61704712494039086070470F49C8642B
:100C200070470B49C87170470948406A40F08070AE
:100C300007494862704701460020054A92680A4009
:100C40000AB1012000E00020704701498872704716
:100C5000001002400000FFF8FFFFF6FE00004242D5
:100C60008004424200127A0000093D001800002072
:100C70002800002010B50446FB48844209D1012118
:100C80008803FFF7ADFF00214FF48040FFF7A8FF76
:100C900032E0F648844209D101214804FFF7ADFF54
:100CA00000214FF40030FFF7A8FF25E0F048844210
:100CB00009D101218804FFF7A0FF00214FF4802013
:100CC000FFF79BFF18E0EB48844209D10121C804DB
:100CD000FFF793FF00214FF40020FFF78EFF0BE09A
:100CE000E548844208D101210805FFF786FF00216D
:100CF0004FF48010FFF781FF10BD2DE9F04786B05B
:100D000005460E460024A24600BFA1460027B08932
:100D100000B100BF2F462C8A4CF6FF700440F088CB
:100D200004432C82AC894EF6F3100440B08831891C
:100D30000843718908430443AC81AC8A4FF6FF40F5
:100D40000440B0890443AC8201A8FFF7C2FEC64844
:100D5000874202D1DDF810A001E0DDF80CA0A889DF
:100D600000F4004040B10AEBCA0000EB0A10316801
:100D70004900B0FBF1F807E00AEBCA0000EB0A10EB
:100D800031688900B0FBF1F86420B8FBF0F0040191
:100D90002009642101FB1089A88900F4004040B1BA
:100DA000322000EBC900B0FBF1F000F00700044373
:100DB00008E0322000EB09106421B0FBF1F000F0F4
:100DC0000F0004432C8106B0BDE8F0874FF41651A4
:100DD000016000218180C18001810C2141810021BD
:100DE0008181704710B502460020108A4FF2FF0340
:100DF00018400B884C8823438C882343CC8823439A
:100E00001843108210BD0021018041808180C18083
:100E1000704721B1828942F40052828104E08289C4
:100E20004DF6FF731A4082817047F0B503460024E7
:100E300000260025002040F66A17B94200D100BF05
:100E40001846C1F3421401F01F06012707FA06F500
:100E5000012C01D10C3004E0022C01D1103000E053
:100E600014301AB107682F43076002E00768AF43E8
:100E70000760F0BD1AB1838A0B43838202E0838A44
:100E80008B4383827047028A4FF6F0731A400282C6
:100E9000028A0A430282704782894FF2FF731A4026
:100EA000828182890A438281704721B1828942F01E
:100EB0000202828104E082894FF6FD731A4082812A
:100EC0007047028A4FF6DF731A400282028A0A4391
:100ED0000282704721B1028A42F48042028204E019
:100EE000028A4BF6FF731A4002827047C1F3080270
:100EF0008280704701468888C0F308007047818966
:100F000041F0010181817047028BD2B20283028BD2
:100F100042EA012202837047028B02F47F4202837D
:100F2000028B0A430283704721B1828A42F0200279
:100F3000828204E0828A4FF6DF731A408282704711
:100F400021B1828A42F01002828204E0828A4FF646
:100F5000EF731A408282704721B1828A42F0080200
:100F6000828204E0828A4FF6F7731A4082827047C9
:100F700021B1828942F40042828103E08289C2F376
:100F80000E028281704721B1828A42F4006282821D
:100F900004E0828A4FF2FF731A4082827047828A8D
:100FA0004FF6FB731A408282828A0A43828270471C
:100FB00021B1828A42F00202828204E0828A4FF6E4
:100FC000FD731A408282704702460020B1F5007F0F
:100FD00000D100BF13880B400BB1012000E00020BE
:100FE000704701F40072B2F5007F00D100BFCA4320
:100FF0000280704770B502460024002300250020BF
:1010000040F66A16B14200D100BFC1F3421501F0AB
:101010001F03012606FA03F3012D02D196893340FE
:1010200006E0022D02D1168A334001E0968A334051
:101030000C12012606FA04F41688344013B10CB1E0
:10104000012000E0002070BD10B50022002340F612
:101050006A14A14200D100BF0A1201249440A3B235
:10106000DC43048010BD0000003801400044004013
:1010700000480040004C004000500040314901430E
:10108000314A1160704770B5002100230F22C478E7
:1010900004B32D4C246804F4E064C4F5E064210A30
:1010A000C1F10403CA40447804FA03F1847814407F
:1010B00021430901254C0678A155047804F01F0549
:1010C0000124AC4005786D11AD0005F1E025C5F8AF
:1010D000004109E0047804F01F050124AC401C4DD8
:1010E0000678761145F8264070BD1A4A0A40024338
:1010F000154B1B1F1A60704739B1134A121D126835
:101100000243114B1B1D1A6006E00F4A121D1268A4
:1011100082430D4B1B1D1A607047042808D14FF005
:10112000E021096941F004014FF0E022116107E07C
:101130004FF0E021096921F004014FF0E022116134
:10114000704700000000FA050CED00E000E400E04C
:1011500080E100E080FFFF1F10B50024802001F037
:1011600034FF00BF05E0FE49085D01F081FF601C0F
:10117000C4B2102CF7DBC02001F027FF002405E0EB
:10118000F849085D01F074FF601CC4B2102CF7DB55
:1011900010BD70B504460D46F3A003F0F2FB3220FB
:1011A000FFF7B5F9F2A003F0ECFB4FF4C870FFF7BE
:1011B000AEF9F3A003F0E5FB4FF4C870FFF7A7F911
:1011C0002146F2A003F0DDFB4FF4C870FFF79FF952
:1011D0002B46E44AE249F1A003F0D3FB4FF4C87078
:1011E000FFF795F91A20F049088000BFEE48001F6C
:1011F000008800F040000028F8D04FF4C870FFF7D6
:1012000086F970BD08B548208DF8030003208DF8DD
:1012100002004FF47040ADF800006946E348FFF764
:1012200009FA48208DF8030003208DF80200C0025F
:10123000ADF800006946DE48FFF7FCF910208DF894
:10124000030003208DF802004FF48070ADF8000019
:101250006946D748FFF7EEF910208DF80300032008
:101260008DF8020040F60340ADF800006946CF4813
:10127000FFF7E0F908BD00BF4FF0000A00BF0121F1
:101280003C20FFF793FCFFF705F941F61F4140F2C0
:10129000F31001F08FFFFFF7B5FFFFF765F94FF48B
:1012A000165003F017FB01F035FF00224FF4807158
:1012B000BF48FFF770FABF49BF48FFF76AFF01F068
:1012C00042BBBE4800780A2190FBF1F03030A449BF
:1012D0008873BA4800780A2190FBF1F201FB1200F2
:1012E00030309F49C8736420FFF711F9012003F0E3
:1012F000F0F9B349522003F0EBF8B2490870B04856
:1013000003F010F9AF49087008460078002841F052
:10131000188301221102A648FFF73DFA9620FFF735
:10132000F6F800224FF48071A148FFF734FA4FF02D
:10133000000A1FE0A24810F80A00A34901EB2010A0
:1013400001780AEB4A00C01C864A11549C4810F8E8
:101350000A0000F00F009C49095C0AEB4A00001DDE
:10136000115420210AEB4A00401D11540AF10100DA
:1013700000F0FF0ABAF1040FDCDBFFF7EDFE904846
:101380000078AC287AD18E484078A128FAD18C48D0
:1013900080783728F6D18A48C0784928F2D18B481E
:1013A000007800287CD101208849087000208849F5
:1013B000087088A2012101F0DEFE00224FF40061D6
:1013C0007A48FFF7E8F9012291027848FFF7E3F93C
:1013D0004FF47A70FFF79BF800224FF400617348D6
:1013E000FFF7D9F900224FF480617048FFF7D3F975
:1013F0000122D1026E48FFF7CEF9012211026C489A
:10140000FFF7C9F96420FFF782F800224FF48071DA
:101410006748FFF7C0F90FE04FF400616448FFF739
:101420009CF948B93220FFF772F84FF40061604828
:10143000FFF793F900B900E0EEE700BF0122D10207
:101440005A48FFF7A8F900224FF480615748FFF788
:10145000A2F94FF47A70FFF75AF811E04FF4805177
:101460005248FFF77AF958B93220FFF750F84FF495
:1014700080514E48FFF771F910B902E00AE20FE01F
:10148000ECE700BF00224FF400614848FFF783F902
:1014900000224FF480614548FFF77DF901F051BA11
:1014A0004A4800780128F9D1002048490870484886
:1014B000007805F084F9804600224B4B04F0FAFFD7
:1014C000064600224FF0804305F08CF9044605F0F3
:1014D00049F94649088046480088098888423DDD28
:1014E0004348008841490988401A41490880084614
:1014F0000088642190FBF1F030303E4908723C488E
:1015000000880A2190FBF1F090FBF1F201FB120040
:10151000303038494872364800880A2190FBF1F291
:1015200001FB1200303033498872294800783C2191
:1015300090FBF1F00A2190FBF1F030302E49087158
:10154000234800783C2190FBF1F00A2190FBF1F256
:1015500001FB12003030284948714FE091E0000053
:10156000DA000020EB000020415445300D0A000055
:1015700041542B435343533D2247534D220D0A0000
:1015800041542B434D47463D310D0A0041542B43F6
:101590004D47533D222573220D0A000025730D0A85
:1015A00025730D0A2573000004380140000C01402A
:1015B00000080140C3000020660000204401002014
:1015C0002C000020410000203000002038010020C5
:1015D00046010020496E206C617965722031206ED1
:1015E0006F2E20310000000000004E403C01002022
:1015F00030010020FC0000200D010020FE48008882
:10160000642190FBF1F03030FC490873FA480088FF
:101610000A2190FBF1F090FBF1F201FB1200303057
:10162000F6494873F44800880A2190FBF1F201FB67
:1016300012003030F1498873802001F0C6FC4FF071
:10164000000A08E0EE4911F80A0001F011FD0AF164
:10165000010000F0FF0ABAF1100FF3DBC02001F027
:10166000B4FC4FF0000A08E0E44911F80A0001F068
:10167000FFFC0AF1010000F0FF0ABAF1100FF3DBE2
:10168000A7E0E0480088642190FBF1F03030DC49AD
:101690000872DC4800880A2190FBF1F090FBF1F21F
:1016A00001FB12003030D6494872D64800880A2122
:1016B00090FBF1F201FB12003030D1498872D24820
:1016C00000783C2190FBF1F00A2190FBF1F03030E2
:1016D000CA490871CC4800783C2190FBF1F00A21FE
:1016E00090FBF1F201FB12003030C4494871C2484E
:1016F0000088642190FBF1F03030C0490873BE4887
:1017000000880A2190FBF1F090FBF1F201FB12003E
:101710003030BA494873B84800880A2190FBF1F28A
:1017200001FB12003030B5498873802001F04DFC78
:101730004FF0000A08E0B24911F80A0001F098FCE5
:101740000AF1010000F0FF0ABAF1100FF3DBC0202C
:1017500001F03BFC4FF0000A08E0A84911F80A002C
:1017600001F086FC0AF1010000F0FF0ABAF1100F47
:10177000F3DBA649A648FFF70CFD01221103A5489B
:10178000FFF709F801221102A248FFF704F800242C
:1017900041F28830FEF7BBFE18E0282C11DA4FF436
:1017A00080519C48FEF7D9FF48B93220FEF7AFFEC2
:1017B0004FF480519748FEF7D0FF00B907E0641C52
:1017C00004E092499448FFF7E4FC00E0E5E700BF3D
:1017D00000BF00224FF400619048FEF7DCFF0122B9
:1017E00091028E48FEF7D7FF4FF47A70FEF78FFE16
:1017F00000224FF400618948FEF7CDFF00224FF42C
:1018000080618648FEF7C7FF0122D1028148FEF7BA
:10181000C2FF012211027F48FEF7BDFF6420FEF7E0
:1018200076FE00224FF480717A48FEF7B4FF0FE095
:101830004FF400617748FEF790FF48B93220FEF779
:1018400066FE4FF400617348FEF787FF00B900E0C1
:10185000EEE700BF0122D1027048FEF79CFF002294
:101860004FF480616D48FEF796FF4FF47A70FEF7F3
:101870004EFE00224FF400616848FEF78CFF002204
:101880004FF480616548FEF786FF40F2DC50FEF7BA
:101890003EFE03E662480078332872D16048407803
:1018A0000E28FAD15E4880789728F6D15C48C07837
:1018B000FA28F2D15B480078002873D101205949F9
:1018C000087000205849087058A2012101F053FC0B
:1018D00000224FF400615148FEF75DFF01229102A2
:1018E0004E48FEF758FF4FF47A70FEF710FE4FF4A3
:1018F0007A70FEF70CFE00224FF400614748FEF7B5
:101900004AFF00224FF480614448FEF744FF012261
:10191000D1024048FEF73FFF012211023D48FEF789
:101920003AFF6420FEF7F3FD00224FF4807139483E
:10193000FEF731FF0FE04FF400613648FEF70DFF70
:1019400048B93220FEF7E3FD4FF400613148FEF75D
:1019500004FF00B900E0EEE700BF0122D1022F48EA
:10196000FEF719FF00224FF480612C48FEF713FFA9
:101970004FF47A70FEF7CBFD4FF47A70FEF7C7FD97
:1019800011E0FDE14FF400512448FEF7E6FE50B9A6
:101990003220FEF7BCFD4FF400512048FEF7DDFE7B
:1019A00008B901E00EE0EDE700BF00224FF400614E
:1019B0001A48FEF7F0FE00224FF480611748FEF748
:1019C000EAFE6BE5174800780128FAD10020154996
:1019D00008701548007804F0F2FE80460022184B8B
:1019E00004F068FD064600224FF0804304F0FAFE42
:1019F000044604F0B7FE25E03C0100200D01002064
:101A0000FC00002030010020460100207E00002064
:101A1000420000200008014072000020000C01403C
:101A20002C0000203901002047010020496E206C65
:101A3000617965722031206E6F2E20320000000027
:101A400000004E40FD490880FD4800880988884212
:101A500072DDFB480088F9490988401AF849088076
:101A600008460088642190FBF1F03030F549087297
:101A7000F34800880A2190FBF1F090FBF1F201FBA2
:101A800012003030EF494872ED4800880A2190FB7F
:101A9000F1F201FB12003030EA498872EA4800781E
:101AA0003C2190FBF1F00A2190FBF1F03030E74946
:101AB0000871E54800783C2190FBF1F00A2190FB89
:101AC000F1F201FB12003030E0494871DB48008838
:101AD000642190FBF1F03030DC490873D74800886E
:101AE0000A2190FBF1F090FBF1F201FB1200303083
:101AF000D6494873D14800880A2190FBF1F201FBD6
:101B000012003030D1498873802001F05EFA4FF026
:101B1000000A08E0CB4911F80A0001F0A9FA0AF11D
:101B2000010000F0FF0ABAF1100FF3DBC02001F052
:101B30004CFA4FF0000A09E00CE0C44911F80A0021
:101B400001F096FA0AF1010000F0FF0ABAF1100F55
:101B5000F3DBACE0BA480088642190FBF1F0303050
:101B6000B8490872B64800880A2190FBF1F090FB52
:101B7000F1F201FB12003030B2494872B0480088DF
:101B80000A2190FBF1F201FB12003030AD4988725E
:101B9000AD4800783C2190FBF1F00A2190FBF1F078
:101BA0003030AA490871A84800783C2190FBF1F038
:101BB0000A2190FBF1F201FB12003030A349487179
:101BC0009E480088642190FBF1F030309F490873F3
:101BD0009A4800880A2190FBF1F090FBF1F201FB9A
:101BE0001200303099494873944800880A2190FBCC
:101BF000F1F201FB1200303094498873802001F02B
:101C0000E4F94FF0000A08E08E4911F80A0001F0EB
:101C10002FFA0AF1010000F0FF0ABAF1100FF3DB0E
:101C2000C02001F0D2F94FF0000A08E0874911F80E
:101C30000A0001F01DFA0AF1010000F0FF0ABAF1F2
:101C4000100FF3DB012211038148FEF7A4FD0122EE
:101C500011027F48FEF79FFD41F28830FEF757FCE6
:101C600000224FF480717A48FEF795FD79497A4851
:101C7000FFF78FFA002417E0282C11DA4FF4805177
:101C80007348FEF76AFD48B93220FEF740FC4FF476
:101C900080516F48FEF761FD00B906E0641C03E067
:101CA0006C496E48FFF775FAE6E700BF00BF0022F7
:101CB0004FF400616A48FEF76EFD01229102684808
:101CC000FEF769FD4FF47A70FEF721FC4FF47A704D
:101CD000FEF71DFC00224FF400616148FEF75BFD3A
:101CE00000224FF480615E48FEF755FD0122D102CB
:101CF0005748FEF750FD012211025548FEF74BFDF3
:101D00006420FEF704FC00224FF480715048FEF777
:101D100042FD0FE04FF400614D48FEF71EFD48B94B
:101D20003220FEF7F4FB4FF400614948FEF715FD41
:101D300000B900E0EEE700BF0122D1024848FEF7FB
:101D40002AFD00224FF480614548FEF724FD4FF440
:101D50007A70FEF7DCFB4FF47A70FEF7D8FB0022B6
:101D60004FF400613E48FEF716FD00224FF48061FB
:101D70003B48FEF710FD40F2DC50FEF7C8FB88E55B
:101D800038480078062858D1364840780928FAD1D2
:101D900034488078A828F6D13248C078AC28F2D1EF
:101DA0003148007800286DD101202F4908700020AB
:101DB0002E4908702EA2012101F0DDF90022022136
:101DC0002748FEF7E8FC012211462548FEF7E3FC10
:101DD0004FF47A70FEF79BFB002202212048FEF7A9
:101DE000DAFC002201211E48FEF7D5FC00224FF448
:101DF00000611B48FEF7CFFC012291021848FEF754
:101E0000CAFC4FF47A70FEF782FB00224FF40061A7
:101E10001348FEF7C0FC00224FF480611048FEF723
:101E2000BAFC0122D1020A48FEF7B5FC01221102D8
:101E30000748FEF7B0FC642025E081E23C01002069
:101E400032010020FC000020470100200D0100208D
:101E500000080140950000204E0000207200002084
:101E6000000C01402C0000203A0100204801002015
:101E7000496E206C617965722032206E6F2E2031A0
:101E80000000000061E0FEF742FB00224FF4807189
:101E9000FA48FEF780FC0FE04FF40061F748FEF7C8
:101EA0005CFC48B93220FEF732FB4FF40061F34886
:101EB000FEF753FC00B900E0EEE700BF0122D102BB
:101EC000EF48FEF768FC00224FF48061EC48FEF713
:101ED00062FC4FF47A70FEF71AFB00224FF40061A7
:101EE000E748FEF758FC00224FF48061E448FEF713
:101EF00052FC01220221E248FEF74DFC00220121A2
:101F0000DF48FEF748FC4FF47A70FEF700FB0FE065
:101F10004FF48041DA48FEF720FC48B93220FEF742
:101F2000F6FA4FF48041D648FEF717FC00B900E0FE
:101F3000EEE700BF00220221D148FEF72CFC002270
:101F40000121CF48FEF727FCA3E4CE480078012802
:101F5000FAD10020CB490870CB48007804F02FFC60
:101F600006460022C94B04F0A5FA044600224FF0B1
:101F7000804304F037FC804604F0F4FBC449088039
:101F8000C44800880988884272DDC2480088C04978
:101F90000988401ABF49088008460088642190FBE0
:101FA000F1F03030BC490872BA4800880A2190FB31
:101FB000F1F090FBF1F201FB12003030B6494872AB
:101FC000B44800880A2190FBF1F201FB1200303086
:101FD000B1498872AC4800783C2190FBF1F00A21AD
:101FE00090FBF1F03030AD490871A74800783C21F2
:101FF00090FBF1F00A2190FBF1F201FB120030306E
:10200000A6494871A2480088642190FBF1F0303065
:10201000A24908739E4800880A2190FBF1F090FBCA
:10202000F1F201FB120030309C4948739848008857
:102030000A2190FBF1F201FB1200303097498873BE
:10204000802000F0C2FF4FF0000A08E0924911F82A
:102050000A0001F00DF80AF1010000F0FF0ABAF1E0
:10206000100FF3DBC02000F0B0FF4FF0000A09E0D2
:102070000CE08A4911F80A0000F0FAFF0AF10100A9
:1020800000F0FF0ABAF1100FF3DBADE081480088E1
:10209000642190FBF1F030307F4908727D48008860
:1020A0000A2190FBF1F090FBF1F201FB12003030BD
:1020B00079494872774800880A2190FBF1F201FBC8
:1020C00012003030744988726F4800783C2190FBD0
:1020D000F1F00A2190FBF1F03030704908716A4844
:1020E00000783C2190FBF1F00A2190FBF1F201FB1A
:1020F000120030306949487165480088642190FBBE
:10210000F1F0303065490873614800880A2190FB7E
:10211000F1F090FBF1F201FB120030305F4948739F
:102120005B4800880A2190FBF1F201FB120030307D
:102130005A498873802000F048FF4FF0000A08E0F9
:10214000554911F80A0000F093FF0AF1010000F070
:10215000FF0ABAF1100FF3DBC02000F036FF4FF09A
:10216000000A08E04D4911F80A0000F081FF0AF169
:10217000010000F0FF0ABAF1100FF3DB0122110396
:102180003E48FEF708FB46494648FFF702F80122A1
:1021900011023A48FEF7FFFA41F28830FEF7B7F92C
:1021A00000224FF480713548FEF7F5FA002418E05C
:1021B000282C12DA4FF480513048FEF7CEFA48B995
:1021C0003220FEF7A4F94FF480512C48FEF7C5FAEF
:1021D00000B907E0601CC4B203E031493248FEF7A1
:1021E000D8FFE5E700BF00BF002202212448FEF728
:1021F000D2FA012211462248FEF7CDFA4FF47A7046
:10220000FEF785F9002202211D48FEF7C4FA0022DC
:1022100001211B48FEF7BFFA6420FEF778F900227F
:102220004FF400611648FEF7B6FA012291021448F5
:10223000FEF7B1FA4FF47A70FEF769F900224FF415
:1022400000610F48FEF7A7FA00224FF480610C48A6
:10225000FEF7A1FA0122D1020848FEF79CFA0122FA
:1022600011020648FEF797FA6420FEF750F90022A3
:102270004FF480710148FEF78EFA27E00008014014
:10228000000C01403A0100204801002000004E40AF
:102290003C01002034010020FC0000200D01002042
:1022A000AC0000205A000020720000204FF40061B2
:1022B000FE48FEF752FA48B93220FEF728F94FF4EB
:1022C0000061FA48FEF749FA00B900E0EEE700BF06
:1022D0000122D102F648FEF75EFA00224FF4806137
:1022E000F348FEF758FA4FF47A70FEF710F900221F
:1022F0004FF40061EE48FEF74EFA00224FF4806181
:10230000EB48FEF748FA01220221E948FEF743FABA
:1023100000220121E648FEF73EFA4FF47A70FEF7FC
:10232000F6F800220221E248FEF735FA00220121E8
:10233000DF48FEF730FA40F2DC50FEF7E8F800E341
:10234000DC480078B62877D1DA484078CF28FAD12F
:10235000D8488078AA28F6D1D648C078AC28F2D1DF
:10236000D5480078002868D10120D34908700020A2
:10237000D2490870D2A2012100F0FDFE0022022104
:10238000CB48FEF708FA01221146C948FEF703FAC6
:102390004FF47A70FEF7BBF800220221C448FEF722
:1023A000FAF900220121C248FEF7F5F96420FEF790
:1023B000AEF800224FF40061BD48FEF7ECF90122AF
:1023C0009102BB48FEF7E7F94FF47A70FEF79FF8E9
:1023D0004FF47A70FEF79BF800224FF40061B44886
:1023E000FEF7D9F900224FF48061B148FEF7D3F926
:1023F0000122D102AD48FEF7CEF901221102AB480D
:10240000FEF7C9F96420FEF782F800224FF48071CC
:10241000A648FEF7C0F911E04FF40061A348FEF7AB
:102420009CF958B93220FEF772F84FF400619F48CA
:10243000FEF793F910B902E062E24CE0ECE700BF6E
:102440000122D1029A48FEF7A6F900224FF48061DA
:102450009748FEF7A0F94FF47A70FEF758F84FF45A
:102460007A70FEF754F800224FF400619048FEF7AE
:1024700092F900224FF480618D48FEF78CF9012219
:1024800002218B48FEF787F9002201218848FEF7D8
:1024900082F94FF47A70FEF73AF80FE04FF40041FA
:1024A0008348FEF75AF948B93220FEF730F84FF466
:1024B00000417F48FEF751F900B900E0EEE700BFA8
:1024C000002202217A48FEF766F9002201217848AD
:1024D000FEF761F935E2784800780128FAD100204A
:1024E000754908707548007804F069F906460022BD
:1024F000784B03F0DFFF044600224FF0804304F0E6
:1025000071F9804604F02EF97349088073480088F9
:102510000988884272DD714800886F490988401A2D
:102520006E49088008460088642190FBF1F0303045
:102530006B490872694800880A2190FBF1F090FB12
:10254000F1F201FB1200303065494872634800889F
:102550000A2190FBF1F201FB1200303060498872D1
:10256000564800783C2190FBF1F00A2190FBF1F0F5
:1025700030305C490871514800783C2190FBF1F003
:102580000A2190FBF1F201FB1200303055494871ED
:1025900051480088642190FBF1F0303051490873B4
:1025A0004D4800880A2190FBF1F090FBF1F201FB0D
:1025B000120030304B494873474800880A2190FB8D
:1025C000F1F201FB1200303046498873802000F0A0
:1025D000FCFC4FF0000A08E0414911F80A0000F045
:1025E00047FD0AF1010000F0FF0ABAF1100FF3DB1A
:1025F000C02000F0EAFC4FF0000A09E00CE0394985
:1026000011F80A0000F034FD0AF1010000F0FF0AA1
:10261000BAF1100FF3DBD7E030480088642190FB5B
:10262000F1F030302E4908722C4800880A2190FBC6
:10263000F1F090FBF1F201FB1200303028494872B2
:10264000264800880A2190FBF1F201FB120030308D
:1026500023498872194800783C2190FBF1F00A2147
:1026600090FBF1F030301F490871144800783C218C
:1026700090FBF1F00A2190FBF1F201FB12003030E7
:102680001849487114480088642190FBF1F03030FB
:1026900014490873104800880A2190FBF1F090FB60
:1026A000F1F201FB120030300E491DE0000801403C
:1026B000000C01402C0000203B01002049010020BB
:1026C000496E206C617965722032206E6F2E203247
:1026D0000000000000004E403C01002036010020B8
:1026E000FC0000200D0100204873FE4800880A21EC
:1026F00090FBF1F201FB12003030FB49887380201F
:1027000000F063FC4FF0000A08E0F84911F80A00F5
:1027100000F0AEFC0AF1010000F0FF0ABAF1100F60
:10272000F3DBC02000F051FC4FF0000A08E0EE4956
:1027300011F80A0000F09CFC0AF1010000F0FF0A09
:10274000BAF1100FF3DB01221103E948FEF723F879
:10275000E849E948FEF71DFD0A20FDF7D8FE0122F1
:102760001102E348FEF717F841F28830FDF7CFFE7B
:1027700000224FF48071DE48FEF70DF800BF4FF4E1
:102780008051DB48FDF7E9FF0128F8D0002418E06C
:10279000282C12DA4FF48051D548FDF7DEFF48B9F6
:1027A0003220FDF7B4FE4FF48051D148FDF7D5FF3C
:1027B00000B907E0601CC4B203E0CE49CF48FEF781
:1027C000E8FCE5E700BF00BF00220221CC48FDF78E
:1027D000E2FF01221146CA48FDF7DDFF4FF47A708F
:1027E000FDF795FE00220221C548FDF7D4FF002227
:1027F0000121C348FDF7CFFF6420FDF788FE0022CA
:102800004FF40061BE48FDF7C6FF01229102BC48AB
:10281000FDF7C1FF4FF47A70FDF779FE4FF47A703F
:10282000FDF775FE00224FF40061B548FDF7B3FFD8
:1028300000224FF48061B248FDF7ADFF0122D102C2
:10284000AB48FDF7A8FF01221102A948FDF7A3FF3D
:102850006420FDF75CFE00224FF48071A448FDF770
:102860009AFF0FE04FF40061A148FDF776FF48B9E9
:102870003220FDF74CFE4FF400619D48FDF76DFFDF
:1028800000B900E0EEE700BF0122D1029C48FDF74D
:1028900082FF00224FF480619948FDF77CFF4FF4DE
:1028A0007A70FDF734FE4FF47A70FDF730FE0022A7
:1028B0004FF400619248FDF76EFF00224FF48061F3
:1028C0008F48FDF768FF012202218D48FDF763FF65
:1028D000002201218A48FDF75EFF4FF47A70FDF770
:1028E00016FE002202218648FDF755FF0022012135
:1028F0008348FDF750FF40F2DC50FDF708FE20E072
:10290000C02000F062FB4FF0000A08E07D4911F89A
:102910000A0000F0ADFB0AF1010000F0FF0ABAF175
:10292000100FF3DB012211027148FDF734FF40F66E
:10293000B830FDF7ECFD00224FF480716C48FDF7D4
:102940002AFFFEF709FCFEF7BCBC10B56E48007804
:1029500008281AD2DFE800F0041A2F455B7289A01C
:102960000122D1026648FDF716FF00224FF4806174
:102970006348FDF710FF002202216148FDF70BFFBD
:10298000002201215E48FDF706FF9BE00122D102F3
:102990005B48FDF700FF012291025948FDF7FBFE5D
:1029A000002202215648FDF7F6FE0022012154487C
:1029B000FDF7F1FE86E000224FF400615048FDF77C
:1029C000EAFE012291024E48FDF7E5FE00220221B7
:1029D0004B48FDF7E0FE002201214948FDF7DBFEF0
:1029E00070E000224FF400614548FDF7D4FE01225B
:1029F00091024348FDF7CFFE012202214048FDF736
:102A0000CAFE002201213E48FDF7C5FE5AE0002221
:102A10004FF400613A48FDF7BEFE00224FF480619A
:102A20003748FDF7B8FE012202213548FDF7B3FE15
:102A3000002201213248FDF7AEFE43E000224FF4B0
:102A400000612F48FDF7A7FE00224FF480612C485B
:102A5000FDF7A1FE012202212948FDF79CFE01227B
:102A600011462748FDF797FE2CE000224FF4006145
:102A70002348FDF790FE00224FF480612048FDF7C7
:102A80008AFE002202211E48FDF785FE0122114622
:102A90001B48FDF780FE15E00122D1021848FDF722
:102AA0007AFE00224FF480611548FDF774FE002283
:102AB00002211348FDF76FFE012211461048FDF771
:102AC0006AFE00BF00BF0120FDF721FD00224FF488
:102AD00000610B48FDF75FFE00224FF4806108485B
:102AE00014E000003C0100200D010020FC0000204B
:102AF00000080140C3000020660000207200002092
:102B0000000C01401E0100202F010020FDF743FEB4
:102B100000220221F148FDF73EFE00220121EF488C
:102B2000FDF739FEEE480078401CED490870084674
:102B30000078072801DD0020087010BD10B5E848B6
:102B4000007808281BD2DFE800F0041B32495F75CB
:102B50008AA000224FF40061E048FDF71CFE00222D
:102B60004FF48061DD48FDF716FE00220221DB48AC
:102B7000FDF711FE01221146D848FDF70CFE9AE040
:102B800000224FF40061D548FDF705FE00224FF406
:102B90008061D248FDF7FFFD01220221CF48FDF7F9
:102BA000FAFD01221146CD48FDF7F5FD83E0002234
:102BB0004FF40061C948FDF7EEFD00224FF480613B
:102BC000C648FDF7E8FD01220221C448FDF7E3FDF8
:102BD00000220121C148FDF7DEFD6CE000224FF428
:102BE0000061BE48FDF7D7FD01229102BB48FDF709
:102BF000D2FD01220221B948FDF7CDFD00220121BD
:102C0000B648FDF7C8FD56E000224FF40061B34816
:102C1000FDF7C1FD01229102B048FDF7BCFD002285
:102C20000221AE48FDF7B7FD00220121AB48FDF7B8
:102C3000B2FD40E00122D102A848FDF7ACFD01221F
:102C40009102A648FDF7A7FD00220221A348FDF747
:102C5000A2FD00220121A148FDF79DFD2BE00122EC
:102C6000D1029E48FDF797FD00224FF480619B48FA
:102C7000FDF791FD002202219848FDF78CFD00220E
:102C800001219648FDF787FD15E00122D102934806
:102C9000FDF781FD00224FF480619048FDF77BFD38
:102CA000002202218D48FDF776FD012211468B4856
:102CB000FDF771FD00BF00BF0120FDF728FC0022D9
:102CC0004FF400618548FDF766FD00224FF48061F6
:102CD0008248FDF760FD002202218048FDF75BFD80
:102CE000002201217D48FDF756FD7D480078401CFB
:102CF0007B49087008460078072801DD002008702D
:102D000010BD7848806940F00400764988617648B3
:102D100000686FF31300744908607248806940F4DA
:102D20000070704988610846C06840F40070C8604F
:102D30000846C06820F40070C8600846406820F467
:102D4000404048600846406840F40040486067489A
:102D500000686749084065490860084600680860DF
:102D60000846006820F480700860081D006820F0A4
:102D70000200091D08600846006820F46020086011
:102D80000846006840F4602008600846006840F487
:102D9000801008600846006820F40060086053480E
:102DA0002830006820F47000504928310860084637
:102DB0000068002008604D480C3000686FF30F0079
:102DC0004A490C3108600846006840F4E040086059
:102DD0000846006840F4606008600846006840F4F7
:102DE000E07008600846006840F038000860084657
:102DF000006840F0070008603C48001D006840F093
:102E000001003A49091D08600846006840F00800C2
:102E1000086000BF3548001D006800F00800002869
:102E2000F8D13248001D006840F004002F49091D08
:102E3000086000BF2D48001D006800F00400002855
:102E4000F8D17047014629483030006820F01F0053
:102E5000264A30321060104600680843106023484C
:102E6000001D006840F48000204A121D106000BF61
:102E70001E48001F006800F002000028F8D01B4820
:102E80004830006880B2704770B505460C46002097
:102E9000184908604FF48061174801F04EFE29463A
:102EA00016A001F06EFD08E06420FDF730FB15A1CF
:102EB000114801F011FE00B103E0201EA4F101044D
:102EC000F2D100BF002C04DC0FA001F05AFD01205C
:102ED00070BD0FA001F055FD0020F9E7000C014086
:102EE0002F0100200010024000080140042401408E
:102EF000FFFFF000500100205801002025730D0A4B
:102F0000000000004F4B00006661696C0D0A000074
:102F10004F4B0D0A0000000008B510208DF803008B
:102F200003208DF80200FF20ADF8000069469F489D
:102F3000FDF780FB4FF46040ADF8000069469C4807
:102F4000FDF778FB08BD07E0192101E04A1ED1B268
:102F50000029FBDC421E90B20028F5DC704708B562
:102F600048208DF8030003208DF802000120ADF801
:102F7000000069468D48FDF75DFB00224FF40051CB
:102F80008B48FDF708FC012291038948FDF703FCFB
:102F90000122D1038648FDF7FEFB0120FFF7D3FF96
:102FA00000BF01218148FDF7D8FB0028F9D110208E
:102FB0008DF8030003208DF802000120ADF8000019
:102FC00069467A48FDF736FB08BD70B50446002611
:102FD0000025FFF7C4FF00BF0BE04FF6FF7000EACB
:102FE000450504F0010008B145F001056410701CAE
:102FF000C6B2082EF1DBECB221466C48FDF7D0FBDF
:1030000000224FF400416A48FDF7C5FB0A20FFF794
:103010009AFF00224FF400516548FDF7BCFB0A20DF
:10302000FFF791FF00224FF480416148FDF7B3FBA9
:103030000A20FFF788FF0A20FFF785FF0122D1034E
:103040005B48FDF7A8FB0A20FFF77DFF00224FF445
:1030500000415748FDF79FFB0A20FFF774FF01224C
:1030600091035348FDF797FB0A20FFF76CFF70BDF3
:1030700070B5044600260025FFF771FF00BF0BE086
:103080004FF6FF7000EA450504F0010008B145F075
:1030900001056410701CC6B2082EF1DBECB22146AB
:1030A0004248FDF77DFB00224FF400414048FDF708
:1030B00072FB0A20FFF747FF012251033C48FDF74E
:1030C0006AFB0A20FFF73FFF00224FF48041384897
:1030D000FDF761FB0A20FFF736FF0A20FFF733FFF9
:1030E0000122D1033248FDF756FB0A20FFF72BFFE0
:1030F00000224FF400412E48FDF74DFB0A20FFF758
:1031000022FF012291032A48FDF745FB0A20FFF721
:103110001AFF70BD10B5FFF7FFFE0120FFF755FF46
:103120006420FFF710FF3820FFF74FFF6420FFF700
:103130000AFF3820FFF749FF6420FFF704FF0C2047
:10314000FFF743FF6420FFF7FEFE10BD70B5054694
:103150000C4616461CB905F18000C4B204E0012CEF
:1031600002D105F1C000C4B22046FFF72EFF304661
:10317000FFF77EFF70BD70B506460C4615461CB9BC
:1031800006F18000C4B204E0012C02D106F1C000B7
:10319000C4B22046FFF719FF03E02878FFF768FF65
:1031A0006D1C28780028F8D170BD0000000801408F
:1031B000001001407FB505460C4601210220FDF7B5
:1031C00002FDADF80850ADF804400020ADF80A004B
:1031D000ADF8060001A9284800F030F90122114697
:1031E000254800F0A2FC1D208DF8000000208DF87D
:1031F000010003208DF8020001208DF803006846CD
:10320000FDF741FF01211C4800F074FC7FBD10B5A3
:103210000121194800F037FF68B30121164800F07A
:1032200043FF164801780078401C144A1070142996
:1032300021DB00201146087011480078401C10491D
:103240000870084600783C2801D1002008700D481D
:103250000078401C0B4908700B480078401C0A4954
:1032600008700A480078401C08490870084800782F
:10327000401C0749087010BD000400404A010020AE
:1032800044010020460100204701002048010020A1
:103290004901002010B50446FE48844208D10121AE
:1032A000C014FDF79DFC0021E014FDF799FCC4E07B
:1032B000B4F1804F08D101210846FDF79EFC0021A2
:1032C0000120FDF79AFCB8E0F348844208D10121BF
:1032D0000220FDF792FC00210220FDF78EFCACE0FD
:1032E000EE48844208D101210420FDF786FC00212C
:1032F0000420FDF782FCA0E0E948844208D10121C6
:103300000820FDF77AFC00210820FDF776FC94E008
:10331000E448844208D101211020FDF76EFC002111
:103320001020FDF76AFC88E0DF48844208D10121C3
:103330002020FDF762FC00212020FDF75EFC7CE0F0
:10334000DA48844208D101214014FDF749FC0021EC
:103350006014FDF745FC70E0D548844209D1012195
:10336000C804FDF73DFC00214FF40020FDF738FCB8
:1033700063E0D048844209D101210805FDF730FC03
:1033800000214FF48010FDF72BFC56E0CA48844220
:1033900009D101214805FDF723FC00214FF400105D
:1033A000FDF71EFC49E0C548844208D101214020B8
:1033B000FDF723FC00214020FDF71FFC3DE0C04845
:1033C000844208D101218020FDF717FC00218020D4
:1033D000FDF713FC31E0BB48844208D10121801580
:1033E000FDF70BFC0021A015FDF707FC25E0B64812
:1033F000844209D101210804FDF7F2FB00214FF4BA
:103400008030FDF7EDFB18E0B048844209D101217E
:103410004804FDF7E5FB00214FF40030FDF7E0FB29
:103420000BE0AB48844208D101218804FDF7D8FBAA
:1034300000214FF48020FDF7D3FB10BD002202884D
:10344000944B98420ED0994B98420BD0B0F1804FDC
:1034500008D0914B984205D0904B984202D0904BA7
:10346000984204D14FF68F731A404B881A438D4B04
:10347000984207D08C4B984204D04FF6FF431A4035
:10348000CB881A4302808B8883850B880385814B08
:1034900098420BD0854B984208D08B4B984205D070
:1034A0008A4B984202D08A4B984201D10B7A03860C
:1034B00001238382704770B5002400220023058C0D
:1034C0004FF6FE7635400584028C8388048B4FF6D8
:1034D0008F752C40B51E2C400D882C43751E2A403C
:1034E0000D892A434D882A436A4DA8420BD06F4D5F
:1034F000A84208D0744DA84205D0744DA84202D00D
:10350000734DA84213D14FF6F7752A404D892A43CF
:103510004FF6FB752A408D882A434FF6FF652B40F6
:103520004FF6FF552B408D892B43CD892B4383804C
:103530000483CD888586028470BD70B50024002286
:103540000023058C4FF6EF7635400584028C838886
:10355000048B48F6FF752C404FF6FF452C400D8834
:103560004FF6FF7606EA05252C434FF6DF752A4015
:103570000D8906EA05152A434D8806EA05152A43F2
:10358000444DA84202D0494DA8421DD14FF67F7547
:103590002A404D894FF6FF7606EA05152A434FF675
:1035A000BF752A408D8806EA05152A434FF6FF3578
:1035B0002B404FF2FF752B408D8906EA85052B4382
:1035C000CD8906EA85052B4383800483CD88058752
:1035D000028470BD70B5002400220023058C4FF6D4
:1035E000FF6635400584028C8388848B4FF68F7587
:1035F0002C404FF6FC752C400D882C434FF6FF55A0
:103600002A400D894FF6FF7606EA05252A434D88A4
:1036100006EA05252A431F4DA84202D0234DA842A1
:103620001DD14FF2FF752A404D894FF6FF7606EA0D
:1036300005252A434FF6FF352A408D8806EA0525E1
:103640002A434EF6FF752B404DF6FF752B408D89B2
:1036500006EA05152B43CD8906EA05152B43838021
:103660008483CD888587028470BD70B500220023D5
:103670000024058C4EF6FF7635400584038C848843
:10368000828B48F6FF752A404FF6FF452A400D8889
:1036900020E00000002C0140000400400008004031
:1036A000000C0040001000400014004000340140B5
:1036B000004C0140005001400054014000180040FF
:1036C000001C004000200040004001400044014038
:1036D000004801404FF6FF7606EA05252A434DF6DD
:1036E000FF752B400D8906EA05352B434D8806EA08
:1036F00005352B43FA4DA84202D0FA4DA84208D115
:103700004BF6FF752C408D894FF6FF7606EA85153E
:103710002C4384808283CD88A0F84050038470BD00
:10372000828B4FF2FF331A408283828B4FF6FF73F6
:1037300003EA01231A4382837047F0B50C4615460D
:10374000002200210026078C4EF6FF7C07EA0C07BA
:103750000784828B018C4FF6FF7707EA043640F628
:10376000FF473A404FF6FF7707EA05273A434FF6FF
:10377000FF7707EA03373A43D94FB8420ED0D94F03
:10378000B8420BD0B0F1804F08D0D74FB84205D027
:10379000D64FB84202D0D64FB84206D14DF6FF7789
:1037A000394046F48057394305E047F6FF57394022
:1037B00044F48057394382830184F0BD828B4FF6F5
:1037C000F3731A408283828B0A4382837047F0B579
:1037D0000C461546002200210026078C4FF6FF6C90
:1037E00007EA0C070784828B018C4FF6FF7707EA04
:1037F00004264FF60C773A404FF6FF7707EA031797
:103800002F433A43B64FB8420ED0B64FB8420BD012
:10381000B0F1804F08D0B44FB84205D0B34FB84292
:1038200002D0B34FB84206D14FF6FF57394046F4A5
:103830008077394305E04FF2FF57394044F48077F1
:10384000394382830184F0BD028B4FF2FF331A406B
:103850000283028B4FF6FF7303EA01231A430283AC
:103860007047F0B50C461546002200210026078C53
:103870004FF6EF7C07EA0C070784028B018C4FF6AA
:10388000FF7707EA041640F6FF473A404FF6FF7706
:1038900007EA03373A434FF6FF7707EA05273A432B
:1038A0008F4FB8420ED08F4FB8420BD0B0F1804F3F
:1038B00008D08D4FB84205D08C4FB84202D08C4F03
:1038C000B84206D14FF6DF77394046F0100739434A
:1038D00005E04FF65F77394044F010073943028323
:1038E0000184F0BD028B4FF6F3731A400283028B02
:1038F0000A4302837047F0B50C46154600220021AA
:10390000068C4FF6FE773E400684028B018C4FF604
:103910000C7632407E1C06EA03162E433243704E6C
:10392000B0420ED06F4EB0420BD0B0F1804F08D0F5
:103930006D4EB04205D06D4EB04202D06C4EB042DA
:1039400006D14FF6FD76314044F00106314305E0E3
:103950004FF6F576314044F001063143028301848D
:10396000F0BD70B505460C465D4885420ED05D48F9
:1039700085420BD0B5F1804F08D05B48854205D019
:103980005A48854202D05A48854200D100E000BF23
:10399000208850B92389A28861882846FFF7ABFFA9
:1039A000E1882846FFF79EFF25E0208804280AD1F9
:1039B0002389A28861882846FFF753FFE1882846BB
:1039C000FFF742FF17E0208808280AD12389A28840
:1039D00061882846FFF7FBFEE1882846FFF7EEFEE8
:1039E00009E02389A28861882846FFF7A6FEE188BE
:1039F0002846FFF795FE70BD2DE9F04105460C46BF
:103A000000260127608808B9022600E00026A08869
:103A1000012801D1022700E001272088A0B92389CD
:103A2000A28861882846FFF766FFE1882846FFF7ED
:103A300059FF23893A4631462846FFF712FFE188AD
:103A40002846FFF701FF13E02389A28861882846F2
:103A5000FFF707FFE1882846FFF7F6FE23893A467D
:103A600031462846FFF747FFE1882846FFF73AFF2F
:103A7000BDE8F0810A884B881A438B881A43CB88AB
:103A80001A430B891A434B891A438B891A43A0F8AE
:103A9000442070474FF6FF71818000210180C18072
:103AA0004180017270470021018041808180C18086
:103AB000018141818181C181704700210180418064
:103AC000012181800021C180018170470021018096
:103AD00041808180C18001814181818170470000E6
:103AE000002C014000340140000400400008004068
:103AF000000C004021B1028842F00102028004E083
:103B000002884FF6FE731A400280704731B1B0F858
:103B1000442042F40042A0F8442005E0B0F84420DC
:103B2000C2F30E02A0F8442070471AB183890B43F8
:103B3000838102E083898B43838170478182704750
:103B400041EA0203A0F8483070471AB183890B4359
:103B5000838102E083898B438381704701894FF61B
:103B6000F8721140018170470A46002101894FF621
:103B70008F73194011430181704730B504460D46DB
:103B800029462046FFF7F0FF208940F007002081FA
:103B900030BD2DE9F04104460D4616461F46602D06
:103BA00006D13B46012231462046FFF75AFE05E08A
:103BB0003B46012231462046FFF79DFE294620461E
:103BC000FFF7D2FF208940F007002081BDE8F08197
:103BD00030B50C4600210189C9B24FF6FF7505EAE0
:103BE0000325154325432943018130BD2DE9F041CB
:103BF00005460E4617469846002443463A46314647
:103C00002846FFF7E5FF2C894FF6F870044044F092
:103C100007044FF68F70044044F070042C81BDE817
:103C2000F081F0B504460D4616461F463B46324627
:103C300029462046FFF7CCFF208940F480402081B0
:103C4000F0BD0185828270470A46002101884FF647
:103C50008F731940114301807047F0B50C4615462B
:103C60001E460021002200230189028B038C4FF69F
:103C7000F877394021434FF6FC473A4040F20117AC
:103C80003A434FF6DD773B404FF6FF7707EA0617DA
:103C90002F433B43018102830384F0BD0A46002188
:103CA000018B4FF68F7319401143018370470A4609
:103CB0000021018B48F6FF7319404FF6FF7303EAAA
:103CC00002231943018370470A460021818B4FF676
:103CD0008F7319401143818370470A460021818BFD
:103CE00048F6FF7319404FF6FF7303EA02231943A6
:103CF0008183704721B1028842F08002028004E093
:103D000002884FF67F731A400280704721B1828883
:103D100042F00402828004E082884FF6FB731A406E
:103D20008280704721B1828842F00802828004E0DC
:103D300082884FF6F7731A408280704721B18288DB
:103D400042F00102828004E082884FF6FE731A403E
:103D5000828070470A460021018B4FF6F7731940A5
:103D60001143018370470A460021018B4FF2FF7314
:103D700019404FF6FF7303EA02231943018370478A
:103D80000A460021818B4FF6F77319401143818356
:103D900070470A460021818B4FF2FF7319404FF69E
:103DA000FF7303EA02231943818370470A46002107
:103DB000018B4FF6FB7319401143018370470A468C
:103DC0000021018B4FF6FF3319404FF6FF7303EAD2
:103DD00002231943018370470A460021818B4FF665
:103DE000FB7319401143818370470A460021818B80
:103DF0004FF6FF3319404FF6FF7303EA02231943CE
:103E0000818370470A460021018B4FF67F7319406A
:103E10001143018370470A460021018BC1F30E0153
:103E20004FF6FF7303EA02231943018370470A46E2
:103E30000021818B4FF67F731940114381837047B6
:103E40000A460021818BC1F30E014FF6FF7303EA8E
:103E500002231943818370470A460021018C4FF6E3
:103E6000FD7319401143018470470A460021018CFB
:103E70004FF6F77319401143018470470A46002139
:103E8000018C4FF6DF7319404FF6FF7303EA0213FC
:103E90001943018470470A460021018C4FF67F7355
:103EA00019404FF6FF7303EA021319430184704768
:103EB0000A460021018C4FF6FF5319404FF6FF735D
:103EC00003EA02231943018470470A460021018C4A
:103ED0004FF2FF7319404FF6FF7303EA02231943B1
:103EE000018470470A460021018C4DF6FF7319408A
:103EF0004FF6FF7303EA023319430184704730B56C
:103F0000002301248C40A3B2048C9C430484048CC1
:103F100002FA01F5ADB22C43048430BD30B5002364
:103F200004248C40A3B2048C9C430484048C02FAC5
:103F300001F5ADB22C43048430BD70B503460020BA
:103F400000241846183001258D40ACB21D8CA543C5
:103F50001D8409B1082909D100EB6100056825F02D
:103F6000700505600568154305600EE00D1FC5F37B
:103F70004E052844056825F4E045056005684FF6C0
:103F8000FF7606EA02263543056070BD21B102883E
:103F900042F00202028004E002884FF6FD731A40EC
:103FA0000280704721B1028842F00402028004E0DE
:103FB00002884FF6FB731A400280704721B1828855
:103FC00042F08002828004E082884FF67F731A40BC
:103FD0008280704702884FF6F7731A400280028889
:103FE0000A430280704782884FF68F731A4082809E
:103FF00082880A438280704702894FF6F8731A401C
:10400000028102890A430281704702894FF67F7359
:104010001A40028102890A430281704781847047F5
:104020008185704781867047018770478187704717
:10403000A0F84010704702884FF6FF431A400280F4
:1040400002880A43028070470146888E7047014605
:10405000088F70470146888F70470146B1F84000CD
:1040600070470146888C70470146088D70470246AC
:104070000020138A0B400BB1012000E000207047A4
:10408000CA430282704730B5024600200023002454
:10409000158A05EA0103958905EA010413B10CB1FB
:1040A000012000E0002030BDCA43028270470000BA
:1040B00008B510208DF8030003208DF802004FF49E
:1040C0006870ADF800006946F848FCF7B3FA48207C
:1040D0008DF8030003208DF802004020ADF80000A9
:1040E0006946F248FCF7A6FA08BD2DE9F0410746FB
:1040F0000D4600224FF48071EC48FCF74CFB082081
:10410000FCF7E1F9EA480078012805D100224102D4
:10411000E648FCF740FB0AE0E5480078022805D1B4
:1041200000220102E148FCF736FB00E000BF082056
:10413000FCF7C9F97E2000EA4706082426E006F0CD
:104140008000802805D101228021D848FCF723FB7C
:1041500004E000228021D548FCF71DFB0820FCF775
:10416000B2F901221102D148FCF715FB0820FCF737
:10417000AAF97006060E00224FF48071CB48FCF7B6
:104180000AFB0820FCF79FF9601EC4B2002CD6DCA5
:10419000082426E005F08000802805D10122802136
:1041A000C248FCF7F8FA04E000228021BF48FCF77F
:1041B000F2FA0820FCF787F901221102BB48FCF74C
:1041C000EAFA0820FCF77FF96806050E00224FF492
:1041D0008071B648FCF7DFFA0820FCF774F9601E1E
:1041E000C4B2002CD6DCB2480078012805D10122E7
:1041F0004102AE48FCF7CFFA0AE0AD480078022849
:1042000005D101220102A948FCF7C5FA00E000BF70
:104210000820FCF758F901221102A448FCF7BBFA68
:104220000820FCF750F9BDE8F0812DE9F041074680
:10423000002600224FF480719C48FCF7ACFA08205D
:10424000FCF741F99A480078012805D10022410283
:104250009648FCF7A0FA0AE095480078022805D1B4
:10426000002201029148FCF796FA00E000BF082006
:10427000FCF729F97E2000EA470040F08005082479
:1042800026E005F08000802805D1012280218748A2
:10429000FCF781FA04E0002280218448FCF77BFAD5
:1042A0000820FCF710F9012211028048FCF773FA8C
:1042B0000820FCF708F96806050E00224FF480710B
:1042C0007A48FCF768FA0820FCF7FDF8601EC4B2D3
:1042D000002CD6DC08241CE0012211027348FCF7F4
:1042E0005AFA0820FCF7EFF87006060E40216F48D6
:1042F000FCF733FA06430820FCF7E5F800224FF4F8
:1043000080716A48FCF747FA0820FCF7DCF8601E69
:10431000C4B2002CE0DC66480078012805D10122F7
:1043200041026248FCF737FA0AE061480078022847
:1043300005D1012201025D48FCF72DFA00E000BF23
:104340000820FCF7C0F8012211025848FCF723FAB4
:104350000820FCF7B8F83046BDE8F08170B5054696
:104360000C4600262846FFF760FF064646EA040191
:104370002846FFF7BAFE70BD70B505460C4600260C
:104380002846FFF752FF064626EA04012846FFF7B3
:10439000ACFE70BD2DE9FE4F0646884691469A4612
:1043A000DDF830B0FE2002900020019000900C2E2D
:1043B00006D00E2E09D1122001901020009005E0A9
:1043C000772001903020009000E000BF00BF0198EE
:1043D00040F080010220FFF788FE80210420FFF7D3
:1043E000CBFF00210120FFF780FE80210A20FFF78C
:1043F000B5FF002505E018F805100920FFF775FE48
:104400006D1C4D45F7D331460120FFF76EFE0C2E93
:1044100003D180210D20FFF7A1FF4FF4167500BFD7
:104420000420FFF702FF04466D1E35B104F00100C1
:1044300018B9009820400028F2D080210D20FFF705
:104440009BFF95B30620FFF7F0FE00F01B0088BB32
:10445000002002900198204000F0010008B1FF20E8
:1044600002900C2E29D10A20FFF7DFFE04460C2013
:10447000FFF7DBFE00F007072FB1601E07EBC0005F
:10448000CBF8000002E0E000CBF8000004B9012402
:10449000122C00DD1224002505E00920FFF7C5FEDF
:1044A0000AF805006D1CA542F7D306E0000C014098
:1044B0004B010020FFE7FE20029080210C20FFF737
:1044C0004DFF00210120FFF710FE0298BDE8FE8F8E
:1044D00070B588B005460C4608210846FFF74CFF2A
:1044E00007210D20FFF701FE03211420FFF736FFFF
:1044F0008DF8085007A802AB012202A900900C20F9
:10450000FFF748FF06464EB90798102806D19DF8D8
:10451000080020709DF80900607000E0FE2630461B
:1045200008B070BDF0B587B00546002708210846E1
:10453000FFF722FF00210D20FFF7D7FD80210E207D
:10454000FFF71AFF93208DF8040020208DF8050056
:1045500006A801AB022201A900900C20FFF71AFF68
:10456000064686B9002407E001A8005D285501A889
:10457000005D4740601CC4B2042CF5DB01A8005D5F
:10458000B84200D0FE2680210E20FFF7E7FE30461D
:1045900007B0F0BD2DE9F0410746884615460421D5
:1045A0000520FFF7E9FE00210120FFF79EFD802195
:1045B0000A20FFF7D3FE002405E0395D0920FFF74C
:1045C00094FD601CC4B24445F7DB03210120FFF7D2
:1045D0008CFDFF2400BF0520FFF727FE0646601E66
:1045E000C4B21CB106F004000028F4D02220FFF76A
:1045F0001CFE28702120FFF718FE6870BDE8F081CE
:1046000010B588B050208DF8080000208DF8090002
:104610000DF10A02022102A8FFF7BCFF07A802ABB6
:10462000042202A900900C20FFF7B4FE04460020EB
:1046300008B010BD10B5FFF73BFD0122202139481D
:10464000FCF7A9F80520FBF762FF0022202135487E
:10465000FCF7A1F80520FBF75AFF01222021314881
:10466000FCF799F80520FBF752FF0F210120FFF717
:104670003CFD0520FBF74BFF3D211120FFF735FDE9
:104680001E212D20FFF731FD00212C20FFF72DFDED
:104690008D212A20FFF729FD3E212B20FFF725FD44
:1046A00040211520FFF721FD002010BD10B514207A
:1046B000FFF7BBFD044604F0030018B903211420E2
:1046C000FFF74CFE10BD10B503211420FFF754FE78
:1046D00010BD10B50446144804700078012805D1B7
:1046E000012241020F48FCF756F80AE00E48007814
:1046F000022805D1012201020A48FCF74CF800E02B
:1047000000BFFFF797FF0320FBF701FFFFF7DBFF79
:104710000320FBF7FCFEFFF7C9FF0320FBF7F7FEC2
:1047200010BD0000000C01404B0100201FB501210D
:104730000846FCF73BFA4FF48070ADF800004820C3
:104740008DF8030069461B48FBF774FF4FF4807037
:1047500000F0B7F808210020FCF782F84FF48070D1
:10476000029000208DF80C000C208DF80D00012027
:104770008DF80E0002A800F02DF84FF4A060FCF7B1
:104780007DFC17208DF8040002208DF805008DF8BF
:10479000060001208DF8070001A8FCF774FC1FBD7E
:1047A00010B54FF4807000F08CF83220FBF7AFFEAC
:1047B00010BD000000080140002044490860091DA8
:1047C0000860091D0860091D086041483F4914310F
:1047D0000860704700213D498279002A3AD00A4694
:1047E000126803689A430B461A600A1D1268036830
:1047F0009A430B1D1A60027911440A6803681A4330
:104800000A60324A0832126803689A432F4B083311
:104810001A601A1D126803689A432C4B0C331A60F5
:104820004279102A0ED11A1F126803681A43274BC7
:1048300008331A601A1D126803681A43234B0C339D
:104840001A600DE02149427911440A6803681A434D
:104850000A6005E0027911440A6803689A430A6015
:1048600070470021016001710C21417100218171AB
:1048700070471649103109680143144A103211601B
:10488000704701460020114A143212680A400AB1EA
:10489000012000E0002070470C4914310860704787
:1048A000014600200022094B1B6803EA0102074B66
:1048B00014331B680B4013B10AB1012000E0002043
:1048C000704702491431086070470000000401403D
:1048D000FFFF0F0010B586B004464FF4A060FCF750
:1048E000CDFB01218803FCF761F901210420FCF7CD
:1048F0005DF94FF40070ADF8140003208DF8160038
:1049000018208DF8170005A96348FBF793FE4FF4B4
:104910008060ADF8140004208DF8170005A95E48EA
:10492000FBF788FE01940020ADF80800ADF80A00FE
:10493000ADF80C00ADF810000C20ADF80E0001A988
:104940005648FCF7DAF920215448FCF74AFB0122CB
:1049500040F225515148FCF768FA25208DF80000F7
:1049600000208DF801008DF8020001208DF8030071
:104970006846FCF788FB01214848FCF74AFA06B074
:1049800010BD0FB438B505A800904548009A0499A9
:1049900000F090F800200090414800F0AFF8054684
:1049A00000BF3E48008800F040000028F9D00024F5
:1049B0000CE03B48005D3949091D088000BF3748BD
:1049C000008800F040000028F9D0641CAC42F0D30D
:1049D00038BC5DF814FB00BF304A128802F0400278
:1049E000002AF9D001210CE04A1C825C2B4B1B1DD4
:1049F0001A8000BF294A128802F04002002AF9D02A
:104A0000491C4378027803EB02228A42ECDA7047B1
:104A100010B540F225512148FCF7ECFA68B31F4865
:104A2000FCF768FAC4B21F480088B0F5806F1CDA42
:104A30001C4801880088401C1A4A10801A484454B7
:104A40001A480068401C194908600A2C01D00D2C36
:104A500012D100201449134A1288885401201449A5
:104A6000087000200F49088006E000200D490880EA
:104A70000E4908600E49087000BF08210748FCF77E
:104A8000A3FA012806D108210448FCF7AAFA034832
:104A9000FCF730FA10BD000000080140003801406A
:104AA000580500205401002058010020500100202A
:104AB0004C0100201CB50C46064B7B446946009017
:104AC000204600F016F904460020694600F024F95B
:104AD00020461CBD5B02000030B505460B462A4649
:104AE00013F8014B12F8010B08B1A042F8D01CB129
:104AF000002802D06D1CF1E7284630BD10B5431CDC
:104B000002E010F8011B71B18107FAD14FF00132B8
:104B100002C88C1A8C4314EAC211F9D0C01A0A06D2
:104B200003D0C01E10BDC01A10BD0A0401D0801EE3
:104B300010BD0902FCD0401E10BD4FF00002042938
:104B4000C0F0128010F0030C00F0D082CCF1040C05
:104B5000BCF1020F18BF00F8012BA8BF20F8022BF0
:104B6000A1EB0C0100F0C2BA5FEAC17C24BF00F8DF
:104B7000012B00F8012B48BF00F8012B704770474C
:104B80007047704770B5044685690068C10601D555
:104B9000302600E02026C00707D070BDD4E90121EF
:104BA00030469047206A401C20626D1EF6D570BDCD
:104BB00070B5044685690078C00707D170BDD4E997
:104BC000012120209047206A401C20626D1EF6D5EE
:104BD00070BD09684A0501D540B27047C905FCD5CA
:104BE00000B2704709684A0501D5C0B27047C905CF
:104BF000FCD580B2704770B50C460546012A05D039
:104C00002878800600D5EA69002302E0012305E048
:104C10005B1C934202D2E05C0028F9D1A869E61837
:104C2000C01AA861286A184428622846FFF7AAFF1C
:104C300004E0D5E9012114F8010B9047B442F8D300
:104C40002846FFF7B5FF70BD2DE9F0410646002468
:104C500010687529314616A510D0FFF7BAFF002855
:104C600002DA404213A507E031688A0701D512A590
:104C700002E0490704D511A5012401E0FFF7B2FFC6
:104C800000210A2206F1240709E0B0FBF2FCB0FB88
:104C9000F2F302FB1C00303078541846491C0028FF
:104CA000F3D123462A463046BDE8F04100F088BAE9
:104CB000000000002D0000002B000000200000007C
:104CC00011680268006A530501D508700AE0D3052F
:104CD00001D5088006E0130603D5C217C1E900021A
:104CE00000E008600120704701694A1C02610878F1
:104CF000704700B58FB0CDE901310021059105491C
:104D00007944CDE903101146684600F029F90FB047
:104D100000BD0000E5FFFFFF0A6802F8010B0A6012
:104D2000704700002DE9FF5F15468A460446DFF80C
:104D3000AC80F8440027D8E900103E46CDE90010C9
:104D400010E03AF816106A4602A800F04BFE411C2B
:104D500007D02178890603D5E269391891420DD828
:104D60000744761C2078800602D5E069B84205DD4C
:104D7000AE42E6DB3AF816000028E2D1A069C01B7B
:104D8000A0612046FFF7FEFED8E90010CDE9001033
:104D9000002017E03AF818106A4602A800F022FE38
:104DA000B0F1FF3F81460BD000250DF1080B05E067
:104DB000D4E901211BF8050090476D1C4D45F7D340
:104DC00008F10100B0428046E4DB206A38442062EA
:104DD0002046FFF7EDFEBDE8FF9F0000B21C00007B
:104DE0002DE9F0418046D21D22F007020025D2E9CC
:104DF0000002F52915A614D0011E72F1000106DA91
:104E00000023D0EB030063EB020211A608E0D8F800
:104E100000108B0701D50FA602E0490701D50EA6A9
:104E200001251146002408F1240704E000F083F96D
:104E300030323A55641C50EA0102F7D12B46324613
:104E400021464046BDE8F04100F0BAB9000000003C
:104E50002D0000002B0000002000000030B40021D5
:104E600000F1240408E002F00705D208303542EAD8
:104E70004372DB086554491C52EA0305F3D1046808
:104E8000002310A2250707D5A40600D421B1C469C8
:104E900001230DA2641EC46130BC00F091B910B5AD
:104EA000044621461068FFF79DFE02462046BDE8F5
:104EB00010400023D2E7D21D22F00701D1E90023E0
:104EC000CCE700000000000030000000F0B40D4608
:104ED0000188090502D5214C7C4402E01F4C7C442A
:104EE0000E34002100F1240608E002F00F07120939
:104EF000E75D42EA03721B097754491C52EA030733
:104F0000F3D102780023120704D5702D06D009B121
:104F1000022311342246F0BC00F052B901231034B0
:104F2000F8E770B504460D4621461068FFF75AFEB3
:104F3000024629462046BDE870400023C6E7D21D40
:104F400022F00703D3E90023C0E70368126843F0A7
:104F5000200303600823C3610023B7E7141B00008C
:104F60002DE9F05F894604464FF0000ADFF874B17E
:104F7000FB44C0F820A02046E1688847002874D090
:104F8000252806D0D4E901219047206A401C2062E0
:104F9000F1E700265F462046E1688847202805465D
:104FA00007DB312D05D2781910F8200C08B1064323
:104FB000F1E7B00701D526F00406C4F81CA00027CD
:104FC000C4F818A02A2D09D0284601F040FA38B3B9
:104FD00004EB8708303DC8F8185019E059F8041B55
:104FE000204604EB87029161E1688847012F05465E
:104FF00018D1E069002820DA26F020061DE0D8F854
:10500000180000EB800005EB40003038C8F81800AD
:105010002046E1688847054601F019FA0028EED1DC
:10502000012F0AD02E2D08D12046E16888477F1C29
:105030000546022F46F02006C4DBA069002803DAEB
:10504000404246F00106A061F00701D026F01006AC
:105050006C2D0BD0682D09D04C2D39D06A2D35D050
:10506000742D35D07A2D33D016E038E0E1682F4624
:1050700020468847B842054609D16C2F26D04FF408
:105080008060E168064320468847054604E06C2FAF
:105090001AD04FF4807006430DB3A5F141001928D2
:1050A00002D8203546F400664A4629462046266046
:1050B0004E46FBF775F880B101280BD0F61D26F09F
:1050C000070000F1080956E74020E4E78020D8E710
:1050D0000020D6E706F104094DE7284652E7206A8A
:1050E000BDE8F09FA41A00004FF0000200B513467F
:1050F00094469646203922BFA0E80C50A0E80C50F8
:10510000B1F12001BFF4F7AF090728BFA0E80C50A8
:1051100048BF0CC05DF804EB890028BF40F8042BA1
:1051200008BF704748BF20F8022B11F0804F18BF0E
:1051300000F8012B704730B5B0F10A024FEA900E2B
:1051400071F100034EEA817EB0EB0E0061EB91013C
:105150004FEA101E4EEA017E10EB0E0041EB1111DA
:105160004FEA102E4EEA016E10EB0E0041EB1121BA
:105170004FEA104E4EEA014E10EB0E0041EB11418A
:10518000401841F100014FEAD00040EA41704FEA77
:10519000D10110EB80054FEA810444EA907444EB9E
:1051A00001046D1944EB0404521BA3414FF00003AA
:1051B00048BF0A3200D530BD401C41F1000130BD6E
:1051C0002DE9F0470D4699469246044600F1240821
:1051D0000168880604D5E06921F01001216000E033
:1051E0000120A84201DD471B00E00027A1697A19D0
:1051F00002EB0900081AA0612078C00602D42046FC
:10520000FFF7C0FC002608E0D4E901211AF80600E7
:105210009047206A401C761C20624E45F4DB2078C3
:10522000C0060AD52046FFF7ADFC06E0D4E901210F
:1052300030209047206A401C2062381EA7F10107E9
:10524000F4DC07E0D4E9012118F805009047206A52
:10525000401C2062281EA5F10105F3DC2046FFF763
:10526000A7FC2078000602D50220BDE8F0870120C7
:10527000FBE770472DE9FF4F0C461E464FF0FF3706
:105280008BB0D2E90001DDF860800A908A46C1F354
:105290000A5505B93D46002108464FF00000BAF115
:1052A000000F00F4400005DA00EB80004FF44001ED
:1052B00001EA50004FEA9059B9F1010F00DDB946FB
:1052C0000A9850EA4A000ED044F61050A5F2FF3575
:1052D00045432F14B8F1000F1ED07542291E1EDD64
:1052E000C9F100021CE0B8F1010F4FF0000001D03D
:1052F000302103E0F24305E02154401CB042FBDBC7
:1053000030460022002121540B99C1F80880C1E9E0
:1053100000200FB0BDE8F08FBD1B6D1CDEE74A46D4
:1053200000DA694206A800F0EFFB06AB93E807003D
:1053300003AB83E8070050460A9900F0ACFC8DE807
:105340000700A0F500501F3800900398002D0ADDDB
:1053500042F21F014A460844002303A9039068460D
:1053600000F015FF09E0A0F500504A461F38002361
:1053700003A90390684600F01FFF8DE807000004B2
:10538000000C03D04FF0FF30410800E01046B8F1A8
:10539000000F03D00022009215461EE0751E05D4B2
:1053A000FFF7C9FE303262556D1EF9D5B3460122B2
:1053B000084302D000227F1C04E02078302801D16D
:1053C00000227F1E002A099784D01DE0112D07DAE4
:1053D000FFF7B1FE303262556D1C50EA0102F5D183
:1053E000084302D00098C8B10EE00021681E05E015
:1053F000235C625C63542254401E491C8142F7DBEB
:10540000AB46A81B401E0990002004F80B000B9827
:10541000099AC0F80880C0E9002B7AE711264FF0FE
:10542000000857E72DE9F04F88460446D21D22F0C8
:10543000070191B0D1E90001CDE90A0100F0F3FFC5
:1054400002460B98C00F01D02D2007E0206881078D
:1054500001D52B2002E0202101EAC000032A099097
:1054600001D0072A05DB03464146204600F00CFB2D
:105470000BE12078800601D5E06900E00620B8F154
:10548000650F814606D0B8F1660F18D0B8F1670FE6
:1054900070D131E00020B9F1110F009001DB112330
:1054A00001E009F101030AAA01A90CA8FFF7E2FE35
:1054B000DDE90C70002609F10105834647E0012073
:1054C0004B4600904FF000470AAA01A90CA8FFF72D
:1054D000D1FEDDE90DB00C995D46002610B909F149
:1054E00001000D18B9EB050003D4C0F1FF3609F136
:1054F0000105A5EB09002BE0B9F1010F01DA4FF02E
:1055000001090020B9F1110F0090484601DD112377
:1055100000E003460AAA01A90CA8FFF7ABFEDDE9EB
:105520000C704D4600268346207800070AD4AB4510
:1055300000DA5D4601A8012D04DD411911F8011CB6
:10554000302907D04F4502DA17F1040F04DA0120A1
:1055500082460FE06D1EEEE7002F02DCED1B3E449D
:1055600003E0781CA84200DD7D1CB81B00F1010A95
:105570004FF000472078000703D4AA4501DB4FF025
:10558000FF3A0021B7F1004F0DF143088DF84310A9
:1055900024D002202B23002F01DA7F422D230A2161
:1055A000021EA0F1010000DC5FB197FBF1FC97FB4C
:1055B000F1F201FB1C7C17460CF1300C08F801CD10
:1055C000EEE7A8F1010003702188090501D5452106
:1055D00000E06521A0F1010800F8011C09980FA95D
:1055E000A1EB0807FF1D00B10120411901EBEA7092
:1055F000A1693844081A401EA0612078C00602D470
:105600002046FFF7BFFA099828B1D4E90121904755
:10561000206A401C20622078C00622D52046FFF771
:10562000B1FA1EE0002E04DBB34502DD01A8805D67
:1056300000E03020D4E901219047206A401C20621C
:10564000761CAAF101005FEA000A0AD100F018FAFC
:10565000C0680168405CD4E901219047206A401C81
:105660002062281EA5F10105DCDC07E0D4E9012158
:1056700018F8010B9047206A401C2062381EA7F1E1
:105680000107F3DC2046FFF793FA032011B041E64F
:105690002DE9F04F04460D46D21D22F0070089B0D7
:1056A000D0E900974846394600F0BDFE0246F80FA3
:1056B00001D02D2307E02068810701D52B2302E0CC
:1056C000202101EAC0038DF820300BB1012000E059
:1056D0000020032A824601D0072A04DB29462046FF
:1056E00000F0D2F93FE12078800601D40D2500E0DA
:1056F000E569C7F30A560D2D49DA00214FEA175B19
:1057000008464FF00000002F00F4400007DA00EBDD
:1057100080004FF4400100EBD07001EA6000811579
:10572000012901DD4FF0FF3100224FEA850CBCF169
:10573000180F06D31346ACF118004FF08052C24048
:1057400003E04FF4801323FA0CF30CF10C0CBCF1C2
:10575000200F04D3ACF1200C09FA0CF001E007FA99
:105760000CF000294FF0004801DD18B90FE00ED110
:1057700040450CD319EB02095F4121B9404502D1E4
:105780009F4329EA0209BBEB175F00D0761C2088F3
:10579000000502D57B48784402E07A4878441938FD
:1057A00008AA302302F80A30037C0AF10101002E16
:1057B0000AF1020A53546A4602DC4FF0300101E05C
:1057C0004FF031014FF001088DF8001002D0A6F221
:1057D000FF3603E059EA470100D06B4E002D02DC92
:1057E0002178090704D54FF002082E218DF8011009
:1057F000C44600210BE0C7F303433F01C35C491CCF
:105800006D1E02F80830052908F1010801DA002DA3
:10581000F1DC00210CE000EB1973491C1B786D1EB4
:10582000082902F808304FEA091908F1010801DADD
:10583000002DF0DC21688B0602D516E0A8F10108E6
:10584000E04505DD02EB080313F8013C302BF5D0F1
:10585000B8F1000F09DD02EB080313F8013C2E2B11
:1058600003D1090701D4A8F10108002D05DD3E216F
:1058700002F808106D1E08F10108407C002E02F8A5
:10588000080008F1010804DA2D20764202F8080029
:1058900002E02B2002F808000A214FF47A708642B9
:1058A00008F101080BDB96FBF0F3303302F8083007
:1058B00096FBF0F308F1010800FB136601E0642E8B
:1058C0000CDB642096FBF0F3303302F8083096FBD3
:1058D000F0F308F1010800FB136601E00A2E06DB75
:1058E00096FBF1F0303002F8080008F1010896FB51
:1058F000F1F001FB1060303002F80800A16908F1F6
:10590000010808EB050202EB0A00081AA0612078E2
:10591000C00602D42046FFF735F9216A08AE01EB34
:105920000A00206204E0D4E9012116F8010B904737
:10593000BAF1010AF7D22078C00602D52046FFF757
:1059400021F96E4609E016F8010B3E280FD0D4E984
:1059500001219047206A401C2062B8F10108F2D270
:105960002046FFF725F909B00320BDE8F08F206A33
:105970002844206203E0D4E90121302090476D1EC5
:10598000EBD3F8E7A212000002FCFFFF10B5436959
:1059900013B1AFF3008001E0FFF72DF9012010BD36
:1059A000127800F124010A7000224A700122EDE70A
:1059B00011684FF0FF32E9E710B5436913B1AFF357
:1059C000008001E0FFF7AEF9012010BD128800F160
:1059D000240182840022C2840122EDE711684FF085
:1059E000FF32E9E770B516460C46054600F040F870
:1059F000036893F80101012806D0FF2C0FD8185D29
:105A000068B101202C7070BDD3F8070132462146E1
:105A100003F2071303442846BDE8704018474FF0CF
:105A2000FF3070BD754600F0EBF8AE4605006946E4
:105A3000534620F00700854618B020B5FAF718FD48
:105A4000BDE820404FF000064FF000074FF000087F
:105A50004FF0000B21F00701AC46ACE8C009ACE800
:105A6000C009ACE8C009ACE8C0098D467047000029
:105A700010B500F005F8001D10BD00BF0D0A0000B4
:105A800000487047780900202DE9F0411F46044680
:105A900003260168072A01F4006004DB08B116A59B
:105AA00005E016A503E008B115A500E015A521F055
:105AB00010002060A069C01EA0610FB1401EA0614F
:105AC0002046FFF75FF84FB1D4E9012138469047EF
:105AD000206A401C2062C01C206206E0206AFAE7AF
