:020000040800F2
:10000000C80F0020550400085D0400085F040008C4
:100010006104000863040008650400080000000093
:10002000000000000000000000000000670400085D
:1000300069040008000000006B0400086D0400085B
:100040006F0400086F0400086F0400086F040008C4
:100050006F0400086F0400086F0400086F040008B4
:100060006F0400086F0400086F0400086F040008A4
:100070006F0400086F0400086F0400086F04000894
:100080006F0400086F0400086F0400086F04000884
:100090006F0400086F0400086F040008254A000878
:1000A0006F0400086F0400086F0400086F04000864
:1000B0006F040008933400086F0400086F04000800
:1000C0006F0400086F0400086F0400086F04000844
:1000D0006F040008954C00086F0400086F040008C6
:1000E0006F0400086F0400086F04000800F002F8B5
:1000F00000F0B0F80AA090E8000C82448344AAF112
:100100000107DA4501D100F0A5F8AFF2090EBAE80F
:100110000F0013F0010F18BFFB1A43F0010318473B
:10012000486C0000686C00000A444FF0000C10F8A6
:10013000013B13F0070408BF10F8014B1D1108BF65
:1001400010F8015B641E05D010F8016B641E01F805
:10015000016BF9D113F0080F1EBF10F8014BAD1C55
:100160000C1B09D16D1E58BF01F801CBFAD505E073
:1001700014F8016B01F8016B6D1EF9D59142D6D3CD
:10018000704700000023002400250026103A28BFF5
:1001900078C1FBD8520728BF30C148BF0B607047F9
:1001A0006E2904F0CF86702905F01180662906F0CB
:1001B0005985652906F05685672906F0538561291A
:1001C00006F0528503681B0A28BF41F080016929A7
:1001D00004F07C86642904F07986752904F076861B
:1001E0006F2904F09E87782904F0DD87E92904F05F
:1001F0003987E42904F03687F52904F03387EF299D
:1002000004F09B87F82904F0DC870368DB0928BF2A
:1002100041F08001632905F00585732905F00A8501
:10022000E32905F01585F32905F01A8500207047AC
:100230001FB505F067FD04000020002106F066FAF6
:10024000401C60600020002106F04AFAE0601FBDFB
:1002500010B510BD05F028FD1146FFF7E9FF01F0CC
:100260000AF805F005FE03B4FFF7F2FF03BC05F042
:100270004DFE00000CB50020019000906C48006815
:1002800040F480306A49086000BF6948006800F4A3
:10029000003000900198401C0190009818B9019816
:1002A000B0F5A06FF1D16248006800F4003010B1E1
:1002B0000120009001E0002000900098012843D127
:1002C0005C48006840F010005A4908600846006821
:1002D00020F0030008600846006840F00200086053
:1002E000534840685249486008464068486008469C
:1002F000406840F4806048600846406820F47C1004
:1003000048600846406840F4E810486008460068C5
:1003100040F08070086000BF4548006800F0007041
:100320000028F9D04248406820F003004049486066
:100330000846406840F00200486000BF3C48406802
:1003400000F00C000828F9D10CBD10B5FFF792FFA2
:1003500010BD10B53648006840F00100344908600F
:1003600008464068344908403149486008460068FA
:10037000324908402E4908600846006820F4802071
:1003800008600846406820F4FE0048604FF41F00F3
:100390008860FFF7DAFF4FF000602949086010BD60
:1003A00010B5002100200022214B5B6803F00C01F6
:1003B00021B1042906D0082928D107E0214B224C7D
:1003C000236027E01F4B204C236023E0184B5B6821
:1003D00003F47010164B5B6803F48032022303EBC6
:1003E000904022B9194B4343174C23600DE0104B4A
:1003F0005B6803F4003323B1144B4343124C236076
:1004000003E0104B4343104C236003E00D4B0E4CB4
:10041000236000BF00BF064B5B68C3F303130C4CA3
:10042000E15C094B1B68CB40074C236010BD00000A
:1004300000100240002002400000FFF8FFFFF6FE1F
:1004400008ED00E000127A000000002000093D00E5
:10045000040000200948804709480047FEE7FEE7FE
:10046000FEE7FEE7FEE7FEE7FEE7FEE7FEE7FEE764
:1004700004480549054A064B70470000530300082D
:10048000ED000008C8090020C80F0020C80B00209C
:10049000C80B002010B56FF0040000F03EFE2E489F
:1004A00000682E49B0FBF1F02D490870084600782D
:1004B00000EB4001C1EBC0104FF6FF7101EAC00034
:1004C0002849088010BD0146254A12784A434FF05A
:1004D000E0235A6100229A611A46126942F0010231
:1004E0001A6100BF4FF0E022106900F001021AB15A
:1004F00000F48032002AF5D04FF0E022126922F099
:1005000001024FF0E0231A6100229A617047014610
:10051000144A12884A434FF0E0235A6100229A613C
:100520001A46126942F001021A6100BF4FF0E02240
:10053000106900F001021AB100F48032002AF5D0EF
:100540004FF0E022126922F001024FF0E0231A611D
:1005500000229A61704700000000002000127A001B
:10056000140000201600002010B54FF4A06000F029
:1005700085FD10BD10B50446CC48844208D1012148
:10058000042000F02DFB0021042000F029FB46E0B0
:10059000C748844208D10121082000F021FB002136
:1005A000082000F01DFB3AE0C248844208D1012136
:1005B000102000F015FB0021102000F011FB2EE0B0
:1005C000BD48844208D10121202000F009FB002110
:1005D000202000F005FB22E0B848844208D1012128
:1005E000402000F0FDFA0021402000F0F9FA16E06A
:1005F000B348844208D10121802000F0F1FA0021A3
:10060000802000F0EDFA0AE0AE48844207D10121D3
:10061000801500F0E5FA0021A01500F0E1FA10BD08
:1006200010B50121084600F0DBFA0021012000F09E
:10063000D7FA10BD2DE9F041024600250026002022
:1006400000230024002791F803C00CF00F0591F857
:1006500003C00CF0100CBCF1000F03D091F802C0E5
:100660004CEA050591F800C0BCF1000F31D01468C8
:1006700000202BE04FF0010C0CFA00F3B1F800C0A1
:100680000CEA03069E4220D183004FF00F0C0CFAB7
:1006900003F7BC4305FA03FC4CEA040491F803C0D9
:1006A000BCF1280F06D14FF0010C0CFA00FCC2F887
:1006B00014C00AE091F803C0BCF1480F05D14FF017
:1006C000010C0CFA00FCC2F810C0401C0828D1D361
:1006D0001460B1F800C0BCF1FF0F34DD5468002095
:1006E0002EE000F1080C4FF0010808FA0CF3B1F805
:1006F00000C00CEA03069E4221D183004FF00F0C8C
:100700000CFA03F7BC4305FA03FC4CEA040491F825
:1007100003C0BCF1280F05D100F1080C08FA0CF851
:10072000C2F8148091F803C0BCF1480F07D100F162
:10073000080C4FF0010808FA0CF8C2F81080401CB1
:100740000828CED35460BDE8F0814FF6FF710180D8
:10075000022181700421C170704702460020936815
:100760000B400BB1012000E0002070470146886873
:1007700080B2704702460020D3680B400BB10120C5
:1007800000E0002070470146C86880B270470161F0
:100790007047416170470AB1016100E041617047F3
:1007A000C16070474FF480320A4382618161826187
:1007B00082698269704702460020434B18684FF6F1
:1007C0008073184040EA021008433F4B186070479E
:1007D0003E49C8617047F0B50A4600230024002155
:1007E000002500F00046B6F1004F02D1364EF16907
:1007F00001E0354E7168C0F3034583B200F4401642
:10080000B6F5401F08D121F070612F4E766826F0B2
:1008100070662D4F7E6012E000F48016B6F5801FE2
:1008200006D1032606FA05F4A14341F0706106E003
:10083000460D360103FA06F6B14341F0706122B16C
:10084000460D360103FA06F6314300F00046B6F1D4
:10085000004F02D11C4EF16101E01B4E7160F0BDF2
:1008600030B500228B071C0F0F2303FA04F2164B3E
:1008700008338C1053F824309343134C08348D10F4
:1008800044F8253023468C1053F824308C07240F6D
:1008900000FA04F423430C4C08348D1044F825303E
:1008A00030BD0A49DC310860704700000008014093
:1008B000000C0140001001400014014000180140EC
:1008C000001C0140002001400000014000002042C7
:1008D000DF48006840F00100DD49086008464068D4
:1008E000DC490840DA49486008460068DA490840AF
:1008F000D74908600846006820F480200860084650
:10090000406820F4FE0048604FF41F008860704784
:10091000CF49096821F48031CD4A11601146096838
:1009200021F480211160B0F5803F03D0B0F5802F15
:100930000ED106E0C649096841F48031C44A11600D
:1009400007E0C349096841F4A021C14A116000E0F1
:1009500000BF00BF704710B50146002200230020F1
:100960004A11012A02D1BA4C236806E0022A02D1B8
:10097000B74C236A01E0B64C636A01F01F02012400
:1009800094401C400CB1012000E0002010BD38B59F
:10099000002000900024002500BF3120FFF7DBFF7E
:1009A00005460098401C00900098B0F5A06F01D05B
:1009B000002DF2D03120FFF7CEFF08B1012400E076
:1009C0000024204638BD01460020A14A106820F0CE
:1009D000F80040EAC10010607047A0490860704705
:1009E000024600209A4B586820F47C1042EA01032A
:1009F0001843974B586070479849086670470146FE
:100A00000020934A506820F003000843506070476C
:100A10008F48406800F00C007047014600208C4A67
:100A2000506820F0F00008435060704701460020F5
:100A3000874A506820F4E0600843506070470146E0
:100A40000020834A506820F4605040EAC1005060A2
:100A5000704729B17E4A527A02437D4B5A7204E0B4
:100A60007B4A527A82437A4B5A7270477B49D8311B
:100A70000860704701460020754A506820F44040E5
:100A80000843506070470021714A20321170704A4B
:100A900082F82010012802D004280AD104E00121A4
:100AA0006B4A2032117005E00521694A203211702D
:100AB00000E000BF00BF70476949086070476449A3
:100AC000096A0143624A1162704765494439086006
:100AD000704730B500210022002400235C4D6D6872
:100AE00005F00C0121B1042905D0082923D105E026
:100AF0005C4D056022E05B4D05601FE0544D6D6864
:100B000005F47012524D6D6805F48034022505EB32
:100B100092421CB9544D554305600BE04C4D6D6835
:100B200005F400351DB1504D5543056002E04D4DB3
:100B30005543056002E04B4D056000BF00BF444DCA
:100B40006D6805F0F0010909484D6B5C0568DD40F2
:100B500045603F4D6D6805F4E061090A434D6B5CEB
:100B60004568DD4085603A4D6D6805F46051C90AFD
:100B70003E4D6B5C4568DD40C560354D6D6805F4E4
:100B80004041890B3A4D6B5CC568B5FBF3F50561D7
:100B900030BD29B12E4A526902432D4B5A6104E0FF
:100BA0002B4A526982432A4B5A61704729B1284A1D
:100BB00092690243264B9A6104E0254A9269824376
:100BC000234B9A61704729B1214AD2690243204BD5
:100BD000DA6104E01E4AD26982431D4BDA61704734
:100BE00029B11B4AD2680243194BDA6004E0184A63
:100BF000D2688243164BDA60704729B1144A1269F1
:100C00000243134B1A6104E0114A12698243104BEC
:100C10001A61704712494039086070470F49C8642B
:100C200070470B49C87170470948406A40F08070AE
:100C300007494862704701460020054A92680A4009
:100C40000AB1012000E00020704701498872704716
:100C5000001002400000FFF8FFFFF6FE00004242D5
:100C60008004424200127A0000093D001800002072
:100C70002800002010B50446FB48844209D1012118
:100C80008803FFF7ADFF00214FF48040FFF7A8FF76
:100C900032E0F648844209D101214804FFF7ADFF54
:100CA00000214FF40030FFF7A8FF25E0F048844210
:100CB00009D101218804FFF7A0FF00214FF4802013
:100CC000FFF79BFF18E0EB48844209D10121C804DB
:100CD000FFF793FF00214FF40020FFF78EFF0BE09A
:100CE000E548844208D101210805FFF786FF00216D
:100CF0004FF48010FFF781FF10BD2DE9F04786B05B
:100D000005460E460024A24600BFA1460027B08932
:100D100000B100BF2F462C8A4CF6FF700440F088CB
:100D200004432C82AC894EF6F3100440B08831891C
:100D30000843718908430443AC81AC8A4FF6FF40F5
:100D40000440B0890443AC8201A8FFF7C2FEC64844
:100D5000874202D1DDF810A001E0DDF80CA0A889DF
:100D600000F4004040B10AEBCA0000EB0A10316801
:100D70004900B0FBF1F807E00AEBCA0000EB0A10EB
:100D800031688900B0FBF1F86420B8FBF0F0040191
:100D90002009642101FB1089A88900F4004040B1BA
:100DA000322000EBC900B0FBF1F000F00700044373
:100DB00008E0322000EB09106421B0FBF1F000F0F4
:100DC0000F0004432C8106B0BDE8F0874FF41651A4
:100DD000016000218180C18001810C2141810021BD
:100DE0008181704710B502460020108A4FF2FF0340
:100DF00018400B884C8823438C882343CC8823439A
:100E00001843108210BD0021018041808180C18083
:100E1000704721B1828942F40052828104E08289C4
:100E20004DF6FF731A4082817047F0B503460024E7
:100E300000260025002040F66A17B94200D100BF05
:100E40001846C1F3421401F01F06012707FA06F500
:100E5000012C01D10C3004E0022C01D1103000E053
:100E600014301AB107682F43076002E00768AF43E8
:100E70000760F0BD1AB1838A0B43838202E0838A44
:100E80008B4383827047028A4FF6F0731A400282C6
:100E9000028A0A430282704782894FF2FF731A4026
:100EA000828182890A438281704721B1828942F01E
:100EB0000202828104E082894FF6FD731A4082812A
:100EC0007047028A4FF6DF731A400282028A0A4391
:100ED0000282704721B1028A42F48042028204E019
:100EE000028A4BF6FF731A4002827047C1F3080270
:100EF0008280704701468888C0F308007047818966
:100F000041F0010181817047028BD2B20283028BD2
:100F100042EA012202837047028B02F47F4202837D
:100F2000028B0A430283704721B1828A42F0200279
:100F3000828204E0828A4FF6DF731A408282704711
:100F400021B1828A42F01002828204E0828A4FF646
:100F5000EF731A408282704721B1828A42F0080200
:100F6000828204E0828A4FF6F7731A4082827047C9
:100F700021B1828942F40042828103E08289C2F376
:100F80000E028281704721B1828A42F4006282821D
:100F900004E0828A4FF2FF731A4082827047828A8D
:100FA0004FF6FB731A408282828A0A43828270471C
:100FB00021B1828A42F00202828204E0828A4FF6E4
:100FC000FD731A408282704702460020B1F5007F0F
:100FD00000D100BF13880B400BB1012000E00020BE
:100FE000704701F40072B2F5007F00D100BFCA4320
:100FF0000280704770B502460024002300250020BF
:1010000040F66A16B14200D100BFC1F3421501F0AB
:101010001F03012606FA03F3012D02D196893340FE
:1010200006E0022D02D1168A334001E0968A334051
:101030000C12012606FA04F41688344013B10CB1E0
:10104000012000E0002070BD10B50022002340F612
:101050006A14A14200D100BF0A1201249440A3B235
:10106000DC43048010BD0000003801400044004013
:1010700000480040004C004000500040314901430E
:10108000314A1160704770B5002100230F22C478E7
:1010900004B32D4C246804F4E064C4F5E064210A30
:1010A000C1F10403CA40447804FA03F1847814407F
:1010B00021430901254C0678A155047804F01F0549
:1010C0000124AC4005786D11AD0005F1E025C5F8AF
:1010D000004109E0047804F01F050124AC401C4DD8
:1010E0000678761145F8264070BD1A4A0A40024338
:1010F000154B1B1F1A60704739B1134A121D126835
:101100000243114B1B1D1A6006E00F4A121D1268A4
:1011100082430D4B1B1D1A607047042808D14FF005
:10112000E021096941F004014FF0E022116107E07C
:101130004FF0E021096921F004014FF0E022116134
:10114000704700000000FA050CED00E000E400E04C
:1011500080E100E080FFFF1F10B50024802002F036
:1011600076F800BF05E0FE49085D02F0C3F8601C98
:10117000C4B2102CF7DBC02002F069F8002405E0AF
:10118000F849085D02F0B6F8601CC4B2102CF7DB19
:1011900010BD70B504460D46F3A003F034FD3220B7
:1011A000FFF7B5F9F2A003F02EFD4FF4C870FFF77A
:1011B000AEF9F3A003F027FD4FF4C870FFF7A7F9CD
:1011C0002146F2A003F01FFD4FF4C870FFF79FF90E
:1011D0002B46E44AE249F1A003F015FD4FF4C87034
:1011E000FFF795F91A20F049088000BFEE48001F6C
:1011F000008800F040000028F8D04FF4C870FFF7D6
:1012000086F970BD08B548208DF8030003208DF8DD
:1012100002004FF47040ADF800006946E348FFF764
:1012200009FA48208DF8030003208DF80200C0025F
:10123000ADF800006946DE48FFF7FCF910208DF894
:10124000030003208DF802004FF48070ADF8000019
:101250006946D748FFF7EEF910208DF80300032008
:101260008DF8020040F60340ADF800006946CF4813
:10127000FFF7E0F908BD00BF4FF0000A00BF0121F1
:101280003C20FFF793FCFFF705F941F61F4140F2C0
:10129000F31002F0D1F8FFF7B5FFFFF765F94FF44F
:1012A000165003F059FC02F077F800224FF48071D9
:1012B000BF48FFF770FA01F094BCBE4800780A21DD
:1012C00090FBF1F03030A6498873BA4800780A21C3
:1012D00090FBF1F201FB12003030A149C873642089
:1012E000FFF715F9012003F036FBB349522003F054
:1012F00031FAB2490870B04803F056FAAF490870A5
:1013000008460078002841F06A8401221102A848AA
:10131000FFF741FA9620FFF7FAF800224FF48071A8
:10132000A348FFF738FA4FF0000A1FE0A24810F870
:101330000A00A34901EB201001780AEB4A00C01C07
:10134000884A11549C4810F80A0000F00F009C498C
:10135000095C0AEB4A00001D115420210AEB4A00E7
:10136000401D11540AF1010000F0FF0ABAF1040F08
:10137000DCDBFFF7F1FE90480078AC287ED18E4888
:101380004078A128FAD18C4880783728F6D18A484D
:10139000C0784928F2D18B48007800286FD101200D
:1013A0008849087000208849087088A2012102F04D
:1013B00024F800224FF400617C48FFF7ECF9012289
:1013C00091027A48FFF7E7F94FF47A70FFF79FF838
:1013D00000224FF400617548FFF7DDF900224FF459
:1013E00080617248FFF7D7F90122D1027048FFF7F8
:1013F000D2F9012211026E48FFF7CDF96420FFF700
:1014000086F800224FF480716948FFF7C4F90FE0B5
:101410004FF400616648FFF7A0F948B93220FFF7A2
:1014200076F84FF400616248FFF797F900B900E0E1
:10143000EEE700BF0122D1025C48FFF7ACF90022C1
:101440004FF480615948FFF7A6F94FF47A70FFF71F
:101450005EF80122D1025548FFF79DF900224FF4B2
:1014600080615248FFF797F9012211025048FFF7B7
:1014700092F96420FFF74BF8002201E036E230E0F9
:101480004FF480714A48FFF786F90122D10247489C
:10149000FFF781F900224FF480614448FFF77BF9A0
:1014A0000FE04FF480514148FFF757F948B9322017
:1014B000FFF72DF84FF480513C48FFF74EF900B983
:1014C00000E0EEE700BF00224FF400613748FFF76D
:1014D00062F900224FF480613448FFF75CF901F0B3
:1014E0007EBB384800780128F9D1002035490870C2
:1014F0003548007805F0A5FA80460022384B05F003
:101500001BF9064600224FF0804305F0ADFA044671
:1015100005F06AFA33490880334800880988884210
:1015200066DD314800882F490988401A2E49088015
:1015300008460088642190FBF1F030302B49087296
:10154000294800880A2190FBF1F090FBF1F201FBA1
:101550001200303025494872234800880A2148E0AB
:10156000E6000020F7000020415445300D0A00003D
:1015700041542B435343533D2247534D220D0A0000
:1015800041542B434D47463D310D0A0041542B43F6
:101590004D47533D222573220D0A000025730D0A85
:1015A00025730D0A2573000004380140000C01402A
:1015B00000080140500100202C00002041000020C4
:1015C000300000204401002052010020496E206CB0
:1015D000617965722031206E6F2E2031000000008D
:1015E00000004E40480100203C010020080100207E
:1015F00061E090FBF1F201FB12003030FD4988728E
:10160000FD4800783C2190FBF1F00A2190FBF1F0BD
:101610003030FA490871F84800783C2190FBF1F02D
:101620000A2190FBF1F201FB12003030F3494871BE
:10163000F3480088642190FBF1F03030EF490873E3
:10164000EF4800880A2190FBF1F090FBF1F201FBDA
:1016500012003030E9494873E94800880A2190FBBC
:10166000F1F201FB12003030E4498873802001F070
:10167000EEFD4FF0000A08E0DE4911F80A0001F023
:1016800039FE0AF1010000F0FF0ABAF1100FF3DB96
:10169000C02001F0DCFD4FF0000A08E0D74911F846
:1016A0000A0001F027FE0AF1010000F0FF0ABAF17A
:1016B000100FF3DBABE0D3480088642190FBF1F01E
:1016C0003030CC490872CF4800880A2190FBF1F0F5
:1016D00090FBF1F201FB12003030C6494872C94854
:1016E00000880A2190FBF1F201FB12003030C14961
:1016F0008872C14800783C2190FBF1F00A2190FBF0
:10170000F1F03030BD490871BB4800783C2190FBB6
:10171000F1F00A2190FBF1F201FB12003030B749E1
:101720004871B7480088642190FBF1F03030B3492C
:101730000873B34800880A2190FBF1F090FBF1F2A6
:1017400001FB12003030AD494873AD4800880A21D2
:1017500090FBF1F201FB12003030A8498873802021
:1017600001F075FD4FF0000A08E0A24911F80A00E7
:1017700001F0C0FD0AF1010000F0FF0ABAF1100FFC
:10178000F3DBC02001F063FD4FF0000A08E09B4945
:1017900011F80A0001F0AEFD0AF1010000F0FF0AA5
:1017A000BAF1100FF3DB98499848FFF7F2FC0122D9
:1017B00011039748FEF7EFFF012211029448FEF74C
:1017C000EAFF002441F28830FEF7A1FE1CE0B4F5E8
:1017D000FA6F14DA0120FEF79AFE4FF480518C481C
:1017E000FEF7BBFF48B93220FEF791FE4FF480515F
:1017F0008748FEF7B2FF00B907E0641C04E08249A5
:101800008448FFF7C6FC00E0E1E700BF00BF00220C
:101810004FF400618048FEF7BEFF012291027E482E
:10182000FEF7B9FF4FF47A70FEF771FE00224FF415
:1018300000617948FEF7AFFF00224FF480617648DF
:10184000FEF7A9FF0122D1027148FEF7A4FF012291
:1018500011026F48FEF79FFF6420FEF758FE00223A
:101860004FF480716A48FEF796FF0FE04FF4006175
:101870006748FEF772FF48B93220FEF748FE4FF482
:1018800000616348FEF769FF00B900E0EEE700BFC2
:101890000122D1026048FEF77EFF00224FF48061F2
:1018A0005D48FEF778FF4FF47A70FEF730FE0022B5
:1018B0004FF400615848FEF76EFF00224FF480613C
:1018C0005548FEF768FF012211025148FEF763FFF9
:1018D0006420FEF71CFE00224FF480714C48FEF796
:1018E0005AFF40F2DC50FEF712FEF8E54B48007854
:1018F00033287DD1494840780E28FAD1474880786E
:101900009728F6D14548C078FA28F2D144480078A3
:1019100000286ED10120424908700020414908701A
:1019200041A2012101F069FD00224FF400613A4813
:10193000FEF731FF012291023748FEF72CFF4FF4EA
:101940007A70FEF7E4FD012211023148FEF723FF11
:101950006420FEF7DCFD00224FF480712C48FEF776
:101960001AFF4FF47A70FEF7D2FD012211022848C7
:10197000FEF711FF6420FEF7CAFD00224FF48071CC
:101980002348FEF708FF00224FF400612248FEF7CB
:1019900002FF00224FF480611F48FEF7FCFE012287
:1019A000D1021B48FEF7F7FE0FE04FF40061184824
:1019B000FEF7D3FE48B93220FEF7A9FD4FF40061CF
:1019C0001348FEF7CAFE00B900E0EEE700BF0122AF
:1019D000D1021148FEF7DFFE00224FF480610E486D
:1019E000FEF7D9FE4FF47A70FEF791FD012225E053
:1019F00044E26DE00801002052010020190100209E
:101A0000480100203C0100208A0000204200002004
:101A10000008014072000020000C01402C00002052
:101A20004501002053010020496E206C61796572E8
:101A30002031206E6F2E2032000000001102FE487F
:101A4000FEF7A9FE6420FEF762FD00224FF48071CC
:101A5000F948FEF7A0FE4FF47A70FEF758FD012218
:101A60001102F548FEF797FE6420FEF750FD0022B4
:101A70004FF48071F048FEF78EFE0122D102EF484C
:101A8000FEF789FE00224FF48061EC48FEF783FEEA
:101A90000FE04FF40051E948FEF75FFE48B93220ED
:101AA000FEF735FD4FF40051E448FEF756FE00B94D
:101AB00000E0EEE700BF00224FF40061DF48FEF7D0
:101AC0006AFE00224FF48061DC48FEF764FE06E502
:101AD000DB4800780128FAD10020D9490870D9489C
:101AE000007804F0AEFF80460022D74B04F024FEBD
:101AF000064600224FF0804304F0B6FF044604F08F
:101B000073FFD2490880D24800880988884272DD74
:101B1000CF480088CD490988401ACD490880084639
:101B20000088642190FBF1F03030CA490872C8483F
:101B300000880A2190FBF1F090FBF1F201FB12000A
:101B40003030C4494872C24800880A2190FBF1F243
:101B500001FB12003030BF498872BA4800783C213E
:101B600090FBF1F00A2190FBF1F03030BA49087196
:101B7000B44800783C2190FBF1F00A2190FBF1F28F
:101B800001FB12003030B4494871B048008864212C
:101B900090FBF1F03030B0490873AC4800880A215E
:101BA00090FBF1F090FBF1F201FB12003030AA49FA
:101BB0004873A64800880A2190FBF1F201FB12004D
:101BC0003030A5498873802001F041FB4FF0000AB6
:101BD00008E0A04911F80A0001F08CFB0AF10100AD
:101BE00000F0FF0ABAF1100FF3DBC02001F02FFB69
:101BF0004FF0000A09E00CE0974911F80A0001F0E3
:101C000079FB0AF1010000F0FF0ABAF1100FF3DBD3
:101C1000B1E08F480088642190FBF1F030308D49AD
:101C200008728B4800880A2190FBF1F090FBF1F2DA
:101C300001FB1200303087494872854800880A212C
:101C400090FBF1F201FB12003030824988727D482E
:101C500000783C2190FBF1F00A2190FBF1F030304C
:101C60007D490871774800783C2190FBF1F00A210A
:101C700090FBF1F201FB1200303077494871734854
:101C80000088642190FBF1F03030734908736F488D
:101C900000880A2190FBF1F090FBF1F201FB1200A9
:101CA00030306D494873694800880A2190FBF1F291
:101CB00001FB1200303068498873802001F0C7FAB8
:101CC0004FF0000A08E0634911F80A0001F012FB26
:101CD0000AF1010000F0FF0ABAF1100FF3DBC02097
:101CE00001F0B5FA4FF0000A08E05B4911F80A006C
:101CF00001F000FB0AF1010000F0FF0ABAF1100F39
:101D0000F3DB012211034C48FEF745FD01221102CD
:101D10004948FEF740FD41F28830FEF7F8FB00220B
:101D20004FF480714448FEF736FD4C494C48FFF7AC
:101D300030FA00241CE0B4F5FA6F14DA0120FEF743
:101D4000E6FB4FF480513C48FEF707FD48B93220CE
:101D5000FEF7DDFB4FF480513748FEF7FEFC00B97B
:101D600007E0641C04E03D493E48FFF712FA00E03A
:101D7000E1E700BF00BF00224FF400612F48FEF7EB
:101D80000AFD012291022D48FEF705FD4FF47A70FD
:101D9000FEF7BDFB4FF47A70FEF7B9FB00224FF45B
:101DA00000612648FEF7F7FC00224FF480612348CB
:101DB000FEF7F1FC0122D1021F48FEF7ECFC0122E4
:101DC00011021D48FEF7E7FC6420FEF7A0FB00228D
:101DD0004FF480711848FEF7DEFC0FE04FF400610D
:101DE0001548FEF7BAFC48B93220FEF790FB4FF4D5
:101DF00000611148FEF7B1FC00B900E0EEE700BF5A
:101E00000122D1020D48FEF7C6FC00224FF480618A
:101E10000A48FEF7C0FC4FF47A70FEF778FB4FF4E7
:101E20007A70FEF774FB00224FF400610348FEF75E
:101E3000B2FC002218E0000000080140000C014044
:101E4000450100205301002000004E4048010020C1
:101E50003E0100200801002019010020A1000020FF
:101E60004E000020720000204FF48061FD48FEF714
:101E700092FC40F2DC50FEF74AFB36E5FA48007867
:101E8000062870D1F84840780928FAD1F6488078B9
:101E9000A828F6D1F448C078AC28F2D1F3480078ED
:101EA00000287DD10120F14908700020F049087018
:101EB000F0A2012101F0A1FA00220221E948FEF777
:101EC0006AFC01221146E748FEF765FC4FF47A7080
:101ED000FEF71DFB00220221E248FEF75CFC002217
:101EE0000121E048FEF757FC00224FF40061DD4875
:101EF000FEF751FC01229102DA48FEF74CFC4FF448
:101F00007A70FEF704FB00224FF40061D548FEF71B
:101F100042FC00224FF48061D248FEF73CFC0122D3
:101F2000D102D948FEF737FC01221102D648FEF74C
:101F300032FC6420FEF7EBFA00224FF48071D248A5
:101F4000FEF729FC10E04FF40061CF48FEF705FCD6
:101F500050B93220FEF7DBFA4FF40061CA48FEF7B1
:101F6000FCFB08B901E07AE2EDE700BF0122D102F3
:101F7000BC48FEF710FC00224FF48061B948FEF720
:101F80000AFC4FF47A70FEF7C2FA00224FF40061A7
:101F9000B448FEF700FC00224FF48061B14800E035
:101FA0002DE0FEF7F8FB01220221AE48FEF7F3FB1D
:101FB00000220121AB48FEF7EEFB4FF47A70FEF7EA
:101FC000A6FA0FE04FF48041A648FEF7C6FB48B9D9
:101FD0003220FEF79CFA4FF48041A248FEF7BDFB89
:101FE00000B900E0EEE700BF002202219D48FEF7A5
:101FF000D2FB002201219B48FEF7CDFB75E49B48F4
:1020000000780128FAD10020984908709848007893
:1020100004F017FD064600229C4B04F08DFB04469D
:1020200000224FF0804304F01FFD804604F0DCFCEA
:1020300097490880974800880988884272DD95484A
:10204000008893490988401A924908800846008808
:10205000642190FBF1F030308F4908728D48008880
:102060000A2190FBF1F090FBF1F201FB12003030FD
:1020700089494872874800880A2190FBF1F201FBE8
:102080001200303084498872794800783C2190FBF6
:10209000F1F00A2190FBF1F030308049087174486A
:1020A00000783C2190FBF1F00A2190FBF1F201FB5A
:1020B000120030307949487175480088642190FBDE
:1020C000F1F0303075490873714800880A2190FB9F
:1020D000F1F090FBF1F201FB120030306F494873D0
:1020E0006B4800880A2190FBF1F201FB12003030AE
:1020F0006A498873802001F0AAF84FF0000A08E0CE
:10210000654911F80A0001F0F5F80AF1010000F044
:10211000FF0ABAF1100FF3DBC02001F098F84FF07E
:10212000000A09E00CE05D4911F80A0001F0E2F84C
:102130000AF1010000F0FF0ABAF1100FF3DBD3E05F
:1021400054480088642190FBF1F030305249087205
:10215000504800880A2190FBF1F090FBF1F201FB5E
:10216000120030304C4948724A4800880A2190FBDE
:10217000F1F201FB12003030474988723C48007888
:102180003C2190FBF1F00A2190FBF1F03030434903
:102190000871374800783C2190FBF1F00A2190FB50
:1021A000F1F201FB120030303C4948713848008898
:1021B000642190FBF1F030303849087334480088CE
:1021C0000A2190FBF1F090FBF1F201FB120030309C
:1021D000324948732E4800880A2190FBF1F201FB36
:1021E000120030302D498873802001F030F84FF014
:1021F000000A08E0284911F80A0001F07BF80AF10A
:10220000010000F0FF0ABAF1100FF3DBC02001F06B
:102210001EF84FF0000A08E0204911F80A0001F00A
:1022200069F80AF1010000F0FF0ABAF1100FF3DBC0
:10223000012211031448FEF7AEFA19491948FEF7B6
:10224000A8FF012211021048FEF7A5FA41F28830DA
:10225000FEF75DF900224FF480710B48FEF79BFA00
:1022600000243EE0000C01402C000020460100202C
:1022700054010020496E206C617965722032206E15
:102280006F2E2031000000000008014000004E4089
:102290004801002040010020080100201901002011
:1022A000B80000205A000020B4F5FA6F14DA0120BB
:1022B000FEF72DF94FF48051F748FEF74EFA48B972
:1022C0003220FEF724F94FF48051F348FEF745FA27
:1022D00000B907E0641C04E0F049F148FEF759FF3B
:1022E00000E0E1E700BF00BF00220221ED48FEF759
:1022F00052FA01221146EB48FEF74DFA4FF47A707C
:10230000FEF705F900220221E648FEF744FA002212
:102310000121E448FEF73FFA01221102DE48FEF7F0
:102320003AFA6420FEF7F3F800224FF48071DA489D
:10233000FEF731FA00224FF40061DA48FEF72BFA7B
:1023400001229102D748FEF726FA4FF47A70FEF781
:10235000DEF800224FF40061D248FEF71CFA00229A
:102360004FF48061CF48FEF716FA0122D102CA4825
:10237000FEF711FA01221102C748FEF70CFA642099
:10238000FEF7C5F800224FF48071C348FEF703FA48
:102390000FE04FF40061C048FEF7DFF948B9322082
:1023A000FEF7B5F84FF40061BB48FEF7D6F900B967
:1023B00000E0EEE700BF0122D102BA48FEF7EBF9D8
:1023C00000224FF48061B748FEF7E5F94FF47A70C8
:1023D000FEF79DF800224FF40061B248FEF7DBF9EA
:1023E00000224FF48061AF48FEF7D5F901221102B7
:1023F000A948FEF7D0F96420FEF789F800224FF4CF
:102400008071A548FEF7C7F901220221A548FEF711
:10241000C2F900220121A348FEF7BDF94FF47A70FA
:10242000FEF775F8002202219E48FEF7B4F900225B
:1024300001219C48FEF7AFF9012211029648FEF7F0
:10244000AAF96420FEF763F800224FF480719248E5
:10245000FEF7A1F940F2DC50FEF759F8BFE39248CD
:102460000078B6287ED190484078CF28FAD18E489F
:102470008078AA28F6D18C48C078AC28F2D18B4855
:10248000007800286FD10120884908700020884911
:10249000087088A2012100F0B0FF002202218148CB
:1024A000FEF779F9012211467E48FEF774F94FF4E0
:1024B0007A70FEF72CF8002202217A48FEF76BF9B9
:1024C000002201217748FEF766F9012211027248C5
:1024D000FEF761F96420FEF71AF800224FF48071CC
:1024E0006D48FEF758F900224FF400616D48FEF781
:1024F00052F9012291026B48FEF74DF94FF47A70C0
:10250000FEF705F8012211026348FEF744F9642042
:10251000FDF7FDFF00224FF480715F48FEF73BF9A5
:102520004FF47A70FDF7F3FF012211025A48FEF7CB
:1025300032F96420FDF7EBFF00224FF4807156481A
:10254000FEF729F900224FF400615648FEF723F9FF
:1025500000224FF480615348FEF71DF90122D10299
:102560004D4801E01AE3AFE0FEF715F90122110230
:102570004948FEF710F96420FDF7C9FF00224FF427
:1025800080714548FEF707F90FE04FF400614248BB
:10259000FEF7E3F848B93220FDF7B9FF4FF40061C8
:1025A0003D48FEF7DAF800B900E0EEE700BF01228F
:1025B000D1023C48FEF7EFF800224FF48061394821
:1025C000FEF7E9F84FF47A70FDF7A1FF012211023E
:1025D0003148FEF7E0F86420FDF799FF00224FF440
:1025E00080712D48FEF7D7F84FF47A70FDF78FFF12
:1025F000012211022848FEF7CEF86420FDF787FF7C
:1026000000224FF480712448FEF7C5F800224FF4F1
:1026100000612448FEF7BFF800224FF48061214892
:10262000FEF7B9F8012202211E48FEF7B4F8002295
:1026300001211C48FEF7AFF84FF47A70FDF767FFF1
:10264000012211021448FEF7A6F86420FDF75FFF8F
:1026500000224FF480711048FEF79DF80FE04FF410
:1026600000411048FEF779F848B93220FDF74FFFD6
:102670004FF400410B48FEF770F800B900E0EEE7B8
:1026800000BF002202210748FEF785F80022012141
:102690000448FEF780F8A2E200080140B8000020DC
:1026A00072000020000C01402C0000204701002097
:1026B00055010020496E206C617965722032206ED0
:1026C0006F2E203200000000FE4800780128E2D181
:1026D0000020FC490870FC48007804F0B2F9064676
:1026E0000022FA4B04F028F8044600224FF0804301
:1026F00004F0BAF9804604F077F9F5490880F54806
:1027000000880988884272DDF2480088F04909880B
:10271000401AF049088008460088642190FBF1F0D7
:102720003030ED490872EB4800880A2190FBF1F047
:1027300090FBF1F201FB12003030E7494872E548A6
:1027400000880A2190FBF1F201FB12003030E249CF
:102750008872DD4800783C2190FBF1F00A2190FB63
:10276000F1F03030DD490871D74800783C2190FB0A
:10277000F1F00A2190FBF1F201FB12003030D74951
:102780004871D3480088642190FBF1F03030D34980
:102790000873CF4800880A2190FBF1F090FBF1F21A
:1027A00001FB12003030CD494873C94800880A2126
:1027B00090FBF1F201FB12003030C8498873802091
:1027C00000F045FD4FF0000A08E0C34911F80A0087
:1027D00000F090FD0AF1010000F0FF0ABAF1100FBD
:1027E000F3DBC02000F033FD4FF0000A09E00CE0FD
:1027F000BA4911F80A0000F07DFD0AF1010000F06D
:10280000FF0ABAF1100FF3DBB8E0B2480088642188
:1028100090FBF1F03030B0490872AE4800880A21D0
:1028200090FBF1F090FBF1F201FB12003030AA496D
:102830004872A84800880A2190FBF1F201FB1200BF
:102840003030A5498872A04800783C2190FBF1F017
:102850000A2190FBF1F03030A04908719A480078C5
:102860003C2190FBF1F00A2190FBF1F201FB1200F8
:1028700030309A49487196480088642190FBF1F005
:10288000303096490873924800880A2190FBF1F095
:1028900090FBF1F201FB12003030904948738C48F4
:1028A00000880A2190FBF1F201FB120030308B49C5
:1028B0008873802000F0CBFC4FF0000A08E08649C6
:1028C00011F80A0000F016FD0AF1010000F0FF0AFD
:1028D000BAF1100FF3DBC02000F0B9FC4FF0000A92
:1028E00008E07E4911F80A0000F004FD0AF1010039
:1028F00000F0FF0ABAF1100FF3DB01221103784850
:10290000FDF749FF77497848FEF743FC0A20FDF7B9
:10291000FEFD012211027248FDF73DFF41F28830B1
:10292000FDF7F5FD00224FF480716D48FDF733FF90
:10293000002420E0B4F5FA6F14DA0120FDF7E7FD7A
:102940004FF480516648FDF708FF48B93220FDF783
:10295000DEFD4FF480516248FDF7FFFE00B90BE049
:10296000641C04E05F496148FEF713FC04E0214663
:102970005FA002F048F9DDE700BF00BF002202219E
:102980005E48FDF708FF012211465C48FDF703FF92
:102990004FF47A70FDF7BBFD012211025048FDF79C
:1029A000FAFE6420FDF7B3FD00224FF480714C481D
:1029B000FDF7F1FE002202215048FDF7ECFE002257
:1029C00001214E48FDF7E7FE6420FDF7A0FD00223F
:1029D0004FF400614948FDF7DEFE012291024748AD
:1029E000FDF7D9FE4FF47A70FDF791FD0122110237
:1029F0003B48FDF7D0FE6420FDF789FD00224FF42F
:102A000080713748FDF7C7FE4FF47A70FDF77FFD00
:102A1000012211023248FDF7BEFE6420FDF777FD6A
:102A200000224FF480712E48FDF7B5FE00224FF4CE
:102A300000613248FDF7AFFE00224FF480612F485D
:102A4000FDF7A9FE0122D1022548FDF7A4FE0122CF
:102A500011022348FDF79FFE6420FDF758FD002278
:102A60004FF480711E48FDF796FE0FE04FF40061B1
:102A70001B48FDF772FE48B93220FDF748FD4FF4C0
:102A800000611748FDF769FE00B900E0EEE700BFFE
:102A90000122D1021948FDF77EFE00224FF4806129
:102AA0001648FDF778FE4FF47A70FDF730FD0122ED
:102AB00011020B48FDF76FFE6420FDF728FD002290
:102AC0001EE00000470100205501002000004E409C
:102AD00048010020420100200801002019010020C7
:102AE00000080140CF000020660000207200002096
:102AF00074696D65203D2025640A0000000C0140CA
:102B00004FF48071FD48FDF746FE4FF47A70FDF7F3
:102B1000FEFC01221102F948FDF73DFE6420FDF79D
:102B2000F6FC00224FF48071F448FDF734FE0022D9
:102B30004FF40061F248FDF72EFE00224FF4806151
:102B4000EF48FDF728FE01220221ED48FDF723FEA4
:102B500000220121EA48FDF71EFE4FF47A70FDF7CE
:102B6000D6FC01221102E548FDF715FE6420FDF7B1
:102B7000CEFC00224FF48071E048FDF70CFE0022ED
:102B80000221DF48FDF707FE00220121DC48FDF7A6
:102B900002FE40F2DC50FDF7BAFC20E0C02000F05D
:102BA00056FB4FF0000A08E0D64911F80A0000F081
:102BB000A1FB0AF1010000F0FF0ABAF1100FF3DBEC
:102BC00001221102CD48FDF7E6FD40F6B830FDF7D1
:102BD0009EFC00224FF48071C848FDF7DCFDFEF733
:102BE000BBFAFEF76ABB10B5C748007808281AD2AE
:102BF000DFE800F0041A2F455B7289A00122D102A0
:102C0000BF48FDF7C8FD00224FF48061BC48FDF7C6
:102C1000C2FD00220221BA48FDF7BDFD00220121BC
:102C2000B748FDF7B8FD9BE00122D102B448FDF79B
:102C3000B2FD01229102B248FDF7ADFD0022022152
:102C4000AF48FDF7A8FD00220121AD48FDF7A3FD27
:102C500086E000224FF40061A948FDF79CFD0122A7
:102C60009102A748FDF797FD00220221A448FDF735
:102C700092FD00220121A248FDF78DFD70E00022A7
:102C80004FF400619E48FDF786FD012291029C48A9
:102C9000FDF781FD012202219948FDF77CFD00220C
:102CA00001219748FDF777FD5AE000224FF40061BB
:102CB0009348FDF770FD00224FF480619048FDF7C6
:102CC0006AFD012202218E48FDF765FD00220121E7
:102CD0008B48FDF760FD43E000224FF40061884817
:102CE000FDF759FD00224FF480618548FDF753FD43
:102CF000012202218248FDF74EFD01221146804843
:102D0000FDF749FD2CE000224FF400617C48FDF7FF
:102D100042FD00224FF480617948FDF73CFD00221E
:102D200002217748FDF737FD012211467448FDF76F
:102D300032FD15E00122D1027148FDF72CFD002281
:102D40004FF480616E48FDF726FD002202216C4899
:102D5000FDF721FD012211466948FDF71CFD00BF6A
:102D600000BF0120FDF7D3FB00224FF4006164484F
:102D7000FDF711FD00224FF480616148FDF70BFD66
:102D8000002202215E48FDF706FD002201215C4879
:102D9000FDF701FD5C480078401C5B49087008465F
:102DA0000078072801DD0020087010BD10B55648D6
:102DB000007808281BD2DFE800F0041B32495F7559
:102DC0008AA900224FF400614D48FDF7E4FC00227F
:102DD0004FF480614A48FDF7DEFC0022022148489A
:102DE000FDF7D9FC012211464548FDF7D4FCA3E0CC
:102DF00000224FF400614248FDF7CDFC00224FF461
:102E000080613F48FDF7C7FC012202213C48FDF7E5
:102E1000C2FC012211463A48FDF7BDFC8CE00022BD
:102E20004FF400613648FDF7B6FC00224FF4806194
:102E30003348FDF7B0FC012202213148FDF7ABFC1D
:102E4000002201212E48FDF7A6FC75E000224FF478
:102E500000612B48FDF79FFC012291022848FDF7F5
:102E60009AFC012202212648FDF795FC002201214F
:102E70002348FDF790FC5FE000224FF400612048FA
:102E8000FDF789FC012291021D48FDF784FC002218
:102E900002211B48FDF77FFC002201211848FDF7A5
:102EA0007AFC49E00122D1021548FDF774FC0122A9
:102EB00091021348FDF76FFC002202211048FDF734
:102EC0006AFC002201210E48FDF765FC34E0012276
:102ED000D1020B48FDF75FFC00224FF480610848E7
:102EE000FDF759FC002202210548FDF754FC0022A1
:102EF00001210348FDF74FFC1EE0000000080140DF
:102F0000000C01402A0100203B0100200122D102D7
:102F10009348FDF740FC00224FF480619048FDF794
:102F20003AFC002202218E48FDF735FC01221146B1
:102F30008B48FDF730FC00BF00BF0120FDF7E7FA2A
:102F400000224FF400618648FDF725FC00224FF473
:102F500080618348FDF71FFC002202218048FDF7B5
:102F60001AFC002201217E48FDF715FC7D480078FF
:102F7000401C7C49087008460078072801DD0020C5
:102F8000087010BD7848806940F004007649886177
:102F9000764800686FF313007449086072488069CE
:102FA00040F40070704988610846C06840F40070C1
:102FB000C8600846C06820F40070C86008464068D1
:102FC00020F4404048600846406840F400404860B3
:102FD0006748006867490840654908600846006816
:102FE00008600846006820F480700860081D0068CA
:102FF00020F00200091D08600846006820F46020E7
:1030000008600846006840F46020086008460068D0
:1030100040F4801008600846006820F400600860F2
:1030200053482830006820F4700051492831086066
:1030300008460068002008604D480C3000686FF3B7
:103040000F004B490C3108600846006840F4E0402E
:1030500008600846006840F4606008600846006840
:1030600040F4E07008600846006840F038000860EE
:103070000846006840F0070008603D48001D0068F1
:1030800040F001003A49091D08600846006840F018
:103090000800086000BF3648001D006800F0080006
:1030A0000028F8D13248001D006840F00400304983
:1030B000091D086000BF2E48001D006800F00400D4
:1030C0000028F8D17047014629483030006820F0C8
:1030D0001F00274A30321060104600680843106015
:1030E0002348001D006840F48000214A121D106032
:1030F00000BF1F48001F006800F002000028F8D041
:103100001B484830006880B2704770B505460C46D1
:103110000020194908604FF48061184801F04FFE03
:10312000294617A001F06FFD08E06420FDF7EFF9D4
:1031300015A1124801F012FE00B103E0201EA4F117
:103140000104F2D100BF002C04DC10A001F05BFDF3
:10315000012070BD0FA001F056FD0020F9E700002E
:10316000000C01403B01002000100240000801401B
:1031700004240140FFFFF0005C01002068010020F2
:1031800025730D0A000000004F4B00006661696C5A
:103190000D0A00004F4B0D0A0000000008B510207A
:1031A0008DF8030003208DF80200FF20ADF8000029
:1031B00069469F48FDF73EFA4FF46040ADF80000C5
:1031C00069469C48FDF736FA08BD07E0192101E081
:1031D0004A1ED1B20029FBDC421E90B20028F5DC69
:1031E000704708B548208DF8030003208DF80200D1
:1031F0000120ADF8000069468D48FDF71BFA00225A
:103200004FF400518B48FDF7C6FA0122910389481B
:10321000FDF7C1FA0122D1038648FDF7BCFA01206F
:10322000FFF7D3FF00BF01218148FDF796FA002880
:10323000F9D110208DF8030003208DF80200012041
:10324000ADF8000069467A48FDF7F4F908BD70B59D
:10325000044600260025FFF7C4FF00BF0BE04FF631
:10326000FF7000EA450504F0010008B145F00105D2
:103270006410701CC6B2082EF1DBECB221466C481B
:10328000FDF78EFA00224FF400416A48FDF783FAF9
:103290000A20FFF79AFF00224FF400516548FDF71E
:1032A0007AFA0A20FFF791FF00224FF4804161482B
:1032B000FDF771FA0A20FFF788FF0A20FFF785FF64
:1032C0000122D1035B48FDF766FA0A20FFF77DFF74
:1032D00000224FF400415748FDF75DFA0A20FFF73E
:1032E00074FF012291035348FDF755FA0A20FFF7B6
:1032F0006CFF70BD70B5044600260025FFF771FF16
:1033000000BF0BE04FF6FF7000EA450504F0010036
:1033100008B145F001056410701CC6B2082EF1DB3F
:10332000ECB221464248FDF73BFA00224FF400413F
:103330004048FDF730FA0A20FFF747FF012251030A
:103340003C48FDF728FA0A20FFF73FFF00224FF420
:1033500080413848FDF71FFA0A20FFF736FF0A20A0
:10336000FFF733FF0122D1033248FDF714FA0A2098
:10337000FFF72BFF00224FF400412E48FDF70BFA18
:103380000A20FFF722FF012291032A48FDF703FAE2
:103390000A20FFF71AFF70BD10B5FFF7FFFE0120EE
:1033A000FFF755FF6420FFF710FF3820FFF74FFFAE
:1033B0006420FFF70AFF3820FFF749FF6420FFF77A
:1033C00004FF0C20FFF743FF6420FFF7FEFE10BD53
:1033D00070B505460C4616461CB905F18000C4B20E
:1033E00004E0012C02D105F1C000C4B22046FFF771
:1033F0002EFF3046FFF77EFF70BD70B506460C46C7
:1034000015461CB906F18000C4B204E0012C02D1BB
:1034100006F1C000C4B22046FFF719FF03E0287888
:10342000FFF768FF6D1C28780028F8D170BD0000F8
:1034300000080140001001407FB505460C460121FF
:103440000220FDF7C0FBADF80850ADF804400020A5
:10345000ADF80A00ADF8060001A9284800F030F9DF
:1034600001221146254800F0A2FC1D208DF8000025
:1034700000208DF8010003208DF8020001208DF856
:1034800003006846FDF7FFFD01211C4800F074FCB5
:103490007FBD10B50121194800F037FF68B3012145
:1034A000164800F043FF164801780078401C144A83
:1034B0001070142921DB0020114608701148007893
:1034C000401C10490870084600783C2801D10020B3
:1034D00008700D480078401C0B4908700B480078B4
:1034E000401C0A4908700A480078401C08490870C6
:1034F00008480078401C0749087010BD00040040CF
:1035000056010020500100205201002053010020EC
:10351000540100205501002010B50446FE488442A5
:1035200008D10121C014FDF75BFB0021E014FDF779
:1035300057FBC4E0B4F1804F08D101210846FDF7E4
:103540005CFB00210120FDF758FBB8E0F348844202
:1035500008D101210220FDF750FB00210220FDF7D8
:103560004CFBACE0EE48844208D101210420FDF779
:1035700044FB00210420FDF740FBA0E0E948844221
:1035800008D101210820FDF738FB00210820FDF7B4
:1035900034FB94E0E448844208D101211020FDF777
:1035A0002CFB00211020FDF728FB88E0DF48844237
:1035B00008D101212020FDF720FB00212020FDF76C
:1035C0001CFB7CE0DA48844208D101214014FDF75D
:1035D00007FB00216014FDF703FB70E0D54884422F
:1035E00009D10121C804FDF7FBFA00214FF40020A6
:1035F000FDF7F6FA63E0D048844209D101210805BD
:10360000FDF7EEFA00214FF48010FDF7E9FA56E0DD
:10361000CA48844209D101214805FDF7E1FA002199
:103620004FF40010FDF7DCFA49E0C548844208D1A8
:1036300001214020FDF7E1FA00214020FDF7DDFAED
:103640003DE0C048844208D101218020FDF7D5FA31
:1036500000218020FDF7D1FA31E0BB48844208D137
:1036600001218015FDF7C9FA0021A015FDF7C5FA63
:1036700025E0B648844209D101210804FDF7B0FADB
:1036800000214FF48030FDF7ABFA18E0B0488442D7
:1036900009D101214804FDF7A3FA00214FF40030BD
:1036A000FDF79EFA0BE0AB48844208D10121880463
:1036B000FDF796FA00214FF48020FDF791FA10BD36
:1036C00000220288944B98420ED0994B98420BD01E
:1036D000B0F1804F08D0914B984205D0904B984262
:1036E00002D0904B984204D14FF68F731A404B880A
:1036F0001A438D4B984207D08C4B984204D04FF61A
:10370000FF431A40CB881A4302808B8883850B883D
:103710000385814B98420BD0854B984208D08B4B48
:10372000984205D08A4B984202D08A4B984201D1E8
:103730000B7A038601238382704770B50024002230
:103740000023058C4FF6FE7635400584028C838875
:10375000048B4FF68F752C40B51E2C400D882C43E2
:10376000751E2A400D892A434D882A436A4DA84276
:103770000BD06F4DA84208D0744DA84205D0744DAF
:10378000A84202D0734DA84213D14FF6F7752A40D4
:103790004D892A434FF6FB752A408D882A434FF600
:1037A000FF652B404FF6FF552B408D892B43CD896C
:1037B0002B4383800483CD888586028470BD70B5D9
:1037C000002400220023058C4FF6EF763540058457
:1037D000028C8388048B48F6FF752C404FF6FF451A
:1037E0002C400D884FF6FF7606EA05252C434FF650
:1037F000DF752A400D8906EA05152A434D8806EA39
:1038000005152A43444DA84202D0494DA8421DD176
:103810004FF67F752A404D894FF6FF7606EA05156B
:103820002A434FF6BF752A408D8806EA05152A43BC
:103830004FF6FF352B404FF2FF752B408D8906EA7E
:1038400085052B43CD8906EA85052B4383800483B8
:10385000CD880587028470BD70B500240022002346
:10386000058C4FF6FF6635400584028C8388848B77
:103870004FF68F752C404FF6FC752C400D882C436D
:103880004FF6FF552A400D894FF6FF7606EA0525CB
:103890002A434D8806EA05252A431F4DA84202D037
:1038A000234DA8421DD14FF2FF752A404D894FF696
:1038B000FF7606EA05252A434FF6FF352A408D8814
:1038C00006EA05252A434EF6FF752B404DF6FF7597
:1038D0002B408D8906EA05152B43CD8906EA05158F
:1038E0002B4383808483CD888587028470BD70B527
:1038F000002200230024058C4EF6FF763540058417
:10390000038C8488828B48F6FF752A404FF6FF456A
:103910002A400D8820E00000002C014000040040F7
:1039200000080040000C004000100040001400405F
:1039300000340140004C014000500140005401405F
:1039400000180040001C00400020004000400140E2
:1039500000440140004801404FF6FF7606EA052585
:103960002A434DF6FF752B400D8906EA05352B439A
:103970004D8806EA05352B43FA4DA84202D0FA4D90
:10398000A84208D14BF6FF752C408D894FF6FF7683
:1039900006EA85152C4384808283CD88A0F84050A8
:1039A000038470BD828B4FF2FF331A408283828B77
:1039B0004FF6FF7303EA01231A4382837047F0B581
:1039C0000C461546002200210026078C4EF6FF7C8F
:1039D00007EA0C070784828B018C4FF6FF7707EA12
:1039E000043640F6FF473A404FF6FF7707EA0527CF
:1039F0003A434FF6FF7707EA03373A43D94FB842C5
:103A00000ED0D94FB8420BD0B0F1804F08D0D74F6D
:103A1000B84205D0D64FB84202D0D64FB84206D1F0
:103A20004DF6FF77394046F48057394305E047F6B5
:103A3000FF57394044F48057394382830184F0BDF5
:103A4000828B4FF6F3731A408283828B0A43828300
:103A50007047F0B50C461546002200210026078C61
:103A60004FF6FF6C07EA0C070784828B018C4FF638
:103A7000FF7707EA04264FF60C773A404FF6FF77B8
:103A800007EA03172F433A43B64FB8420ED0B64F5A
:103A9000B8420BD0B0F1804F08D0B44FB84205D037
:103AA000B34FB84202D0B34FB84206D14FF6FF57DA
:103AB000394046F48077394305E04FF2FF573940EB
:103AC00044F48077394382830184F0BD028B4FF246
:103AD000FF331A400283028B4FF6FF7303EA012380
:103AE0001A4302837047F0B50C46154600220021A8
:103AF0000026078C4FF6EF7C07EA0C070784028B41
:103B0000018C4FF6FF7707EA041640F6FF473A406C
:103B10004FF6FF7707EA03373A434FF6FF7707EA96
:103B200005273A438F4FB8420ED08F4FB8420BD083
:103B3000B0F1804F08D08D4FB84205D08C4FB842BD
:103B400002D08C4FB84206D14FF6DF77394046F0AD
:103B50001007394305E04FF65F77394044F010070E
:103B6000394302830184F0BD028B4FF6F3731A4090
:103B70000283028B0A4302837047F0B50C46154658
:103B800000220021068C4FF6FE773E400684028B11
:103B9000018C4FF60C7632407E1C06EA03162E434B
:103BA0003243704EB0420ED06F4EB0420BD0B0F1E7
:103BB000804F08D06D4EB04205D06D4EB04202D05D
:103BC0006C4EB04206D14FF6FD76314044F001060E
:103BD000314305E04FF6F576314044F001063143BC
:103BE00002830184F0BD70B505460C465D488542F0
:103BF0000ED05D4885420BD0B5F1804F08D05B48B0
:103C0000854205D05A48854202D05A48854200D1A3
:103C100000E000BF208850B92389A2886188284627
:103C2000FFF7ABFFE1882846FFF79EFF25E02088DD
:103C300004280AD12389A28861882846FFF753FF08
:103C4000E1882846FFF742FF17E0208808280AD1BC
:103C50002389A28861882846FFF7FBFEE188284671
:103C6000FFF7EEFE09E02389A28861882846FFF766
:103C7000A6FEE1882846FFF795FE70BD2DE9F041CC
:103C800005460C4600260127608808B9022600E098
:103C90000026A088012801D1022700E00127208802
:103CA000A0B92389A28861882846FFF766FFE188CA
:103CB0002846FFF759FF23893A4631462846FFF741
:103CC00012FFE1882846FFF701FF13E02389A2884D
:103CD00061882846FFF707FFE1882846FFF7F6FED0
:103CE00023893A4631462846FFF747FFE1882846B0
:103CF000FFF73AFFBDE8F0810A884B881A438B88AA
:103D00001A43CB881A430B891A434B891A438B8970
:103D10001A43A0F8442070474FF6FF7181800021BC
:103D20000180C18041800172704700210180418083
:103D30008180C180018141818181C18170470021E1
:103D400001804180012181800021C1800181704773
:103D50000021018041808180C18001814181818178
:103D600070470000002C0140003401400004004076
:103D700000080040000C004021B1028842F001021E
:103D8000028004E002884FF6FE731A4002807047FA
:103D900031B1B0F8442042F40042A0F8442005E0DC
:103DA000B0F84420C2F30E02A0F8442070471AB1C4
:103DB00083890B43838102E083898B43838170472E
:103DC0008182704741EA0203A0F8483070471AB177
:103DD00083890B43838102E083898B43838170470E
:103DE00001894FF6F8721140018170470A4600219F
:103DF00001894FF68F73194011430181704730B527
:103E000004460D4629462046FFF7F0FF208940F082
:103E10000700208130BD2DE9F04104460D461646CD
:103E20001F46602D06D13B46012231462046FFF752
:103E30005AFE05E03B46012231462046FFF79DFE33
:103E400029462046FFF7D2FF208940F00700208155
:103E5000BDE8F08130B50C4600210189C9B24FF6AA
:103E6000FF7505EA0325154325432943018130BD2C
:103E70002DE9F04105460E46174698460024434674
:103E80003A4631462846FFF7E5FF2C894FF6F87091
:103E9000044044F007044FF68F70044044F070046F
:103EA0002C81BDE8F081F0B504460D4616461F464C
:103EB0003B46324629462046FFF7CCFF208940F496
:103EC00080402081F0BD0185828270470A46002132
:103ED00001884FF68F731940114301807047F0B588
:103EE0000C4615461E460021002200230189028B44
:103EF000038C4FF6F877394021434FF6FC473A40A0
:103F000040F201173A434FF6DD773B404FF6FF771B
:103F100007EA06172F433B43018102830384F0BD68
:103F20000A460021018B4FF68F731940114301831C
:103F300070470A460021018B48F6FF7319404FF67F
:103F4000FF7303EA02231943018370470A460021E5
:103F5000818B4FF68F7319401143818370470A4656
:103F60000021818B48F6FF7319404FF6FF7303EA77
:103F7000022319438183704721B1028842F08002F5
:103F8000028004E002884FF67F731A400280704777
:103F900021B1828842F00402828004E082884FF6D8
:103FA000FB731A408280704721B1828842F0080278
:103FB000828004E082884FF6F7731A40828070474F
:103FC00021B1828842F00102828004E082884FF6AB
:103FD000FE731A40828070470A460021018B4FF61B
:103FE000F77319401143018370470A460021018B82
:103FF0004FF2FF7319404FF6FF7303EA0223194390
:10400000018370470A460021818B4FF6F7731940F0
:104010001143818370470A460021818B4FF2FF7361
:1040200019404FF6FF7303EA022319438183704757
:104030000A460021018B4FF6FB731940114301839F
:1040400070470A460021018B4FF6FF3319404FF6A7
:10405000FF7303EA02231943018370470A460021D4
:10406000818B4FF6FB7319401143818370470A46D9
:104070000021818B4FF6FF3319404FF6FF7303EA9F
:1040800002231943818370470A460021018B4FF6B2
:104090007F7319401143018370470A460021018B49
:1040A000C1F30E014FF6FF7303EA022319430183A4
:1040B00070470A460021818B4FF67F7319401143E8
:1040C000818370470A460021818BC1F30E014FF6B0
:1040D000FF7303EA02231943818370470A460021D4
:1040E000018C4FF6FD7319401143018470470A4655
:1040F0000021018C4FF6F77319401143018470477A
:104100000A460021018C4FF6DF7319404FF6FF730A
:1041100003EA02131943018470470A460021018C07
:104120004FF67F7319404FF6FF7303EA02131943EA
:10413000018470470A460021018C4FF6FF53194055
:104140004FF6FF7303EA02231943018470470A46BE
:104150000021018C4FF2FF7319404FF6FF7303EA01
:1041600002231943018470470A460021018C4DF651
:10417000FF7319404FF6FF7303EA023319430184BA
:10418000704730B5002301248C40A3B2048C9C43BB
:104190000484048C02FA01F5ADB22C43048430BDD2
:1041A00030B5002304248C40A3B2048C9C430484C7
:1041B000048C02FA01F5ADB22C43048430BD70B515
:1041C0000346002000241846183001258D40ACB26B
:1041D0001D8CA5431D8409B1082909D100EB61009C
:1041E000056825F0700505600568154305600EE05B
:1041F0000D1FC5F34E052844056825F4E04505600C
:1042000005684FF6FF7606EA02263543056070BD65
:1042100021B1028842F00202028004E002884FF6D7
:10422000FD731A400280704721B1028842F00402F7
:10423000028004E002884FF6FB731A400280704748
:1042400021B1828842F08002828004E082884FF6A9
:104250007F731A408280704702884FF6F7731A40C6
:10426000028002880A430280704782884FF68F736B
:104270001A40828082880A438280704702894FF602
:10428000F8731A40028102890A4302817047028949
:104290004FF67F731A40028102890A4302817047F8
:1042A0008184704781857047818670470187704798
:1042B00081877047A0F84010704702884FF6FF438F
:1042C0001A40028002880A43028070470146888EA5
:1042D00070470146088F70470146888F7047014636
:1042E000B1F8400070470146888C70470146088D40
:1042F000704702460020138A0B400BB1012000E0FA
:1043000000207047CA430282704730B50246002041
:1043100000230024158A05EA0103958905EA0104B2
:1043200013B10CB1012000E0002030BDCA4302826D
:104330007047000008B510208DF8030003208DF8A9
:1043400002004FF46870ADF800006946F848FCF7C9
:1043500071F948208DF8030003208DF802004020F9
:10436000ADF800006946F248FCF764F908BD2DE994
:10437000F04107460D4600224FF48071EC48FCF7EF
:104380000AFA0820FCF79FF8EA480078012805D1CE
:1043900000224102E648FCF7FEF90AE0E548007811
:1043A000022805D100220102E148FCF7F4F900E0FF
:1043B00000BF0820FCF787F87E2000EA47060824A3
:1043C00026E006F08000802805D101228021D8480F
:1043D000FCF7E1F904E000228021D548FCF7DBF985
:1043E0000820FCF770F801221102D148FCF7D3F93C
:1043F0000820FCF768F87006060E00224FF4807162
:10440000CB48FCF7C8F90820FCF75DF8601EC4B281
:10441000002CD6DC082426E005F08000802805D199
:1044200001228021C248FCF7B6F904E00022802175
:10443000BF48FCF7B0F90820FCF745F8012211024B
:10444000BB48FCF7A8F90820FCF73DF86806050E04
:1044500000224FF48071B648FCF79DF90820FCF764
:1044600032F8601EC4B2002CD6DCB24800780128B5
:1044700005D101224102AE48FCF78DF90AE0AD48B2
:104480000078022805D101220102A948FCF783F92E
:1044900000E000BF0820FCF716F801221102A44832
:1044A000FCF779F90820FCF70EF8BDE8F0812DE95A
:1044B000F0410746002600224FF480719C48FCF72B
:1044C0006AF90820FBF7FFFF9A480078012805D118
:1044D000002241029648FCF75EF90AE09548007810
:1044E000022805D1002201029148FCF754F900E0AE
:1044F00000BF0820FBF7E7FF7E2000EA470040F0FE
:104500008005082426E005F08000802805D10122DE
:1045100080218748FCF73FF904E00022802184488D
:10452000FCF739F90820FBF7CEFF01221102804881
:10453000FCF731F90820FBF7C6FF6806050E0022DC
:104540004FF480717A48FCF726F90820FBF7BBFF8F
:10455000601EC4B2002CD6DC08241CE0012211022B
:104560007348FCF718F90820FBF7ADFF7006060E3C
:1045700040216F48FCF7F1F806430820FBF7A3FF42
:1045800000224FF480716A48FCF705F90820FBF718
:104590009AFF601EC4B2002CE0DC66480078012857
:1045A00005D1012241026248FCF7F5F80AE06148B2
:1045B0000078022805D1012201025D48FCF7EBF8E2
:1045C00000E000BF0820FBF77EFF012211025848DF
:1045D000FCF7E1F80820FBF776FF3046BDE8F081F4
:1045E00070B505460C4600262846FFF760FF0646D4
:1045F00046EA04012846FFF7BAFE70BD70B50546CD
:104600000C4600262846FFF752FF064626EA04011C
:104610002846FFF7ACFE70BD2DE9FE4F06468846E2
:1046200091469A46DDF830B0FE20029000200190BD
:1046300000900C2E06D00E2E09D1122001901020D1
:10464000009005E0772001903020009000E000BF4E
:1046500000BF019840F080010220FFF788FE802112
:104660000420FFF7CBFF00210120FFF780FE80210F
:104670000A20FFF7B5FF002505E018F8051009200E
:10468000FFF775FE6D1C4D45F7D331460120FFF74E
:104690006EFE0C2E03D180210D20FFF7A1FF4FF4F9
:1046A000167500BF0420FFF702FF04466D1E35B1EA
:1046B00004F0010018B9009820400028F2D08021B1
:1046C0000D20FFF79BFF95B30620FFF7F0FE00F0EB
:1046D0001B0088BB002002900198204000F00100E0
:1046E00008B1FF2002900C2E29D10A20FFF7DFFE2F
:1046F00004460C20FFF7DBFE00F007072FB1601E19
:1047000007EBC000CBF8000002E0E000CBF80000AF
:1047100004B90124122C00DD1224002505E0092033
:10472000FFF7C5FE0AF805006D1CA542F7D306E0A9
:10473000000C014057010020FFE7FE20029080217D
:104740000C20FFF74DFF00210120FFF710FE02981B
:10475000BDE8FE8F70B588B005460C4608210846B6
:10476000FFF74CFF07210D20FFF701FE0321142066
:10477000FFF736FF8DF8085007A802AB012202A907
:1047800000900C20FFF748FF06464EB90798102806
:1047900006D19DF8080020709DF80900607000E0C7
:1047A000FE26304608B070BDF0B587B0054600273C
:1047B00008210846FFF722FF00210D20FFF7D7FD53
:1047C00080210E20FFF71AFF93208DF8040020208F
:1047D0008DF8050006A801AB022201A900900C206B
:1047E000FFF71AFF064686B9002407E001A8005D1E
:1047F000285501A8005D4740601CC4B2042CF5DBBD
:1048000001A8005DB84200D0FE2680210E20FFF7EF
:10481000E7FE304607B0F0BD2DE9F0410746884677
:10482000154604210520FFF7E9FE00210120FFF7CE
:104830009EFD80210A20FFF7D3FE002405E0395DAC
:104840000920FFF794FD601CC4B24445F7DB032147
:104850000120FFF78CFDFF2400BF0520FFF727FE96
:104860000646601EC4B21CB106F004000028F4D055
:104870002220FFF71CFE28702120FFF718FE687029
:10488000BDE8F08110B588B050208DF808000020F8
:104890008DF809000DF10A02022102A8FFF7BCFF02
:1048A00007A802AB042202A900900C20FFF7B4FE77
:1048B0000446002008B010BD10B5FFF73BFD0122F3
:1048C00020213948FBF767FF0520FBF720FE002277
:1048D00020213548FBF75FFF0520FBF718FE01227A
:1048E00020213148FBF757FF0520FBF710FE0F2171
:1048F0000120FFF73CFD0520FBF709FE3D211120BB
:10490000FFF735FD1E212D20FFF731FD00212C2062
:10491000FFF72DFD8D212A20FFF729FD3E212B20B9
:10492000FFF725FD40211520FFF721FD002010BDD8
:1049300010B51420FFF7BBFD044604F0030018B9BE
:1049400003211420FFF74CFE10BD10B503211420E5
:10495000FFF754FE10BD10B50446144804700078EB
:10496000012805D1012241020F48FBF714FF0AE09C
:104970000E480078022805D1012201020A48FBF7FF
:104980000AFF00E000BFFFF797FF0320FBF7BFFD22
:10499000FFF7DBFF0320FBF7BAFDFFF7C9FF03209A
:1049A000FBF7B5FD10BD0000000C014057010020D1
:1049B0001FB501210846FCF7F9F84FF48070ADF8F7
:1049C000000048208DF8030069461B48FBF732FEC3
:1049D0004FF4807000F0B7F808210020FBF740FF8B
:1049E0004FF48070029000208DF80C000C208DF8A0
:1049F0000D0001208DF80E0002A800F02DF84FF4F4
:104A0000A060FCF73BFB17208DF8040002208DF816
:104A100005008DF8060001208DF8070001A8FCF7BD
:104A200032FB1FBD10B54FF4807000F08CF83220BF
:104A3000FBF76DFD10BD0000000801400020444957
:104A40000860091D0860091D0860091D08604148CB
:104A50003F4914310860704700213D498279002A9E
:104A60003AD00A46126803689A430B461A600A1D38
:104A7000126803689A430B1D1A60027911440A6890
:104A800003681A430A60324A0832126803689A437C
:104A90002F4B08331A601A1D126803689A432C4B77
:104AA0000C331A604279102A0ED11A1F126803685B
:104AB0001A43274B08331A601A1D126803681A43F9
:104AC000234B0C331A600DE02149427911440A68E6
:104AD00003681A430A6005E0027911440A68036812
:104AE0009A430A6070470021016001710C214171F5
:104AF0000021817170471649103109680143144A39
:104B000010321160704701460020114A14321268B9
:104B10000A400AB1012000E0002070470C4914311E
:104B200008607047014600200022094B1B6803EA19
:104B30000102074B14331B680B4013B10AB101206B
:104B400000E00020704702491431086070470000FF
:104B500000040140FFFF0F0010B586B004464FF47B
:104B6000A060FCF78BFA01218803FCF71FF80121F4
:104B70000420FCF71BF84FF40070ADF8140003207C
:104B80008DF8160018208DF8170005A96348FBF76B
:104B900051FD4FF48060ADF8140004208DF817002B
:104BA00005A95E48FBF746FD01940020ADF808001A
:104BB000ADF80A00ADF80C00ADF810000C20ADF80F
:104BC0000E0001A95648FCF798F820215448FCF73C
:104BD00008FA012240F225515148FCF726F9252018
:104BE0008DF8000000208DF801008DF802000120F2
:104BF0008DF803006846FCF746FA01214848FCF7A7
:104C000008F906B010BD0FB438B505A800904548A6
:104C1000009A049900F090F800200090414800F0BC
:104C2000AFF8054600BF3E48008800F0400000286D
:104C3000F9D000240CE03B48005D3949091D08808B
:104C400000BF3748008800F040000028F9D0641CFD
:104C5000AC42F0D338BC5DF814FB00BF304A128878
:104C600002F04002002AF9D001210CE04A1C825CCB
:104C70002B4B1B1D1A8000BF294A128802F04002EC
:104C8000002AF9D0491C4378027803EB02228A42B9
:104C9000ECDA704710B540F225512148FCF7AAF92B
:104CA00068B31F48FCF726F9C4B21F480088B0F566
:104CB000806F1CDA1C4801880088401C1A4A10804A
:104CC0001A4844541A480068401C194908600A2CC4
:104CD00001D00D2C12D100201449134A1288885497
:104CE00001201449087000200F49088006E00020C8
:104CF0000D4908800E4908600E49087000BF082160
:104D00000748FCF761F9012806D108210448FCF79F
:104D100068F90348FCF7EEF810BD000000080140F8
:104D20000038014068050020600100206801002073
:104D30005C010020580100201CB50C46064B7B444A
:104D400069460090204600F016F9044600206946A6
:104D500000F024F920461CBD5B02000030B505467A
:104D60000B462A4613F8014B12F8010B08B1A0427A
:104D7000F8D01CB1002802D06D1CF1E7284630BDE8
:104D800010B5431C02E010F8011B71B18107FAD184
:104D90004FF0013202C88C1A8C4314EAC211F9D0C8
:104DA000C01A0A0603D0C01E10BDC01A10BD0A04E6
:104DB00001D0801E10BD0902FCD0401E10BD4FF076
:104DC00000020429C0F0128010F0030C00F0D08221
:104DD000CCF1040CBCF1020F18BF00F8012BA8BFE6
:104DE00020F8022BA1EB0C0100F0C2BA5FEAC17CF3
:104DF00024BF00F8012B00F8012B48BF00F8012B5D
:104E0000704770477047704770B504468569006801
:104E1000C10601D5302600E02026C00707D070BDAE
:104E2000D4E9012130469047206A401C20626D1E63
:104E3000F6D570BD70B5044685690078C00707D106
:104E400070BDD4E9012120209047206A401C2062D7
:104E50006D1EF6D570BD09684A0501D540B2704790
:104E6000C905FCD500B2704709684A0501D5C0B232
:104E70007047C905FCD580B2704770B50C46054631
:104E8000012A05D02878800600D5EA69002302E0CF
:104E9000012305E05B1C934202D2E05C0028F9D1BB
:104EA000A869E618C01AA861286A1844286228462A
:104EB000FFF7AAFF04E0D5E9012114F8010B9047A0
:104EC000B442F8D32846FFF7B5FF70BD2DE9F04195
:104ED0000646002410687529314616A510D0FFF744
:104EE000BAFF002802DA404213A507E031688A07BA
:104EF00001D512A502E0490704D511A5012401E05E
:104F0000FFF7B2FF00210A2206F1240709E0B0FBF7
:104F1000F2FCB0FBF2F302FB1C0030307854184670
:104F2000491C0028F3D123462A463046BDE8F0410B
:104F300000F088BA000000002D0000002B000000E7
:104F40002000000011680268006A530501D508704E
:104F50000AE0D30501D5088006E0130603D5C21781
:104F6000C1E9000200E008600120704701694A1CA5
:104F700002610878704700B58FB0CDE9013100219A
:104F8000059105497944CDE903101146684600F0C2
:104F900029F90FB000BD0000E5FFFFFF0A6802F825
:104FA000010B0A60704700002DE9FF5F15468A4635
:104FB0000446DFF8AC80F8440027D8E900103E46EC
:104FC000CDE9001010E03AF816106A4602A800F089
:104FD0004BFE411C07D02178890603D5E2693918B8
:104FE00091420DD80744761C2078800602D5E069EE
:104FF000B84205DDAE42E6DB3AF816000028E2D101
:10500000A069C01BA0612046FFF7FEFED8E9001092
:10501000CDE90010002017E03AF818106A4602A8FF
:1050200000F022FEB0F1FF3F81460BD000250DF1CC
:10503000080B05E0D4E901211BF8050090476D1C21
:105040004D45F7D308F10100B0428046E4DB206A09
:10505000384420622046FFF7EDFEBDE8FF9F0000C8
:10506000B21C00002DE9F0418046D21D22F007025B
:105070000025D2E90002F52915A614D0011E72F10F
:10508000000106DA0023D0EB030063EB020211A655
:1050900008E0D8F800108B0701D50FA602E04907F9
:1050A00001D50EA601251146002408F1240704E0CD
:1050B00000F083F930323A55641C50EA0102F7D10E
:1050C0002B46324621464046BDE8F04100F0BAB9D1
:1050D000000000002D0000002B0000002000000058
:1050E00030B4002100F1240408E002F00705D208E2
:1050F000303542EA4372DB086554491C52EA030525
:10510000F3D10468002310A2250707D5A40600D414
:1051100021B1C46901230DA2641EC46130BC00F03A
:1051200091B910B5044621461068FFF79DFE02466E
:105130002046BDE810400023D2E7D21D22F007012F
:10514000D1E90023CCE7000000000000300000009F
:10515000F0B40D460188090502D5214C7C4402E0DB
:105160001F4C7C440E34002100F1240608E002F0BC
:105170000F071209E75D42EA03721B097754491CC5
:1051800052EA0307F3D102780023120704D5702DE9
:1051900006D009B1022311342246F0BC00F052B906
:1051A00001231034F8E770B504460D462146106817
:1051B000FFF75AFE024629462046BDE8704000230C
:1051C000C6E7D21D22F00703D3E90023C0E7036836
:1051D000126843F0200303600823C3610023B7E78C
:1051E000141B00002DE9F05F894604464FF0000AC9
:1051F000DFF874B1FB44C0F820A02046E16888477E
:10520000002874D0252806D0D4E901219047206ACF
:10521000401C2062F1E700265F462046E16888478F
:105220002028054607DB312D05D2781910F8200C0F
:1052300008B10643F1E7B00701D526F00406C4F82B
:105240001CA00027C4F818A02A2D09D0284601F078
:1052500040FA38B304EB8708303DC8F8185019E01D
:1052600059F8041B204604EB87029161E1688847E6
:10527000012F054618D1E069002820DA26F0200623
:105280001DE0D8F8180000EB800005EB4000303836
:10529000C8F818002046E1688847054601F019FA69
:1052A0000028EED1012F0AD02E2D08D12046E1682A
:1052B00088477F1C0546022F46F02006C4DBA06904
:1052C000002803DA404246F00106A061F00701D051
:1052D00026F010066C2D0BD0682D09D04C2D39D03E
:1052E0006A2D35D0742D35D07A2D33D016E038E0C4
:1052F000E1682F4620468847B842054609D16C2F01
:1053000026D04FF48060E168064320468847054672
:1053100004E06C2F1AD04FF4807006430DB3A5F152
:105320004100192802D8203546F400664A4629462D
:10533000204626604E46FAF733FF80B101280BD095
:10534000F61D26F0070000F1080956E74020E4E7C3
:105350008020D8E70020D6E706F104094DE728466B
:1053600052E7206ABDE8F09FA41A00004FF0000247
:1053700000B5134694469646203922BFA0E80C504B
:10538000A0E80C50B1F12001BFF4F7AF090728BF26
:10539000A0E80C5048BF0CC05DF804EB890028BFA2
:1053A00040F8042B08BF704748BF20F8022B11F0CB
:1053B000804F18BF00F8012B704730B5B0F10A02DA
:1053C0004FEA900E71F100034EEA817EB0EB0E00C1
:1053D00061EB91014FEA101E4EEA017E10EB0E00C8
:1053E00041EB11114FEA102E4EEA016E10EB0E0048
:1053F00041EB11214FEA104E4EEA014E10EB0E0028
:1054000041EB1141401841F100014FEAD00040EA60
:1054100041704FEAD10110EB80054FEA810444EA64
:10542000907444EB01046D1944EB0404521BA34136
:105430004FF0000348BF0A3200D530BD401C41F197
:10544000000130BD2DE9F0470D46994692460446CD
:1054500000F124080168880604D5E06921F01001F4
:10546000216000E00120A84201DD471B00E0002789
:10547000A1697A1902EB0900081AA0612078C00618
:1054800002D42046FFF7C0FC002608E0D4E9012141
:105490001AF806009047206A401C761C20624E4590
:1054A000F4DB2078C0060AD52046FFF7ADFC06E005
:1054B000D4E9012130209047206A401C2062381E28
:1054C000A7F10107F4DC07E0D4E9012118F8050091
:1054D0009047206A401C2062281EA5F10105F3DCDC
:1054E0002046FFF7A7FC2078000602D50220BDE881
:1054F000F0870120FBE770472DE9FF4F0C461E4661
:105500004FF0FF378BB0D2E90001DDF860800A90E0
:105510008A46C1F30A5505B93D46002108464FF0B9
:105520000000BAF1000F00F4400005DA00EB800043
:105530004FF4400101EA50004FEA9059B9F1010FD0
:1055400000DDB9460A9850EA4A000ED044F61050E1
:10555000A5F2FF3545432F14B8F1000F1ED0754258
:10556000291E1EDDC9F100021CE0B8F1010F4FF049
:10557000000001D0302103E0F24305E02154401C3B
:10558000B042FBDB30460022002121540B99C1F8C8
:105590000880C1E900200FB0BDE8F08FBD1B6D1C75
:1055A000DEE74A4600DA694206A800F0EFFB06ABE8
:1055B00093E8070003AB83E8070050460A9900F020
:1055C000ACFC8DE80700A0F500501F380090039850
:1055D000002D0ADD42F21F014A460844002303A9B8
:1055E0000390684600F015FF09E0A0F500504A4618
:1055F0001F38002303A90390684600F01FFF8DE8C1
:1056000007000004000C03D04FF0FF30410800E019
:105610001046B8F1000F03D00022009215461EE09C
:10562000751E05D4FFF7C9FE303262556D1EF9D5DF
:10563000B3460122084302D000227F1C04E02078F8
:10564000302801D100227F1E002A099784D01DE056
:10565000112D07DAFFF7B1FE303262556D1C50EAAA
:105660000102F5D1084302D00098C8B10EE0002134
:10567000681E05E0235C625C63542254401E491C92
:105680008142F7DBAB46A81B401E0990002004F8BE
:105690000B000B98099AC0F80880C0E9002B7AE744
:1056A00011264FF0000857E72DE9F04F88460446D1
:1056B000D21D22F0070191B0D1E90001CDE90A0124
:1056C00000F0F3FF02460B98C00F01D02D2007E039
:1056D0002068810701D52B2002E0202101EAC000CB
:1056E000032A099001D0072A05DB034641462046DC
:1056F00000F00CFB0BE12078800601D5E06900E0AA
:105700000620B8F1650F814606D0B8F1660F18D0B3
:10571000B8F1670F70D131E00020B9F1110F00909E
:1057200001DB112301E009F101030AAA01A90CA878
:10573000FFF7E2FEDDE90C70002609F10105834662
:1057400047E001204B4600904FF000470AAA01A90C
:105750000CA8FFF7D1FEDDE90DB00C995D460026DF
:1057600010B909F101000D18B9EB050003D4C0F11F
:10577000FF3609F10105A5EB09002BE0B9F1010F96
:1057800001DA4FF001090020B9F1110F00904846ED
:1057900001DD112300E003460AAA01A90CA8FFF7C6
:1057A000ABFEDDE90C704D460026834620780007ED
:1057B0000AD4AB4500DA5D4601A8012D04DD41198C
:1057C00011F8011C302907D04F4502DA17F1040FF8
:1057D00004DA012082460FE06D1EEEE7002F02DCA6
:1057E000ED1B3E4403E0781CA84200DD7D1CB81B85
:1057F00000F1010A4FF000472078000703D4AA45C2
:1058000001DB4FF0FF3A0021B7F1004F0DF14308E3
:105810008DF8431024D002202B23002F01DA7F4281
:105820002D230A21021EA0F1010000DC5FB197FBCD
:10583000F1FC97FBF1F201FB1C7C17460CF1300CDC
:1058400008F801CDEEE7A8F10100037021880905F1
:1058500001D5452100E06521A0F1010800F8011CF7
:1058600009980FA9A1EB0807FF1D00B101204119FC
:1058700001EBEA70A1693844081A401EA061207843
:10588000C00602D42046FFF7BFFA099828B1D4E930
:1058900001219047206A401C20622078C00622D552
:1058A0002046FFF7B1FA1EE0002E04DBB34502DD0F
:1058B00001A8805D00E03020D4E901219047206AF2
:1058C000401C2062761CAAF101005FEA000A0AD19E
:1058D00000F018FAC0680168405CD4E901219047E3
:1058E000206A401C2062281EA5F10105DCDC07E0CF
:1058F000D4E9012118F8010B9047206A401C20626E
:10590000381EA7F10107F3DC2046FFF793FA0320C6
:1059100011B041E62DE9F04F04460D46D21D22F0AC
:10592000070089B0D0E900974846394600F0BDFE2F
:105930000246F80F01D02D2307E02068810701D52A
:105940002B2302E0202101EAC0038DF820300BB1A7
:10595000012000E00020032A824601D0072A04DB50
:105960002946204600F0D2F93FE12078800601D494
:105970000D2500E0E569C7F30A560D2D49DA00212F
:105980004FEA175B08464FF00000002F00F440007C
:1059900007DA00EB80004FF4400100EBD07001EA21
:1059A00060008115012901DD4FF0FF3100224FEA2F
:1059B000850CBCF1180F06D31346ACF118004FF05C
:1059C0008052C24003E04FF4801323FA0CF30CF131
:1059D0000C0CBCF1200F04D3ACF1200C09FA0CF034
:1059E00001E007FA0CF000294FF0004801DD18B97A
:1059F0000FE00ED140450CD319EB02095F4121B9EC
:105A0000404502D19F4329EA0209BBEB175F00D052
:105A1000761C2088000502D57B48784402E07A484D
:105A20007844193808AA302302F80A30037C0AF1B6
:105A30000101002E0AF1020A53546A4602DC4FF0BB
:105A4000300101E04FF031014FF001088DF80010F6
:105A500002D0A6F2FF3603E059EA470100D06B4EB0
:105A6000002D02DC2178090704D54FF002082E2111
:105A70008DF80110C44600210BE0C7F303433F013A
:105A8000C35C491C6D1E02F80830052908F10108A5
:105A900001DA002DF1DC00210CE000EB1973491C48
:105AA0001B786D1E082902F808304FEA091908F121
:105AB000010801DA002DF0DC21688B0602D516E022
:105AC000A8F10108E04505DD02EB080313F8013CED
:105AD000302BF5D0B8F1000F09DD02EB080313F805
