:020000040800F2
:10000000B00F0020550400085D0400085F040008DC
:100010006104000863040008650400080000000093
:10002000000000000000000000000000670400085D
:1000300069040008000000006B0400086D0400085B
:100040006F0400086F0400086F0400086F040008C4
:100050006F0400086F0400086F0400086F040008B4
:100060006F0400086F0400086F0400086F040008A4
:100070006F0400086F0400086F0400086F04000894
:100080006F0400086F0400086F0400086F04000884
:100090006F0400086F0400086F040008D5440008CE
:1000A0006F0400086F0400086F0400086F04000864
:1000B0006F040008EB2E00086F0400086F040008AE
:1000C0006F0400086F0400086F0400086F04000844
:1000D0006F040008454700086F0400086F0400081B
:1000E0006F0400086F0400086F04000800F002F8B5
:1000F00000F0B0F80AA090E8000C82448344AAF112
:100100000107DA4501D100F0A5F8AFF2090EBAE80F
:100110000F0013F0010F18BFFB1A43F0010318473B
:1001200050670000706700000A444FF0000C10F8A0
:10013000013B13F0070408BF10F8014B1D1108BF65
:1001400010F8015B641E05D010F8016B641E01F805
:10015000016BF9D113F0080F1EBF10F8014BAD1C55
:100160000C1B09D16D1E58BF01F801CBFAD505E073
:1001700014F8016B01F8016B6D1EF9D59142D6D3CD
:10018000704700000023002400250026103A28BFF5
:1001900078C1FBD8520728BF30C148BF0B607047F9
:1001A0006E2904F05384702904F09585662906F0C1
:1001B000DD82652906F0DA82672906F0D782612997
:1001C00006F0D68203681B0A28BF41F08001692926
:1001D00004F00084642904F0FD83752904F0FA8397
:1001E0006F2904F02285782904F06185E92904F05B
:1001F000BD84E42904F0BA84F52904F0B784EF291A
:1002000004F01F85F82904F060850368DB0928BF26
:1002100041F08001632905F08982732905F08E82FF
:10022000E32905F09982F32905F09E8200207047AA
:100230001FB505F0EBFA04000020002105F0EAFFED
:10024000401C60600020002105F0CEFFE0601FBD73
:1002500010B510BD05F0ACFA1146FFF7E9FF01F04B
:100260000AF805F089FB03B4FFF7F2FF03BC05F0C1
:10027000D1FB00000CB50020019000906C48006894
:1002800040F480306A49086000BF6948006800F4A3
:10029000003000900198401C0190009818B9019816
:1002A000B0F5A06FF1D16248006800F4003010B1E1
:1002B0000120009001E0002000900098012843D127
:1002C0005C48006840F010005A4908600846006821
:1002D00020F0030008600846006840F00200086053
:1002E000534840685249486008464068486008469C
:1002F000406840F4806048600846406820F47C1004
:1003000048600846406840F4E810486008460068C5
:1003100040F08070086000BF4548006800F0007041
:100320000028F9D04248406820F003004049486066
:100330000846406840F00200486000BF3C48406802
:1003400000F00C000828F9D10CBD10B5FFF792FFA2
:1003500010BD10B53648006840F00100344908600F
:1003600008464068344908403149486008460068FA
:10037000324908402E4908600846006820F4802071
:1003800008600846406820F4FE0048604FF41F00F3
:100390008860FFF7DAFF4FF000602949086010BD60
:1003A00010B5002100200022214B5B6803F00C01F6
:1003B00021B1042906D0082928D107E0214B224C7D
:1003C000236027E01F4B204C236023E0184B5B6821
:1003D00003F47010164B5B6803F48032022303EBC6
:1003E000904022B9194B4343174C23600DE0104B4A
:1003F0005B6803F4003323B1144B4343124C236076
:1004000003E0104B4343104C236003E00D4B0E4CB4
:10041000236000BF00BF064B5B68C3F303130C4CA3
:10042000E15C094B1B68CB40074C236010BD00000A
:1004300000100240002002400000FFF8FFFFF6FE1F
:1004400008ED00E000127A000000002000093D00E5
:10045000040000200948804709480047FEE7FEE7FE
:10046000FEE7FEE7FEE7FEE7FEE7FEE7FEE7FEE764
:1004700004480549054A064B70470000530300082D
:10048000ED000008B0090020B00F0020B00B0020E4
:10049000B00B002010B56FF0040000F03EFE2E48B7
:1004A00000682E49B0FBF1F02D490870084600782D
:1004B00000EB4001C1EBC0104FF6FF7101EAC00034
:1004C0002849088010BD0146254A12784A434FF05A
:1004D000E0235A6100229A611A46126942F0010231
:1004E0001A6100BF4FF0E022106900F001021AB15A
:1004F00000F48032002AF5D04FF0E022126922F099
:1005000001024FF0E0231A6100229A617047014610
:10051000144A12884A434FF0E0235A6100229A613C
:100520001A46126942F001021A6100BF4FF0E02240
:10053000106900F001021AB100F48032002AF5D0EF
:100540004FF0E022126922F001024FF0E0231A611D
:1005500000229A61704700000000002000127A001B
:10056000140000201600002010B54FF4A06000F029
:1005700085FD10BD10B50446CC48844208D1012148
:10058000042000F02DFB0021042000F029FB46E0B0
:10059000C748844208D10121082000F021FB002136
:1005A000082000F01DFB3AE0C248844208D1012136
:1005B000102000F015FB0021102000F011FB2EE0B0
:1005C000BD48844208D10121202000F009FB002110
:1005D000202000F005FB22E0B848844208D1012128
:1005E000402000F0FDFA0021402000F0F9FA16E06A
:1005F000B348844208D10121802000F0F1FA0021A3
:10060000802000F0EDFA0AE0AE48844207D10121D3
:10061000801500F0E5FA0021A01500F0E1FA10BD08
:1006200010B50121084600F0DBFA0021012000F09E
:10063000D7FA10BD2DE9F041024600250026002022
:1006400000230024002791F803C00CF00F0591F857
:1006500003C00CF0100CBCF1000F03D091F802C0E5
:100660004CEA050591F800C0BCF1000F31D01468C8
:1006700000202BE04FF0010C0CFA00F3B1F800C0A1
:100680000CEA03069E4220D183004FF00F0C0CFAB7
:1006900003F7BC4305FA03FC4CEA040491F803C0D9
:1006A000BCF1280F06D14FF0010C0CFA00FCC2F887
:1006B00014C00AE091F803C0BCF1480F05D14FF017
:1006C000010C0CFA00FCC2F810C0401C0828D1D361
:1006D0001460B1F800C0BCF1FF0F34DD5468002095
:1006E0002EE000F1080C4FF0010808FA0CF3B1F805
:1006F00000C00CEA03069E4221D183004FF00F0C8C
:100700000CFA03F7BC4305FA03FC4CEA040491F825
:1007100003C0BCF1280F05D100F1080C08FA0CF851
:10072000C2F8148091F803C0BCF1480F07D100F162
:10073000080C4FF0010808FA0CF8C2F81080401CB1
:100740000828CED35460BDE8F0814FF6FF710180D8
:10075000022181700421C170704702460020936815
:100760000B400BB1012000E0002070470146886873
:1007700080B2704702460020D3680B400BB10120C5
:1007800000E0002070470146C86880B270470161F0
:100790007047416170470AB1016100E041617047F3
:1007A000C16070474FF480320A4382618161826187
:1007B00082698269704702460020434B18684FF6F1
:1007C0008073184040EA021008433F4B186070479E
:1007D0003E49C8617047F0B50A4600230024002155
:1007E000002500F00046B6F1004F02D1364EF16907
:1007F00001E0354E7168C0F3034583B200F4401642
:10080000B6F5401F08D121F070612F4E766826F0B2
:1008100070662D4F7E6012E000F48016B6F5801FE2
:1008200006D1032606FA05F4A14341F0706106E003
:10083000460D360103FA06F6B14341F0706122B16C
:10084000460D360103FA06F6314300F00046B6F1D4
:10085000004F02D11C4EF16101E01B4E7160F0BDF2
:1008600030B500228B071C0F0F2303FA04F2164B3E
:1008700008338C1053F824309343134C08348D10F4
:1008800044F8253023468C1053F824308C07240F6D
:1008900000FA04F423430C4C08348D1044F825303E
:1008A00030BD0A49DC310860704700000008014093
:1008B000000C0140001001400014014000180140EC
:1008C000001C0140002001400000014000002042C7
:1008D000DF48006840F00100DD49086008464068D4
:1008E000DC490840DA49486008460068DA490840AF
:1008F000D74908600846006820F480200860084650
:10090000406820F4FE0048604FF41F008860704784
:10091000CF49096821F48031CD4A11601146096838
:1009200021F480211160B0F5803F03D0B0F5802F15
:100930000ED106E0C649096841F48031C44A11600D
:1009400007E0C349096841F4A021C14A116000E0F1
:1009500000BF00BF704710B50146002200230020F1
:100960004A11012A02D1BA4C236806E0022A02D1B8
:10097000B74C236A01E0B64C636A01F01F02012400
:1009800094401C400CB1012000E0002010BD38B59F
:10099000002000900024002500BF3120FFF7DBFF7E
:1009A00005460098401C00900098B0F5A06F01D05B
:1009B000002DF2D03120FFF7CEFF08B1012400E076
:1009C0000024204638BD01460020A14A106820F0CE
:1009D000F80040EAC10010607047A0490860704705
:1009E000024600209A4B586820F47C1042EA01032A
:1009F0001843974B586070479849086670470146FE
:100A00000020934A506820F003000843506070476C
:100A10008F48406800F00C007047014600208C4A67
:100A2000506820F0F00008435060704701460020F5
:100A3000874A506820F4E0600843506070470146E0
:100A40000020834A506820F4605040EAC1005060A2
:100A5000704729B17E4A527A02437D4B5A7204E0B4
:100A60007B4A527A82437A4B5A7270477B49D8311B
:100A70000860704701460020754A506820F44040E5
:100A80000843506070470021714A20321170704A4B
:100A900082F82010012802D004280AD104E00121A4
:100AA0006B4A2032117005E00521694A203211702D
:100AB00000E000BF00BF70476949086070476449A3
:100AC000096A0143624A1162704765494439086006
:100AD000704730B500210022002400235C4D6D6872
:100AE00005F00C0121B1042905D0082923D105E026
:100AF0005C4D056022E05B4D05601FE0544D6D6864
:100B000005F47012524D6D6805F48034022505EB32
:100B100092421CB9544D554305600BE04C4D6D6835
:100B200005F400351DB1504D5543056002E04D4DB3
:100B30005543056002E04B4D056000BF00BF444DCA
:100B40006D6805F0F0010909484D6B5C0568DD40F2
:100B500045603F4D6D6805F4E061090A434D6B5CEB
:100B60004568DD4085603A4D6D6805F46051C90AFD
:100B70003E4D6B5C4568DD40C560354D6D6805F4E4
:100B80004041890B3A4D6B5CC568B5FBF3F50561D7
:100B900030BD29B12E4A526902432D4B5A6104E0FF
:100BA0002B4A526982432A4B5A61704729B1284A1D
:100BB00092690243264B9A6104E0254A9269824376
:100BC000234B9A61704729B1214AD2690243204BD5
:100BD000DA6104E01E4AD26982431D4BDA61704734
:100BE00029B11B4AD2680243194BDA6004E0184A63
:100BF000D2688243164BDA60704729B1144A1269F1
:100C00000243134B1A6104E0114A12698243104BEC
:100C10001A61704712494039086070470F49C8642B
:100C200070470B49C87170470948406A40F08070AE
:100C300007494862704701460020054A92680A4009
:100C40000AB1012000E00020704701498872704716
:100C5000001002400000FFF8FFFFF6FE00004242D5
:100C60008004424200127A0000093D001800002072
:100C70002800002010B50446FB48844209D1012118
:100C80008803FFF7ADFF00214FF48040FFF7A8FF76
:100C900032E0F648844209D101214804FFF7ADFF54
:100CA00000214FF40030FFF7A8FF25E0F048844210
:100CB00009D101218804FFF7A0FF00214FF4802013
:100CC000FFF79BFF18E0EB48844209D10121C804DB
:100CD000FFF793FF00214FF40020FFF78EFF0BE09A
:100CE000E548844208D101210805FFF786FF00216D
:100CF0004FF48010FFF781FF10BD2DE9F04786B05B
:100D000005460E460024A24600BFA1460027B08932
:100D100000B100BF2F462C8A4CF6FF700440F088CB
:100D200004432C82AC894EF6F3100440B08831891C
:100D30000843718908430443AC81AC8A4FF6FF40F5
:100D40000440B0890443AC8201A8FFF7C2FEC64844
:100D5000874202D1DDF810A001E0DDF80CA0A889DF
:100D600000F4004040B10AEBCA0000EB0A10316801
:100D70004900B0FBF1F807E00AEBCA0000EB0A10EB
:100D800031688900B0FBF1F86420B8FBF0F0040191
:100D90002009642101FB1089A88900F4004040B1BA
:100DA000322000EBC900B0FBF1F000F00700044373
:100DB00008E0322000EB09106421B0FBF1F000F0F4
:100DC0000F0004432C8106B0BDE8F0874FF41651A4
:100DD000016000218180C18001810C2141810021BD
:100DE0008181704710B502460020108A4FF2FF0340
:100DF00018400B884C8823438C882343CC8823439A
:100E00001843108210BD0021018041808180C18083
:100E1000704721B1828942F40052828104E08289C4
:100E20004DF6FF731A4082817047F0B503460024E7
:100E300000260025002040F66A17B94200D100BF05
:100E40001846C1F3421401F01F06012707FA06F500
:100E5000012C01D10C3004E0022C01D1103000E053
:100E600014301AB107682F43076002E00768AF43E8
:100E70000760F0BD1AB1838A0B43838202E0838A44
:100E80008B4383827047028A4FF6F0731A400282C6
:100E9000028A0A430282704782894FF2FF731A4026
:100EA000828182890A438281704721B1828942F01E
:100EB0000202828104E082894FF6FD731A4082812A
:100EC0007047028A4FF6DF731A400282028A0A4391
:100ED0000282704721B1028A42F48042028204E019
:100EE000028A4BF6FF731A4002827047C1F3080270
:100EF0008280704701468888C0F308007047818966
:100F000041F0010181817047028BD2B20283028BD2
:100F100042EA012202837047028B02F47F4202837D
:100F2000028B0A430283704721B1828A42F0200279
:100F3000828204E0828A4FF6DF731A408282704711
:100F400021B1828A42F01002828204E0828A4FF646
:100F5000EF731A408282704721B1828A42F0080200
:100F6000828204E0828A4FF6F7731A4082827047C9
:100F700021B1828942F40042828103E08289C2F376
:100F80000E028281704721B1828A42F4006282821D
:100F900004E0828A4FF2FF731A4082827047828A8D
:100FA0004FF6FB731A408282828A0A43828270471C
:100FB00021B1828A42F00202828204E0828A4FF6E4
:100FC000FD731A408282704702460020B1F5007F0F
:100FD00000D100BF13880B400BB1012000E00020BE
:100FE000704701F40072B2F5007F00D100BFCA4320
:100FF0000280704770B502460024002300250020BF
:1010000040F66A16B14200D100BFC1F3421501F0AB
:101010001F03012606FA03F3012D02D196893340FE
:1010200006E0022D02D1168A334001E0968A334051
:101030000C12012606FA04F41688344013B10CB1E0
:10104000012000E0002070BD10B50022002340F612
:101050006A14A14200D100BF0A1201249440A3B235
:10106000DC43048010BD0000003801400044004013
:1010700000480040004C004000500040314901430E
:10108000314A1160704770B5002100230F22C478E7
:1010900004B32D4C246804F4E064C4F5E064210A30
:1010A000C1F10403CA40447804FA03F1847814407F
:1010B00021430901254C0678A155047804F01F0549
:1010C0000124AC4005786D11AD0005F1E025C5F8AF
:1010D000004109E0047804F01F050124AC401C4DD8
:1010E0000678761145F8264070BD1A4A0A40024338
:1010F000154B1B1F1A60704739B1134A121D126835
:101100000243114B1B1D1A6006E00F4A121D1268A4
:1011100082430D4B1B1D1A607047042808D14FF005
:10112000E021096941F004014FF0E022116107E07C
:101130004FF0E021096921F004014FF0E022116134
:10114000704700000000FA050CED00E000E400E04C
:1011500080E100E080FFFF1F10B50024802001F037
:10116000A2FD00BF05E0FE49085D01F0EFFD601C37
:10117000C4B2102CF7DBC02001F095FD002405E07F
:10118000F849085D01F0E2FD601CC4B2102CF7DBE9
:1011900010BD70B504460D46F3A003F08CFA322062
:1011A000FFF7B5F9F2A003F086FA4FF4C870FFF725
:1011B000AEF9F3A003F07FFA4FF4C870FFF7A7F978
:1011C0002146F2A003F077FA4FF4C870FFF79FF9B9
:1011D0002B46E44AE249F1A003F06DFA4FF4C870DF
:1011E000FFF795F91A20F049088000BFEE48001F6C
:1011F000008800F040000028F8D04FF4C870FFF7D6
:1012000086F970BD08B548208DF8030003208DF8DD
:1012100002004FF47040ADF800006946E348FFF764
:1012200009FA48208DF8030003208DF80200C0025F
:10123000ADF800006946DE48FFF7FCF910208DF894
:10124000030003208DF802004FF48070ADF8000019
:101250006946D748FFF7EEF910208DF80300032008
:101260008DF8020040F60340ADF800006946CF4813
:10127000FFF7E0F908BD88B000BF002401213C2041
:10128000FFF794FCFFF706F941F61F4140F2F31017
:1012900001F0FEFDFFF7B6FFFFF766F94FF41650B9
:1012A00003F0B2F901F0A4FD00224FF48071C048B0
:1012B000FFF771FA01F0B2B9BE4800780A2190FB3D
:1012C000F1F03030A6498873BA4800780A2190FBC3
:1012D000F1F201FB12003030A149C8736420FFF71E
:1012E00016F9012003F08FF8B349522002F08AFF6B
:1012F000B2490870B04802F0AFFFB0490870084624
:101300000078002841F0888101221102A848FFF7E7
:1013100042FA9620FFF7FBF800224FF48071A448B0
:10132000FFF739FA00241BE0A348005DA44901EB54
:101330002010017804EB4400C01C8A4A11549E48D6
:10134000005D00F00F009E49095C04EB4400001DA5
:101350001154202104EB4400401D1154601CC4B200
:10136000042CE1DBFFF7F8FE4FF000090422954959
:10137000914803F05DFA10B94FF0010919E0042219
:1013800091498D4803F054FA10B94FF0020910E06A
:1013900004228E49884803F04BFA10B94FF0030934
:1013A00007E004228A49844803F042FA08B94FF062
:1013B0000409B9F1000F41F3128100200690B9F140
:1013C000010F09D0B9F1020F0AD0B9F1030F0BD008
:1013D000B9F1040F10D10BE07E48007806900BE0C5
:1013E0007D480078069007E07C480078069003E08E
:1013F0007B480078069000BF00BF4FF000080698B9
:10140000B0B97848007810B94FF0010810E076487C
:10141000007810B94FF002080AE07448007810B95B
:101420004FF0030804E07248007808B94FF0040850
:10143000B9F1010F09D0B9F1020F0CD0B9F1030FC6
:101440000FD0B9F1040F18D111E06A4F6A4D6B4EFD
:10145000DFF8ACA111E06B4F6B4D6C4EDFF8B0A123
:101460000BE06C4F6C4D6D4EDFF8B4A105E06D4F95
:101470006D4D6E4EDFF8B8A100BF00BFB9F1010F8E
:1014800009D0B9F1020F0AD0B9F1030F0BD0B9F1AD
:10149000040F10D10BE04F4880F800800BE04E485D
:1014A00080F8008007E04D4880F8008003E04C4859
:1014B00080F8008000BF00BFB8F1000F03DC38786F
:1014C000012841F073803878002844D10120387019
:1014D00000203070B8F1010F09D0B8F1020F3BD0F5
:1014E000B8F1030F39D0B8F1040F37D1E7E251A2B8
:1014F0000121002001F0ADFC01203A4908700022D2
:10150000C1022A48FFF747F9012291022748FFF755
:1015100042F94FF47A70FEF7FAFF00224FF40061AF
:101520002248FFF738F900224FF480611F48FFF787
:1015300032F9012211021E48FFF72DF96420FEF74F
:10154000E6FF00224FF480711948FFF724F90122C9
:10155000D102174878E0CBE3DFE0ADE1AEE2000076
:10156000B6000020C7000020415445300D0A00009D
:1015700041542B435343533D2247534D220D0A0000
:1015800041542B434D47463D310D0A0041542B43F6
:101590004D47533D222573220D0A000025730D0A85
:1015A00025730D0A2573000004380140000C01402A
:1015B000000801403A0100202C00002041000020DA
:1015C0003000002042000020460000204A00002099
:1015D0004E0000202A0100202B0100202C010020B9
:1015E0002D010020260100202701002028010020D5
:1015F000290100202E0100201E0100203C010020B6
:10160000520000202F010020200100203D01002079
:101610005E00002030010020220100203E01002059
:101620006A00002031010020240100203F01002039
:1016300076000020496E206C617965722031206E41
:101640006F2E203100000000FFF7A5F80FE04FF4E7
:101650000061FE48FFF781F848B93220FEF757FFD6
:101660004FF40061F948FFF778F800B900E0EEE7C1
:1016700000BF0122D102F648FFF78DF800224FF497
:101680008061F348FFF787F84FF47A70FEF73FFF69
:1016900000224FF40061EE48FFF77DF800224FF47E
:1016A0008061EB48FFF777F801221102E748FFF766
:1016B00072F86420FEF72BFF00224FF48071E3489C
:1016C000FFF769F80122D102E148FFF764F8002230
:1016D0004FF48061DE48FFF75EF80FE04FF4805171
:1016E000DB48FFF73AF848B93220FEF710FF4FF415
:1016F0008051D748FFF731F800B900E0EEE700BFAE
:1017000000224FF40061D248FFF745F800224FF461
:101710008061CF48FFF73FF8E9E2CEA20121002027
:1017200001F097FB0120D04908700022C102C8488F
:10173000FFF731F801229102C548FFF72CF84FF46A
:101740007A70FEF7E4FE01221102C048FFF723F889
:101750006420FEF7DCFE00224FF48071BB48FFF7E7
:101760001AF84FF47A70FEF7D2FE01221102B74840
:10177000FFF711F86420FEF7CAFE00224FF48071D3
:10178000B248FFF708F800224FF40061B048FFF7B5
:1017900002F800224FF48061AD48FEF7FCFF012201
:1017A0001102AA48FEF7F7FF4FF47A70FEF7AFFE7A
:1017B00000224FF48071A548FEF7EDFF0122D1020F
:1017C000A248FEF7E8FF0FE04FF400619F48FEF7E4
:1017D000C4FF48B93220FEF79AFE4FF400619B48DF
:1017E000FEF7BBFF00B900E0EEE700BF0122D10227
:1017F0009748FEF7D0FF00224FF480619448FEF72F
:10180000CAFF4FF47A70FEF782FE012211028F4860
:10181000FEF7C1FF6420FEF77AFE00224FF48071CC
:101820008A48FEF7B8FF4FF47A70FEF770FE012287
:1018300011028648FEF7AFFF6420FEF768FE002223
:101840004FF480718148FEF7A6FF00224FF400613B
:101850007F48FEF7A0FF00224FF480617C48FEF72E
:101860009AFF0122D1027A48FEF795FF00224FF439
:1018700080617748FEF78FFF0FE04FF40051744806
:10188000FEF76BFF48B93220FEF741FE4FF40051DE
:101890006F48FEF762FF00B900E0EEE700BF0022EC
:1018A0004FF400616A48FEF776FF00224FF4806132
:1018B0006748FEF770FF1AE26CA20121002001F0D8
:1018C000C8FA01206E490870002202216048FEF724
:1018D00062FF012211465E48FEF75DFF4FF47A7009
:1018E000FEF715FE002202215948FEF754FF0022A0
:1018F00001215748FEF74FFF012211025348FEF71E
:101900004AFF6420FEF703FE00224FF480714F4827
:10191000FEF741FF00224FF400614D48FEF73BFF08
:10192000012291024A48FEF736FF4FF47A70FEF723
:10193000EEFD00224FF400614548FEF72CFF002227
:101940004FF480614248FEF726FF012211023F4812
:10195000FEF721FF6420FEF7DAFD00224FF48071CC
:101960003A48FEF718FF0122D1023848FEF713FF6C
:101970000FE04FF400613548FEF7EFFE48B9322022
:10198000FEF7C5FD4FF400613048FEF7E6FE00B9F2
:1019900000E0EEE700BF0122D1022D48FEF7FBFE7A
:1019A00000224FF480612A48FEF7F5FE4FF47A706A
:1019B000FEF7ADFD00224FF400612548FEF7EBFE77
:1019C00000224FF480612248FEF7E5FE0122110259
:1019D0001E48FEF7E0FE6420FEF799FD00224FF45A
:1019E00080711A48FEF7D7FE012202211848FEF73F
:1019F000D2FE002201211648FEF7CDFE4FF47A7088
:101A0000FEF785FD002202211148FEF7C4FE0022E8
:101A100001210F48FEF7BFFE012211020B48FEF71D
:101A2000BAFE6420FEF773FD00224FF48071074870
:101A3000FEF7B1FE002202210548FEF7ACFE0122AE
:101A400011460348FEF7A7FE2CE000000008014005
:101A5000000C0140496E206C617965722031206E66
:101A60006F2E20320000000027010020496E206CFC
:101A7000617965722032206E6F2E203100000000E7
:101A8000280100204FF48041FE48FEF766FE48B969
:101A90003220FEF73CFD4FF48041FA48FEF75DFE30
:101AA00000B900E0EEE700BF00220221F548FEF792
:101AB00072FE00220121F348FEF76DFE17E1F2A24B
:101AC0000121002001F0C5F90120F449087000222D
:101AD0000221EC48FEF75FFE01221146E948FEF7BD
:101AE0005AFE4FF47A70FEF712FD00220221E548FB
:101AF000FEF751FE00220121E248FEF74CFE0122D2
:101B00001102E748FEF747FE6420FEF700FD0022C1
:101B10004FF48071E248FEF73EFE00224FF4006170
:101B2000D848FEF738FE01229102D648FEF733FE70
:101B30004FF47A70FEF7EBFC01221102D848FEF751
:101B40002AFE6420FEF7E3FC00224FF48071D448A3
:101B5000FEF721FE4FF47A70FEF7D9FC0122110244
:101B6000CF48FEF718FE6420FEF7D1FC00224FF4A8
:101B70008071CB48FEF70FFE00224FF40061C14890
:101B8000FEF709FE00224FF48061BE48FEF703FE17
:101B900001221102C248FEF7FEFD6420FEF7B7FCE9
:101BA00000224FF48071BE48FEF7F5FD0122D102FC
:101BB000BB48FEF7F0FD0FE04FF40061B848FEF7B8
:101BC000CCFD48B93220FEF7A2FC4FF40061B448C6
:101BD000FEF7C3FD00B900E0EEE700BF0122D1022D
:101BE000A848FEF7D8FD00224FF48061A548FEF713
:101BF000D2FD4FF47A70FEF78AFC01221102A84848
:101C0000FEF7C9FD6420FEF782FC00224FF48071CC
:101C1000A348FEF7C0FD4FF47A70FEF778FC01226E
:101C200011029F48FEF7B7FD6420FEF770FC00220A
:101C30004FF480719A48FEF7AEFD00224FF4006128
:101C40009048FEF7A8FD00224FF480618D48FEF712
:101C5000A2FD012202218B48FEF79DFD00220121F9
:101C60008848FEF798FD4FF47A70FEF750FC00228A
:101C700002218448FEF78FFD002201218148FEF7F2
:101C80008AFD012211028648FEF785FD6420FEF7D9
:101C90003EFC00224FF480718148FEF77CFD01225A
:101CA00002217848FEF777FD002201217548FEF7F2
:101CB00072FD0FE04FF400417248FEF74EFD48B947
:101CC0003220FEF724FC4FF400416E48FEF745FD3C
:101CD00000B900E0EEE700BF002202216948FEF7EC
:101CE0005AFD002201216748FEF755FD00BFF7E3CA
:101CF000002038706BA0069902F0DDFC307804F00B
:101D000024FC00226C4BCDE9000104F099FA00227A
:101D10004FF08043CDE9020104F02AFCCDE9040133
:101D200004F0E6FB654908802888098888426FDD51
:101D3000288862490988401A28802888642190FBF5
:101D4000F1F030305E49087228880A2190FBF1F0EA
:101D500090FBF1F201FB120030305949487228889B
:101D60000A2190FBF1F201FB1200303054498872D5
:101D700030783C2190FBF1F00A2190FBF1F03030FB
:101D80005049087130783C2190FBF1F00A2190FB1A
:101D9000F1F201FB120030304A494871474800888F
:101DA000642190FBF1F030304649087343480088C5
:101DB0000A2190FBF1F090FBF1F201FB12003030B0
:101DC000404948733D4800880A2190FBF1F201FB2D
:101DD000120030303B498873802000F064FF0024FB
:101DE00005E03749085D00F0B1FF601CC4B2102C5B
:101DF000F7DBC02000F057FF002405E03149085D03
:101E000000F0A4FF601CC4B2102CF7DBC8E0FFE7B1
:101E10002888642190FBF1F0303029490872288825
:101E20000A2190FBF1F090FBF1F201FB120030303F
:101E30002349487228880A2190FBF1F201FB120025
:101E400030301F49887230783C2190FBF1F00A2134
:101E500090FBF1F030301B49087130783C2190FB49
:101E6000F1F00A2190FBF1F201FB1200303015492C
:101E7000487112480088642190FBF1F0303011491C
:101E8000087321E0000C0140496E206C6179657295
:101E90002032206E6F2E2032000000002901002029
:101EA00000080140746172676574536C6F74203D63
:101EB0002025640D0A00000000004E403201002081
:101EC000D8000020E9000020FE4800880A2190FB8D
:101ED000F1F090FBF1F201FB12003030FA49487347
:101EE000F84800880A2190FBF1F201FB1200303023
:101EF000F5498873802000F0D6FE002405E0F34900
:101F0000085D00F023FF601CC4B2102CF7DBC0207A
:101F100000F0C9FE002405E0EB49085D00F016FF63
:101F2000601CC4B2102CF7DBE9495046FFF731F9C9
:101F300001221103E748FEF72EFC01221102E548B9
:101F4000FEF729FC4FF4FA60FEF7E1FA00224FF4A5
:101F50008071E048FEF71FFC4FF0000B1DE0BBF561
:101F6000FA6F15DA0120FEF7D2FA4FF48051D94802
:101F7000FEF7F3FB48B93220FEF7C9FA4FF480515F
:101F8000D448FEF7EAFB00B908E00BF1010B04E0CE
:101F9000CF49D148FFF7FDF800E0E0E700BF00BF00
:101FA0000698012806D0022874D0032871D004288E
:101FB0006DD10CE20020C949087000224FF4006185
:101FC000C748FEF7E8FB01229102C548FEF7E3FB94
:101FD0004FF47A70FEF79BFA00224FF40061C0487C
:101FE000FEF7D9FB00224FF48061BD48FEF7D3FB1A
:101FF00001221102B748FEF7CEFB6420FEF787FAF4
:1020000000224FF48071B348FEF7C5FB0122D102D4
:10201000B048FEF7C0FB0FE04FF40061AD48FEF79B
:102020009CFB48B93220FEF772FA4FF40061A948D0
:10203000FEF793FB00B900E0EEE700BF0122D102FA
:10204000A748FEF7A8FB00224FF48061A448FEF7E2
:10205000A2FB4FF47A70FEF75AFA00224FF40061A7
:102060009F48FEF798FB00224FF480619C48FEF7E2
:1020700092FB012211029748FEF78DFB6420FEF7C8
:1020800046FA00224FF480719248FEF784FB8CE2FE
:1020900000E0AFE000209349087000224FF4006197
:1020A0008F48FEF778FB012291028D48FEF773FB03
:1020B0004FF47A70FEF72BFA012211028548FEF7E1
:1020C0006AFB6420FEF723FA00224FF480718148F6
:1020D000FEF761FB4FF47A70FEF719FA0122110244
:1020E0007C48FEF758FB6420FEF711FA00224FF4FB
:1020F00080717848FEF74FFB00224FF4006178486A
:10210000FEF749FB00224FF480617548FEF743FB60
:10211000012211026F48FEF73EFB4FF47A70FEF782
:10212000F6F900224FF480716A48FEF734FB012271
:10213000D1026848FEF72FFB0FE04FF400616548BD
:10214000FEF70BFB48B93220FEF7E1F94FF40061CE
:102150006048FEF702FB00B900E0EEE700BF012295
:10216000D1025F48FEF717FB00224FF480615C4804
:10217000FEF711FB4FF47A70FEF7C9F90122110244
:102180005448FEF708FB6420FEF7C1F900224FF423
:1021900080715048FEF7FFFA4FF47A70FEF7B7F9F6
:1021A000012211024B48FEF7F6FA6420FEF7AFF960
:1021B00000224FF480714748FEF7EDFA00224FF4F9
:1021C00000614748FEF7E7FA00224FF48061444877
:1021D000FEF7E1FA012211023E48FEF7DCFA4FF465
:1021E0007A70FEF794F900224FF480713948FEF7B7
:1021F000D2FADAE100203C49087000220221384876
:10220000FEF7C9FA012211463548FEF7C4FA4FF429
:102210007A70FEF77CF9012211022E48FEF7BBFA14
:102220006420FEF774F900224FF480712948FEF70C
:10223000B2FA002202212A48FEF7ADFA002201215B
:102240002748FEF7A8FA00224FF400612448FEF761
:10225000A2FA012291022248FEF79DFA4FF47A7009
:10226000FEF755F9012211021A48FEF794FA64208C
:10227000FEF74DF900224FF480711648FEF78BFAF5
:1022800000224FF400611648FEF785FA00224FF451
:1022900080611348FEF77FFA012211020D48FEF714
:1022A0007AFA4FF47A70FEF732F900224FF4807117
:1022B0000848FEF770FA0122D1020648FEF76BFAD1
:1022C00024E0000032010020E9000020D8000020B6
:1022D0008E0000200008014082000020260100201E
:1022E000000C014027010020280100204FF400616C
:1022F000FC48FEF732FA48B93220FEF708F94FF4ED
:102300000061F848FEF729FA00B900E0EEE700BFE7
:102310000122D102F448FEF73EFA00224FF4806118
:10232000F148FEF738FA4FF47A70FEF7F0F8012220
:102330001102EC48FEF72FFA6420FEF7E8F80022BD
:102340004FF48071E748FEF726FA00224FF400614F
:10235000E548FEF720FA00224FF48061E248FEF7DC
:102360001AFA01220221E048FEF715FA00220121A3
:10237000DD48FEF710FA4FF47A70FEF7C8F8012234
:102380001102D848FEF707FA6420FEF7C0F80022D1
:102390004FF48071D348FEF7FEF900220221D248A3
:1023A000FEF7F9F900220121CF48FEF7F4F90122E6
:1023B0001102CC48FEF7EFF94FF47A70FEF7A7F858
:1023C00000224FF48071C748FEF7E5F9EDE00020E8
:1023D000C649087000220221C348FEF7DCF9012239
:1023E0001146C148FEF7D7F94FF47A70FEF78FF81F
:1023F00001221102BB48FEF7CEF96420FEF787F8F0
:1024000000224FF48071B748FEF7C5F9002202217F
:10241000B548FEF7C0F900220121B348FEF7BBF929
:1024200000224FF40061B048FEF7B5F90122910295
:10243000AD48FEF7B0F94FF47A70FEF768F8012264
:102440001102A848FEF7A7F96420FEF760F8002201
:102450004FF48071A348FEF79EF94FF47A70FEF7AF
:1024600056F8012211029F48FEF795F96420FEF705
:102470004EF800224FF480719A48FEF78CF9002242
:102480004FF400619848FEF786F900224FF480610E
:102490009548FEF780F9012211029248FEF77BF978
:1024A0004FF47A70FEF733F800224FF480718D48B4
:1024B000FEF771F90122D1028A48FEF76CF910E0AB
:1024C0004FF400618748FEF748F950B93220FEF713
:1024D0001EF84FF400618348FEF73FF908B901E0A8
:1024E0007CE0EDE700BF0122D1027F48FEF753F9FF
:1024F00000224FF480617C48FEF74DF94FF47A706A
:10250000FEF705F8012211027648FEF744F964202F
:10251000FDF7FDFF00224FF480717248FEF73BF992
:102520004FF47A70FDF7F3FF012211026D48FEF7B8
:1025300032F96420FDF7EBFF00224FF48071694807
:10254000FEF729F900224FF400616748FEF723F9EE
:1025500000224FF480616448FEF71DF90122022138
:102560006148FEF718F9002201215F48FEF713F9D0
:102570004FF47A70FDF7CBFF002202215A48FEF794
:102580000AF9002201215848FEF705F9012211023B
:102590005448FEF700F96420FDF7B9FF00224FF41C
:1025A00080715048FEF7F7F800BF17E050A20121F4
:1025B000002000F04EFC53495348FEF7EAFD01228B
:1025C00011024848FEF7E7F84FF47A70FDF79FFFD5
:1025D00000224FF480714348FEF7DDF81BE0C02075
:1025E00000F061FB002405E04849085D00F0AEFB07
:1025F000601CC4B2102CF7DB012211023948FEF72F
:10260000CAF840F6B830FDF782FF00224FF480711F
:102610003448FEF7C0F800BFFEF79EFDFEF74CBE43
:1026200010B53B48007808281AD2DFE800F0041AF9
:102630002F45738AA1B80122D1022B48FEF7ABF8CF
:1026400000224FF480612848FEF7A5F800220221FD
:102650002548FEF7A0F8002201212348FEF79BF849
:10266000B3E00122D1022048FEF795F80122910241
:102670001D48FEF790F8002202211B48FEF78BF858
:10268000002201211848FEF786F89EE000224FF450
:1026900000611548FEF77FF8012291021248FEF70B
:1026A0007AF8002202211048FEF775F80022012175
:1026B0000D48FEF770F888E000224FF400610A48E8
:1026C000FEF769F8012291020748FEF764F801223B
:1026D00002210548FEF75FF8002201210248FEF7BB
:1026E0005AF872E000080140000C01402901002066
:1026F0004E6F20617661696C61626C6520736C6FEE
:1027000074000000A300002082000020FA000020D6
:102710001D01002000224FF40061FE48FEF73BF847
:1027200000224FF48061FB48FEF735F801220221B8
:10273000F848FEF730F800220121F648FEF72BF8A2
:1027400043E000224FF40061F248FEF724F8002233
:102750004FF48061EF48FEF71EF801220221ED4898
:10276000FEF719F801221146EA48FEF714F82CE0AA
:1027700000224FF40061E748FEF70DF800224FF405
:102780008061E448FEF707F800220221E148FEF7E5
:1027900002F801221146DF48FDF7FDFF15E0012296
:1027A000D102DC48FDF7F7FF00224FF48061D948E1
:1027B000FDF7F1FF00220221D648FDF7ECFF0122D0
:1027C0001146D448FDF7E7FF00BF00BF0120FDF729
:1027D0009EFE00224FF40061CE48FDF7DCFF002290
:1027E0004FF48061CB48FDF7D6FF00220221C94893
:1027F000FDF7D1FF00220121C648FDF7CCFFC648F6
:102800000078401CC449087008460078072801DD9C
:102810000020087010BD10B5BF48007808281BD2F2
:10282000DFE800F0041B32495F758AA000224FF4F4
:102830000061B848FDF7AFFF00224FF48061B54852
:10284000FDF7A9FF00220221B248FDF7A4FF0122F3
:102850001146B048FDF79FFF9AE000224FF4006157
:10286000AC48FDF798FF00224FF48061A948FDF7BE
:1028700092FF01220221A748FDF78DFF0122114698
:10288000A448FDF788FF83E000224FF40061A148CF
:10289000FDF781FF00224FF480619E48FDF77BFF2A
:1028A000012202219B48FDF776FF00220121994871
:1028B000FDF771FF6CE000224FF400619548FDF7D1
:1028C0006AFF012291029348FDF765FF0122022170
:1028D0009048FDF760FF002201218E48FDF75BFF65
:1028E00056E000224FF400618A48FDF754FF0122B0
:1028F00091028848FDF74FFF002202218548FDF72D
:102900004AFF002201218348FDF745FF40E00122F4
:10291000D1028048FDF73FFF012291027D48FDF77B
:102920003AFF002202217B48FDF735FF00220121FA
:102930007848FDF730FF2BE00122D1027548FDF702
:102940002AFF00224FF480617248FDF724FF002225
:1029500002217048FDF71FFF002201216D48FDF79D
:102960001AFF15E00122D1026A48FDF714FF002288
:102970004FF480616748FDF70EFF00220221654891
:10298000FDF709FF012211466248FDF704FF00BF71
:1029900000BF0120FDF7BBFD00224FF400615D4840
:1029A000FDF7F9FE00224FF480615A48FDF7F3FE6F
:1029B000002202215748FDF7EEFE00220121554872
:1029C000FDF7E9FE54480078401C5349087008465A
:1029D0000078072801DD0020087010BD4F4880698D
:1029E00040F004004D4988614D4800686FF31300C2
:1029F0004B4908604948806940F400704749886144
:102A00000846C06840F40070C8600846C06820F4FA
:102A10000070C8600846406820F44040486008469E
:102A2000406840F4004048603E4800683E49084025
:102A30003C4908600846006808600846006820F4C1
:102A400080700860081D006820F00200091D086001
:102A50000846006820F4602008600846006840F4DA
:102A6000602008600846006840F48010086008464E
:102A7000006820F4006008602A482830006820F4CC
:102A80007000284928310860084600680020086066
:102A900024480C3000686FF30F0022490C310860A5
:102AA0000846006840F4E04008600846006840F4CA
:102AB000606008600846006840F4E07008600846FE
:102AC000006840F0380008600846006840F00700E1
:102AD00008601448001D006840F001001149091DFC
:102AE00008600846006840F00800086000BF0D4814
:102AF000001D006800F008000028F8D10948001DFA
:102B0000006840F004000749091D086000BF05483F
:102B1000001D0BE0000C01401D01002000100240D0
:102B20000008014004240140FFFFF000006800F0AD
:102B300004000028EBD1704701462448006820F0CB
:102B40001F00224A106010460068084310601F48AA
:102B50002C38006840F480001C4A2C3A106000BFFA
:102B60001A483438006800F002000028F8D01748EE
:102B70001830006880B2704770B505460C460020DA
:102B8000134908604FF48061124801F09CFE294609
:102B900011A001F090FD08E06420FDF7B8FC10A141
:102BA0000C4801F033FE00B103E0201EA4F1010443
:102BB000F2D100BF002C04DC0AA001F07CFD012052
:102BC00070BD0AA001F077FD0020F9E73424014030
:102BD000480100205001002025730D0A000000006C
:102BE0004F4B00006661696C0D0A00004F4B0D0AE7
:102BF0000000000008B510208DF8030003208DF8B8
:102C00000200FF20ADF8000069469F48FDF712FD65
:102C10004FF46040ADF8000069469C48FDF70AFD9E
:102C200008BD07E0192101E04A1ED1B20029FBDCF2
:102C3000421E90B20028F5DC704708B548208DF898
:102C4000030003208DF802000120ADF80000694662
:102C50008D48FDF7EFFC00224FF400518B48FDF743
:102C60009AFD012291038948FDF795FD0122D103C8
:102C70008648FDF790FD0120FFF7D3FF00BF01213B
:102C80008148FDF76AFD0028F9D110208DF8030076
:102C900003208DF802000120ADF8000069467A4853
:102CA000FDF7C8FC08BD70B5044600260025FFF7F7
:102CB000C4FF00BF0BE04FF6FF7000EA450504F0CB
:102CC000010008B145F001056410701CC6B2082E61
:102CD000F1DBECB221466C48FDF762FD00224FF4B7
:102CE00000416A48FDF757FD0A20FFF79AFF0022CE
:102CF0004FF400516548FDF74EFD0A20FFF791FFA4
:102D000000224FF480416148FDF745FD0A20FFF79E
:102D100088FF0A20FFF785FF0122D1035B48FDF7FA
:102D20003AFD0A20FFF77DFF00224FF4004157488B
:102D3000FDF731FD0A20FFF774FF0122910353488C
:102D4000FDF729FD0A20FFF76CFF70BD70B5044642
:102D500000260025FFF771FF00BF0BE04FF6FF7064
:102D600000EA450504F0010008B145F001056410D2
:102D7000701CC6B2082EF1DBECB221464248FDF7CA
:102D80000FFD00224FF400414048FDF704FD0A20EA
:102D9000FFF747FF012251033C48FDF7FCFC0A20E6
:102DA000FFF73FFF00224FF480413848FDF7F3FC66
:102DB0000A20FFF736FF0A20FFF733FF0122D10375
:102DC0003248FDF7E8FC0A20FFF72BFF00224FF402
:102DD00000412E48FDF7DFFC0A20FFF722FF012209
:102DE00091032A48FDF7D7FC0A20FFF71AFF70BDB0
:102DF00010B5FFF7FFFE0120FFF755FF6420FFF736
:102E000010FF3820FFF74FFF6420FFF70AFF38203C
:102E1000FFF749FF6420FFF704FF0C20FFF743FF93
:102E20006420FFF7FEFE10BD70B505460C46164641
:102E30001CB905F18000C4B204E0012C02D105F1F7
:102E4000C000C4B22046FFF72EFF3046FFF77EFFDA
:102E500070BD70B506460C4615461CB906F18000DB
:102E6000C4B204E0012C02D106F1C000C4B2204675
:102E7000FFF719FF03E02878FFF768FF6D1C28783B
:102E80000028F8D170BD000000080140001001408A
:102E90007FB505460C4601210220FDF794FEADF8F2
:102EA0000850ADF804400020ADF80A00ADF8060067
:102EB00001A9364800F05CF901221146334800F0C0
:102EC000CEFC1D208DF8000000208DF801000320AD
:102ED0008DF8020001208DF803006846FEF7D3F854
:102EE00001212A4800F0A0FC7FBD10B50121274830
:102EF00000F063FF002848D00121244800F06EFF55
:102F0000234801780078401C214A107014293CDBCA
:102F10000020114608701F480078401C1D490870A9
:102F200008460078401CC0B208703C2801DB002035
:102F300008701948007838B11848007820B118484E
:102F40000078401C164908701648007838B11648B9
:102F5000007820B115480078401C144908701448C6
:102F6000007838B11348007820B113480078401C2D
:102F7000114908701148007838B11148007820B123
:102F800010480078401C0F49087010BD0004004034
:102F9000400100203A0100202E0100202A010020DB
:102FA0003C0100202F0100202B0100203D010020CA
:102FB000300100202C0100203E01002031010020C2
:102FC0002D0100203F01002010B50446FE48844238
:102FD00008D10121C014FDF703FE0021E014FDF724
:102FE000FFFDC4E0B4F1804F08D101210846FDF790
:102FF00004FE00210120FDF700FEB8E0F348844202
:1030000008D101210220FDF7F8FD00210220FDF783
:10301000F4FDACE0EE48844208D101210420FDF724
:10302000ECFD00210420FDF7E8FDA0E0E948844222
:1030300008D101210820FDF7E0FD00210820FDF75F
:10304000DCFD94E0E448844208D101211020FDF722
:10305000D4FD00211020FDF7D0FD88E0DF48844238
:1030600008D101212020FDF7C8FD00212020FDF717
:10307000C4FD7CE0DA48844208D101214014FDF708
:10308000AFFD00216014FDF7ABFD70E0D548844230
:1030900009D10121C804FDF7A3FD00214FF4002050
:1030A000FDF79EFD63E0D048844209D10121080567
:1030B000FDF796FD00214FF48010FDF791FD56E0DD
:1030C000CA48844209D101214805FDF789FD002144
:1030D0004FF40010FDF784FD49E0C548844208D153
:1030E00001214020FDF789FD00214020FDF785FDED
:1030F0003DE0C048844208D101218020FDF77DFDDC
:1031000000218020FDF779FD31E0BB48844208D1E1
:1031100001218015FDF771FD0021A015FDF76DFD62
:1031200025E0B648844209D101210804FDF758FD85
:1031300000214FF48030FDF753FD18E0B048844281
:1031400009D101214804FDF74BFD00214FF4003067
:10315000FDF746FD0BE0AB48844208D1012188040D
:10316000FDF73EFD00214FF48020FDF739FD10BD35
:1031700000220288944B98420ED0994B98420BD073
:10318000B0F1804F08D0914B984205D0904B9842B7
:1031900002D0904B984204D14FF68F731A404B885F
:1031A0001A438D4B984207D08C4B984204D04FF66F
:1031B000FF431A40CB881A4302808B8883850B8893
:1031C0000385814B98420BD0854B984208D08B4B9E
:1031D000984205D08A4B984202D08A4B984201D13E
:1031E0000B7A038601238382704770B50024002286
:1031F0000023058C4FF6FE7635400584028C8388CB
:10320000048B4FF68F752C40B51E2C400D882C4337
:10321000751E2A400D892A434D882A436A4DA842CB
:103220000BD06F4DA84208D0744DA84205D0744D04
:10323000A84202D0734DA84213D14FF6F7752A4029
:103240004D892A434FF6FB752A408D882A434FF655
:10325000FF652B404FF6FF552B408D892B43CD89C1
:103260002B4383800483CD888586028470BD70B52E
:10327000002400220023058C4FF6EF7635400584AC
:10328000028C8388048B48F6FF752C404FF6FF456F
:103290002C400D884FF6FF7606EA05252C434FF6A5
:1032A000DF752A400D8906EA05152A434D8806EA8E
:1032B00005152A43444DA84202D0494DA8421DD1CC
:1032C0004FF67F752A404D894FF6FF7606EA0515C1
:1032D0002A434FF6BF752A408D8806EA05152A4312
:1032E0004FF6FF352B404FF2FF752B408D8906EAD4
:1032F00085052B43CD8906EA85052B43838004830E
:10330000CD880587028470BD70B50024002200239B
:10331000058C4FF6FF6635400584028C8388848BCC
:103320004FF68F752C404FF6FC752C400D882C43C2
:103330004FF6FF552A400D894FF6FF7606EA052520
:103340002A434D8806EA05252A431F4DA84202D08C
:10335000234DA8421DD14FF2FF752A404D894FF6EB
:10336000FF7606EA05252A434FF6FF352A408D8869
:1033700006EA05252A434EF6FF752B404DF6FF75EC
:103380002B408D8906EA05152B43CD8906EA0515E4
:103390002B4383808483CD888587028470BD70B57C
:1033A000002200230024058C4EF6FF76354005846C
:1033B000038C8488828B48F6FF752A404FF6FF45C0
:1033C0002A400D8820E00000002C0140000400404D
:1033D00000080040000C00400010004000140040B5
:1033E00000340140004C01400050014000540140B5
:1033F00000180040001C0040002000400040014038
:1034000000440140004801404FF6FF7606EA0525DA
:103410002A434DF6FF752B400D8906EA05352B43EF
:103420004D8806EA05352B43FA4DA84202D0FA4DE5
:10343000A84208D14BF6FF752C408D894FF6FF76D8
:1034400006EA85152C4384808283CD88A0F84050FD
:10345000038470BD828B4FF2FF331A408283828BCC
:103460004FF6FF7303EA01231A4382837047F0B5D6
:103470000C461546002200210026078C4EF6FF7CE4
:1034800007EA0C070784828B018C4FF6FF7707EA67
:10349000043640F6FF473A404FF6FF7707EA052724
:1034A0003A434FF6FF7707EA03373A43D94FB8421A
:1034B0000ED0D94FB8420BD0B0F1804F08D0D74FC3
:1034C000B84205D0D64FB84202D0D64FB84206D146
:1034D0004DF6FF77394046F48057394305E047F60B
:1034E000FF57394044F48057394382830184F0BD4B
:1034F000828B4FF6F3731A408283828B0A43828356
:103500007047F0B50C461546002200210026078CB6
:103510004FF6FF6C07EA0C070784828B018C4FF68D
:10352000FF7707EA04264FF60C773A404FF6FF770D
:1035300007EA03172F433A43B64FB8420ED0B64FAF
:10354000B8420BD0B0F1804F08D0B44FB84205D08C
:10355000B34FB84202D0B34FB84206D14FF6FF572F
:10356000394046F48077394305E04FF2FF57394040
:1035700044F48077394382830184F0BD028B4FF29B
:10358000FF331A400283028B4FF6FF7303EA0123D5
:103590001A4302837047F0B50C46154600220021FD
:1035A0000026078C4FF6EF7C07EA0C070784028B96
:1035B000018C4FF6FF7707EA041640F6FF473A40C2
:1035C0004FF6FF7707EA03373A434FF6FF7707EAEC
:1035D00005273A438F4FB8420ED08F4FB8420BD0D9
:1035E000B0F1804F08D08D4FB84205D08C4FB84213
:1035F00002D08C4FB84206D14FF6DF77394046F003
:103600001007394305E04FF65F77394044F0100763
:10361000394302830184F0BD028B4FF6F3731A40E5
:103620000283028B0A4302837047F0B50C461546AD
:1036300000220021068C4FF6FE773E400684028B66
:10364000018C4FF60C7632407E1C06EA03162E43A0
:103650003243704EB0420ED06F4EB0420BD0B0F13C
:10366000804F08D06D4EB04205D06D4EB04202D0B2
:103670006C4EB04206D14FF6FD76314044F0010663
:10368000314305E04FF6F576314044F00106314311
:1036900002830184F0BD70B505460C465D48854245
:1036A0000ED05D4885420BD0B5F1804F08D05B4805
:1036B000854205D05A48854202D05A48854200D1F9
:1036C00000E000BF208850B92389A288618828467D
:1036D000FFF7ABFFE1882846FFF79EFF25E0208833
:1036E00004280AD12389A28861882846FFF753FF5E
:1036F000E1882846FFF742FF17E0208808280AD112
:103700002389A28861882846FFF7FBFEE1882846C6
:10371000FFF7EEFE09E02389A28861882846FFF7BB
:10372000A6FEE1882846FFF795FE70BD2DE9F04121
:1037300005460C4600260127608808B9022600E0ED
:103740000026A088012801D1022700E00127208857
:10375000A0B92389A28861882846FFF766FFE1881F
:103760002846FFF759FF23893A4631462846FFF796
:1037700012FFE1882846FFF701FF13E02389A288A2
:1037800061882846FFF707FFE1882846FFF7F6FE25
:1037900023893A4631462846FFF747FFE188284605
:1037A000FFF73AFFBDE8F0810A884B881A438B88FF
:1037B0001A43CB881A430B891A434B891A438B89C6
:1037C0001A43A0F8442070474FF6FF718180002112
:1037D0000180C180418001727047002101804180D9
:1037E0008180C180018141818181C1817047002137
:1037F00001804180012181800021C18001817047C9
:103800000021018041808180C180018141818181CD
:1038100070470000002C01400034014000040040CB
:1038200000080040000C004021B1028842F0010273
:10383000028004E002884FF6FE731A40028070474F
:1038400031B1B0F8442042F40042A0F8442005E031
:10385000B0F84420C2F30E02A0F8442070471AB119
:1038600083890B43838102E083898B438381704783
:103870008182704741EA0203A0F8483070471AB1CC
:1038800083890B43838102E083898B438381704763
:1038900001894FF6F8721140018170470A460021F4
:1038A00001894FF68F73194011430181704730B57C
:1038B00004460D4629462046FFF7F0FF208940F0D8
:1038C0000700208130BD2DE9F04104460D46164623
:1038D0001F46602D06D13B46012231462046FFF7A8
:1038E0005AFE05E03B46012231462046FFF79DFE89
:1038F00029462046FFF7D2FF208940F007002081AB
:10390000BDE8F08130B50C4600210189C9B24FF6FF
:10391000FF7505EA0325154325432943018130BD81
:103920002DE9F04105460E461746984600244346C9
:103930003A4631462846FFF7E5FF2C894FF6F870E6
:10394000044044F007044FF68F70044044F07004C4
:103950002C81BDE8F081F0B504460D4616461F46A1
:103960003B46324629462046FFF7CCFF208940F4EB
:1039700080402081F0BD0185828270470A46002187
:1039800001884FF68F731940114301807047F0B5DD
:103990000C4615461E460021002200230189028B99
:1039A000038C4FF6F877394021434FF6FC473A40F5
:1039B00040F201173A434FF6DD773B404FF6FF7771
:1039C00007EA06172F433B43018102830384F0BDBE
:1039D0000A460021018B4FF68F7319401143018372
:1039E00070470A460021018B48F6FF7319404FF6D5
:1039F000FF7303EA02231943018370470A4600213B
:103A0000818B4FF68F7319401143818370470A46AB
:103A10000021818B48F6FF7319404FF6FF7303EACC
:103A2000022319438183704721B1028842F080024A
:103A3000028004E002884FF67F731A4002807047CC
:103A400021B1828842F00402828004E082884FF62D
:103A5000FB731A408280704721B1828842F00802CD
:103A6000828004E082884FF6F7731A4082807047A4
:103A700021B1828842F00102828004E082884FF600
:103A8000FE731A40828070470A460021018B4FF670
:103A9000F77319401143018370470A460021018BD7
:103AA0004FF2FF7319404FF6FF7303EA02231943E5
:103AB000018370470A460021818B4FF6F773194046
:103AC0001143818370470A460021818B4FF2FF73B7
:103AD00019404FF6FF7303EA0223194381837047AD
:103AE0000A460021018B4FF6FB73194011430183F5
:103AF00070470A460021018B4FF6FF3319404FF6FD
:103B0000FF7303EA02231943018370470A46002129
:103B1000818B4FF6FB7319401143818370470A462E
:103B20000021818B4FF6FF3319404FF6FF7303EAF4
:103B300002231943818370470A460021018B4FF607
:103B40007F7319401143018370470A460021018B9E
:103B5000C1F30E014FF6FF7303EA022319430183F9
:103B600070470A460021818B4FF67F73194011433D
:103B7000818370470A460021818BC1F30E014FF605
:103B8000FF7303EA02231943818370470A46002129
:103B9000018C4FF6FD7319401143018470470A46AA
:103BA0000021018C4FF6F7731940114301847047CF
:103BB0000A460021018C4FF6DF7319404FF6FF7360
:103BC00003EA02131943018470470A460021018C5D
:103BD0004FF67F7319404FF6FF7303EA0213194340
:103BE000018470470A460021018C4FF6FF531940AB
:103BF0004FF6FF7303EA02231943018470470A4614
:103C00000021018C4FF2FF7319404FF6FF7303EA56
:103C100002231943018470470A460021018C4DF6A6
:103C2000FF7319404FF6FF7303EA0233194301840F
:103C3000704730B5002301248C40A3B2048C9C4310
:103C40000484048C02FA01F5ADB22C43048430BD27
:103C500030B5002304248C40A3B2048C9C4304841C
:103C6000048C02FA01F5ADB22C43048430BD70B56A
:103C70000346002000241846183001258D40ACB2C0
:103C80001D8CA5431D8409B1082909D100EB6100F1
:103C9000056825F0700505600568154305600EE0B0
:103CA0000D1FC5F34E052844056825F4E045056061
:103CB00005684FF6FF7606EA02263543056070BDBB
:103CC00021B1028842F00202028004E002884FF62D
:103CD000FD731A400280704721B1028842F004024D
:103CE000028004E002884FF6FB731A40028070479E
:103CF00021B1828842F08002828004E082884FF6FF
:103D00007F731A408280704702884FF6F7731A401B
:103D1000028002880A430280704782884FF68F73C0
:103D20001A40828082880A438280704702894FF657
:103D3000F8731A40028102890A430281704702899E
:103D40004FF67F731A40028102890A43028170474D
:103D500081847047818570478186704701877047ED
:103D600081877047A0F84010704702884FF6FF43E4
:103D70001A40028002880A43028070470146888EFA
:103D800070470146088F70470146888F704701468B
:103D9000B1F8400070470146888C70470146088D95
:103DA000704702460020138A0B400BB1012000E04F
:103DB00000207047CA430282704730B50246002097
:103DC00000230024158A05EA0103958905EA010408
:103DD00013B10CB1012000E0002030BDCA430282C3
:103DE0007047000008B510208DF8030003208DF8FF
:103DF00002004FF46870ADF800006946F848FCF71F
:103E000019FC48208DF8030003208DF802004020A3
:103E1000ADF800006946F248FCF70CFC08BD2DE93E
:103E2000F04107460D4600224FF48071EC48FCF744
:103E3000B2FC0820FCF747FBEA480078012805D1CE
:103E400000224102E648FCF7A6FC0AE0E5480078BB
:103E5000022805D100220102E148FCF79CFC00E0A9
:103E600000BF0820FCF72FFB7E2000EA470608244D
:103E700026E006F08000802805D101228021D84864
:103E8000FCF789FC04E000228021D548FCF783FC84
:103E90000820FCF718FB01221102D148FCF77BFC3B
:103EA0000820FCF710FB7006060E00224FF480710C
:103EB000CB48FCF770FC0820FCF705FB601EC4B281
:103EC000002CD6DC082426E005F08000802805D1EF
:103ED00001228021C248FCF75EFC04E00022802120
:103EE000BF48FCF758FC0820FCF7EDFA012211024C
:103EF000BB48FCF750FC0820FCF7E5FA6806050E05
:103F000000224FF48071B648FCF745FC0820FCF70E
:103F1000DAFA601EC4B2002CD6DCB2480078012860
:103F200005D101224102AE48FCF735FC0AE0AD485C
:103F30000078022805D101220102A948FCF72BFCD8
:103F400000E000BF0820FCF7BEFA01221102A448DD
:103F5000FCF721FC0820FCF7B6FABDE8F0812DE95A
:103F6000F0410746002600224FF480719C48FCF780
:103F700012FC0820FCF7A7FA9A480078012805D11E
:103F8000002241029648FCF706FC0AE095480078BA
:103F9000022805D1002201029148FCF7FCFB00E059
:103FA00000BF0820FCF78FFA7E2000EA470040F0AF
:103FB0008005082426E005F08000802805D1012234
:103FC00080218748FCF7E7FB04E000228021844839
:103FD000FCF7E1FB0820FCF776FA01221102804889
:103FE000FCF7D9FB0820FCF76EFA6806050E0022E4
:103FF0004FF480717A48FCF7CEFB0820FCF763FA97
:10400000601EC4B2002CD6DC08241CE00122110280
:104010007348FCF7C0FB0820FCF755FA7006060E43
:1040200040216F48FCF799FB06430820FCF74BFA48
:1040300000224FF480716A48FCF7ADFB0820FCF7C2
:1040400042FA601EC4B2002CE0DC66480078012809
:1040500005D1012241026248FCF79DFB0AE061485C
:104060000078022805D1012201025D48FCF793FB8C
:1040700000E000BF0820FCF726FA01221102584890
:10408000FCF789FB0820FCF71EFA3046BDE8F081FA
:1040900070B505460C4600262846FFF760FF064629
:1040A00046EA04012846FFF7BAFE70BD70B5054622
:1040B0000C4600262846FFF752FF064626EA040172
:1040C0002846FFF7ACFE70BD2DE9FE4F0646884638
:1040D00091469A46DDF830B0FE2002900020019013
:1040E00000900C2E06D00E2E09D112200190102027
:1040F000009005E0772001903020009000E000BFA4
:1041000000BF019840F080010220FFF788FE802167
:104110000420FFF7CBFF00210120FFF780FE802164
:104120000A20FFF7B5FF002505E018F80510092063
:10413000FFF775FE6D1C4D45F7D331460120FFF7A3
:104140006EFE0C2E03D180210D20FFF7A1FF4FF44E
:10415000167500BF0420FFF702FF04466D1E35B13F
:1041600004F0010018B9009820400028F2D0802106
:104170000D20FFF79BFF95B30620FFF7F0FE00F040
:104180001B0088BB002002900198204000F0010035
:1041900008B1FF2002900C2E29D10A20FFF7DFFE84
:1041A00004460C20FFF7DBFE00F007072FB1601E6E
:1041B00007EBC000CBF8000002E0E000CBF8000005
:1041C00004B90124122C00DD1224002505E0092089
:1041D000FFF7C5FE0AF805006D1CA542F7D306E0FF
:1041E000000C014041010020FFE7FE2002908021E9
:1041F0000C20FFF74DFF00210120FFF710FE029871
:10420000BDE8FE8F70B588B005460C46082108460B
:10421000FFF74CFF07210D20FFF701FE03211420BB
:10422000FFF736FF8DF8085007A802AB012202A95C
:1042300000900C20FFF748FF06464EB9079810285B
:1042400006D19DF8080020709DF80900607000E01C
:10425000FE26304608B070BDF0B587B00546002791
:1042600008210846FFF722FF00210D20FFF7D7FDA8
:1042700080210E20FFF71AFF93208DF804002020E4
:104280008DF8050006A801AB022201A900900C20C0
:10429000FFF71AFF064686B9002407E001A8005D73
:1042A000285501A8005D4740601CC4B2042CF5DB12
:1042B00001A8005DB84200D0FE2680210E20FFF745
:1042C000E7FE304607B0F0BD2DE9F04107468846CD
:1042D000154604210520FFF7E9FE00210120FFF724
:1042E0009EFD80210A20FFF7D3FE002405E0395D02
:1042F0000920FFF794FD601CC4B24445F7DB03219D
:104300000120FFF78CFDFF2400BF0520FFF727FEEB
:104310000646601EC4B21CB106F004000028F4D0AA
:104320002220FFF71CFE28702120FFF718FE68707E
:10433000BDE8F08110B588B050208DF8080000204D
:104340008DF809000DF10A02022102A8FFF7BCFF57
:1043500007A802AB042202A900900C20FFF7B4FECC
:104360000446002008B010BD10B5FFF73BFD012248
:1043700020213948FCF70FFA0520FCF7C8F8002285
:1043800020213548FCF707FA0520FCF7C0F8012288
:1043900020213148FCF7FFF90520FCF7B8F80F2180
:1043A0000120FFF73CFD0520FCF7B1F83D2111206D
:1043B000FFF735FD1E212D20FFF731FD00212C20B8
:1043C000FFF72DFD8D212A20FFF729FD3E212B200F
:1043D000FFF725FD40211520FFF721FD002010BD2E
:1043E00010B51420FFF7BBFD044604F0030018B914
:1043F00003211420FFF74CFE10BD10B5032114203B
:10440000FFF754FE10BD10B5044614480470007840
:10441000012805D1012241020F48FCF7BCF90AE04E
:104420000E480078022805D1012201020A48FCF753
:10443000B2F900E000BFFFF797FF0320FCF767F831
:10444000FFF7DBFF0320FCF762F8FFF7C9FF03204B
:10445000FCF75DF810BD0000000C01404101002098
:104460001FB501210846FCF7A1FB4FF48070ADF8A1
:10447000000048208DF8030069461B48FCF7DAF875
:104480004FF4807000F0B7F808210020FCF7E8F93D
:104490004FF48070029000208DF80C000C208DF8F5
:1044A0000D0001208DF80E0002A800F02DF84FF449
:1044B000A060FCF7E3FD17208DF8040002208DF8C2
:1044C00005008DF8060001208DF8070001A8FCF713
:1044D000DAFD1FBD10B54FF4807000F08CF832206B
:1044E000FCF715F810BD0000000801400020444909
:1044F0000860091D0860091D0860091D0860414821
:104500003F4914310860704700213D498279002AF3
:104510003AD00A46126803689A430B461A600A1D8D
:10452000126803689A430B1D1A60027911440A68E5
:1045300003681A430A60324A0832126803689A43D1
:104540002F4B08331A601A1D126803689A432C4BCC
:104550000C331A604279102A0ED11A1F12680368B0
:104560001A43274B08331A601A1D126803681A434E
:10457000234B0C331A600DE02149427911440A683B
:1045800003681A430A6005E0027911440A68036867
:104590009A430A6070470021016001710C2141714A
:1045A0000021817170471649103109680143144A8E
:1045B00010321160704701460020114A143212680F
:1045C0000A400AB1012000E0002070470C49143174
:1045D00008607047014600200022094B1B6803EA6F
:1045E0000102074B14331B680B4013B10AB10120C1
:1045F00000E0002070470249143108607047000055
:1046000000040140FFFF0F0010B586B004464FF4D0
:10461000A060FCF733FD01218803FCF7C7FA0121F4
:104620000420FCF7C3FA4FF40070ADF81400032027
:104630008DF8160018208DF8170005A96348FBF7C0
:10464000F9FF4FF48060ADF8140004208DF81700D6
:1046500005A95E48FBF7EEFF01940020ADF80800C5
:10466000ADF80A00ADF80C00ADF810000C20ADF864
:104670000E0001A95648FCF740FB20215448FCF7E6
:10468000B0FC012240F225515148FCF7CEFB252019
:104690008DF8000000208DF801008DF80200012047
:1046A0008DF803006846FCF7EEFC01214848FCF752
:1046B000B0FB06B010BD0FB438B505A80090454852
:1046C000009A049900F090F800200090414800F012
:1046D000DBF8054600BF3E48008800F04000002897
:1046E000F9D000240CE03B48005D3949091D0880E1
:1046F00000BF3748008800F040000028F9D0641C53
:10470000AC42F0D338BC5DF814FB00BF304A1288CD
:1047100002F04002002AF9D001210CE04A1C825C20
:104720002B4B1B1D1A8000BF294A128802F0400241
:10473000002AF9D0491C4378027803EB02228A420E
:10474000ECDA704710B540F225512148FCF752FCD5
:1047500068B31F48FCF7CEFBC4B21F480088B0F511
:10476000806F1CDA1C4801880088401C1A4A10809F
:104770001A4844541A480068401C194908600A2C19
:1047800001D00D2C12D100201449134A12888854EC
:1047900001201449087000200F49088006E000201D
:1047A0000D4908800E4908600E49087000BF0821B5
:1047B0000748FCF709FC012806D108210448FCF74A
:1047C00010FC0348FCF796FB10BD000000080140F8
:1047D00000380140500500204C010020500100200D
:1047E00048010020440100201CB50C46064B7B44C8
:1047F00069460090204600F042F9044600206946D0
:1048000000F050F920461CBDB302000030B505464B
:104810000B462A4613F8014B12F8010B08B1A042CF
:10482000F8D01CB1002802D06D1CF1E7284630BD3D
:1048300040EA010310B59B070FD1042A0DD310C81D
:1048400008C9121F9C42F8D020BA19BA884201D96F
:10485000012010BD4FF0FF3010BD1AB1D30703D0B7
:10486000521C07E0002010BD10F8013B11F8014B6D
:104870001B1B07D110F8013B11F8014B1B1B01D189
:10488000921EF1D1184610BD10B5431C02E010F87D
:10489000011B71B18107FAD14FF0013202C88C1AA5
:1048A0008C4314EAC211F9D0C01A0A0603D0C01E04
:1048B00010BDC01A10BD0A0401D0801E10BD09022F
:1048C000FCD0401E10BD4FF000020429C0F0128041
:1048D00010F0030C00F0D082CCF1040CBCF1020FFC
:1048E00018BF00F8012BA8BF20F8022BA1EB0C0188
:1048F00000F0C2BA5FEAC17C24BF00F8012B00F8C7
:10490000012B48BF00F8012B704770477047704774
:1049100070B5044685690068C10601D5302600E0FF
:104920002026C00707D070BDD4E90121304690474A
:10493000206A401C20626D1EF6D570BD70B504461D
:1049400085690078C00707D170BDD4E90121202016
:104950009047206A401C20626D1EF6D570BD096824
:104960004A0501D540B27047C905FCD500B2704771
:1049700009684A0501D5C0B27047C905FCD580B2A7
:10498000704770B50C460546012A05D02878800688
:1049900000D5EA69002302E0012305E05B1C934295
:1049A00002D2E05C0028F9D1A869E618C01AA86113
:1049B000286A184428622846FFF7AAFF04E0D5E9D0
:1049C000012114F8010B9047B442F8D32846FFF7B1
:1049D000B5FF70BD2DE9F041064600241068752929
:1049E000314616A510D0FFF7BAFF002802DA404280
:1049F00013A507E031688A0701D512A502E049072F
:104A000004D511A5012401E0FFF7B2FF00210A221D
:104A100006F1240709E0B0FBF2FCB0FBF2F302FB65
:104A20001C00303078541846491C0028F3D1234626
:104A30002A463046BDE8F04100F088BA0000000088
:104A40002D0000002B00000020000000116802680B
:104A5000006A530501D508700AE0D30501D5088026
:104A600006E0130603D5C217C1E9000200E00860A2
:104A70000120704701694A1C02610878704700B53F
:104A80008FB0CDE901310021059105497944CDE987
:104A900003101146684600F029F90FB000BD000070
:104AA000E5FFFFFF0A6802F8010B0A60704700008B
:104AB0002DE9FF5F15468A460446DFF8AC80F844CE
:104AC0000027D8E900103E46CDE9001010E03AF882
:104AD00016106A4602A800F04BFE411C07D0217850
:104AE000890603D5E269391891420DD80744761C2E
:104AF0002078800602D5E069B84205DDAE42E6DBEB
:104B00003AF816000028E2D1A069C01BA061204637
:104B1000FFF7FEFED8E90010CDE90010002017E0F5
:104B20003AF818106A4602A800F022FEB0F1FF3FE2
:104B300081460BD000250DF1080B05E0D4E90121D9
:104B40001BF8050090476D1C4D45F7D308F1010097
:104B5000B0428046E4DB206A384420622046FFF7FA
:104B6000EDFEBDE8FF9F0000B21C00002DE9F04102
:104B70008046D21D22F007020025D2E90002F52965
:104B800015A614D0011E72F1000106DA0023D0EB45
:104B9000030063EB020211A608E0D8F800108B07AF
:104BA00001D50FA602E0490701D50EA60125114641
:104BB000002408F1240704E000F083F930323A556C
:104BC000641C50EA0102F7D12B463246214640468A
:104BD000BDE8F04100F0BAB9000000002D0000006F
:104BE0002B0000002000000030B4002100F124045C
:104BF00008E002F00705D208303542EA4372DB08CC
:104C00006554491C52EA0305F3D10468002310A23D
:104C1000250707D5A40600D421B1C46901230DA23C
:104C2000641EC46130BC00F091B910B50446214641
:104C30001068FFF79DFE02462046BDE810400023A5
:104C4000D2E7D21D22F00701D1E90023CCE7000012
:104C50000000000030000000F0B40D460188090596
:104C600002D5214C7C4402E01F4C7C440E340021D0
:104C700000F1240608E002F00F071209E75D42EA9E
:104C800003721B097754491C52EA0307F3D10278D7
:104C90000023120704D5702D06D009B10223113468
:104CA0002246F0BC00F052B901231034F8E770B589
:104CB00004460D4621461068FFF75AFE0246294673
:104CC0002046BDE870400023C6E7D21D22F007034E
:104CD000D3E90023C0E70368126843F020030360B0
:104CE0000823C3610023B7E7141B00002DE9F05F20
:104CF000894604464FF0000ADFF874B1FB44C0F85F
:104D000020A02046E1688847002874D0252806D0D6
:104D1000D4E901219047206A401C2062F1E7002677
:104D20005F462046E16888472028054607DB312D8D
:104D300005D2781910F8200C08B10643F1E7B00746
:104D400001D526F00406C4F81CA00027C4F818A05A
:104D50002A2D09D0284601F040FA38B304EB870821
:104D6000303DC8F8185019E059F8041B204604EBF0
:104D700087029161E1688847012F054618D1E069F3
:104D8000002820DA26F020061DE0D8F8180000EBF5
:104D9000800005EB40003038C8F818002046E16874
:104DA0008847054601F019FA0028EED1012F0AD0F4
:104DB0002E2D08D12046E16888477F1C0546022F2A
:104DC00046F02006C4DBA069002803DA404246F022
:104DD0000106A061F00701D026F010066C2D0BD063
:104DE000682D09D04C2D39D06A2D35D0742D35D091
:104DF0007A2D33D016E038E0E1682F462046884708
:104E0000B842054609D16C2F26D04FF48060E16886
:104E1000064320468847054604E06C2F1AD04FF41D
:104E2000807006430DB3A5F14100192802D8203542
:104E300046F400664A462946204626604E46FBF761
:104E4000AFF980B101280BD0F61D26F0070000F164
:104E5000080956E74020E4E78020D8E70020D6E79D
:104E600006F104094DE7284652E7206ABDE8F09FA5
:104E7000A41A00004FF0000200B51346944696466F
:104E8000203922BFA0E80C50A0E80C50B1F120015D
:104E9000BFF4F7AF090728BFA0E80C5048BF0CC00B
:104EA0005DF804EB890028BF40F8042B08BF704769
:104EB00048BF20F8022B11F0804F18BF00F8012BDB
:104EC000704730B5B0F10A024FEA900E71F100035D
:104ED0004EEA817EB0EB0E0061EB91014FEA101EAD
:104EE0004EEA017E10EB0E0041EB11114FEA102E3D
:104EF0004EEA016E10EB0E0041EB11214FEA104E0D
:104F00004EEA014E10EB0E0041EB1141401841F109
:104F100000014FEAD00040EA41704FEAD10110EBA6
:104F200080054FEA810444EA907444EB01046D1952
:104F300044EB0404521BA3414FF0000348BF0A3264
:104F400000D530BD401C41F1000130BD2DE9F047D6
:104F50000D4699469246044600F1240801688806E9
:104F600004D5E06921F01001216000E00120A84291
:104F700001DD471B00E00027A1697A1902EB090057
:104F8000081AA0612078C00602D42046FFF7C0FCB2
:104F9000002608E0D4E901211AF806009047206AAB
:104FA000401C761C20624E45F4DB2078C0060AD5F2
:104FB0002046FFF7ADFC06E0D4E901213020904700
:104FC000206A401C2062381EA7F10107F4DC07E0CC
:104FD000D4E9012118F805009047206A401C20629E
:104FE000281EA5F10105F3DC2046FFF7A7FC207879
:104FF000000602D50220BDE8F0870120FBE77047DC
:105000002DE9FF4F0C461E464FF0FF378BB0D2E91B
:105010000001DDF860800A908A46C1F30A5505B99F
:105020003D46002108464FF00000BAF1000F00F4A1
:10503000400005DA00EB80004FF4400101EA500027
:105040004FEA9059B9F1010F00DDB9460A9850EACC
:105050004A000ED044F61050A5F2FF3545432F14F8
:10506000B8F1000F1ED07542291E1EDDC9F10002E5
:105070001CE0B8F1010F4FF0000001D0302103E037
:10508000F24305E02154401CB042FBDB30460022D5
:10509000002121540B99C1F80880C1E900200FB00C
:1050A000BDE8F08FBD1B6D1CDEE74A4600DA6942A1
:1050B00006A800F0EFFB06AB93E8070003AB83E81C
:1050C000070050460A9900F0ACFC8DE80700A0F5F7
:1050D00000501F3800900398002D0ADD42F21F0196
:1050E0004A460844002303A90390684600F015FFD0
:1050F00009E0A0F500504A461F38002303A9039099
:10510000684600F01FFF8DE807000004000C03D084
:105110004FF0FF30410800E01046B8F1000F03D017
:105120000022009215461EE0751E05D4FFF7C9FE49
:10513000303262556D1EF9D5B3460122084302D0C4
:1051400000227F1C04E02078302801D100227F1E3D
:10515000002A099784D01DE0112D07DAFFF7B1FE70
:10516000303262556D1C50EA0102F5D1084302D07D
:105170000098C8B10EE00021681E05E0235C625C67
:1051800063542254401E491C8142F7DBAB46A81BE6
:10519000401E0990002004F80B000B98099AC0F8F3
:1051A0000880C0E9002B7AE711264FF0000857E786
:1051B0002DE9F04F88460446D21D22F0070191B038
:1051C000D1E90001CDE90A0100F0F3FF02460B9896
:1051D000C00F01D02D2007E02068810701D52B20CA
:1051E00002E0202101EAC000032A099001D0072A29
:1051F00005DB03464146204600F00CFB0BE120781E
:10520000800601D5E06900E00620B8F1650F81460F
:1052100006D0B8F1660F18D0B8F1670F70D131E041
:105220000020B9F1110F009001DB112301E009F119
:1052300001030AAA01A90CA8FFF7E2FEDDE90C7040
:10524000002609F10105834647E001204B46009006
:105250004FF000470AAA01A90CA8FFF7D1FEDDE92B
:105260000DB00C995D46002610B909F101000D182A
:10527000B9EB050003D4C0F1FF3609F10105A5EB38
:1052800009002BE0B9F1010F01DA4FF0010900200C
:10529000B9F1110F0090484601DD112300E00346EB
:1052A0000AAA01A90CA8FFF7ABFEDDE90C704D4678
:1052B00000268346207800070AD4AB4500DA5D4615
:1052C00001A8012D04DD411911F8011C302907D076
:1052D0004F4502DA17F1040F04DA012082460FE08D
:1052E0006D1EEEE7002F02DCED1B3E4403E0781C50
:1052F000A84200DD7D1CB81B00F1010A4FF00047F9
:105300002078000703D4AA4501DB4FF0FF3A0021C3
:10531000B7F1004F0DF143088DF8431024D002205F
:105320002B23002F01DA7F422D230A21021EA0F138
:10533000010000DC5FB197FBF1FC97FBF1F201FB90
:105340001C7C17460CF1300C08F801CDEEE7A8F1F3
:10535000010003702188090501D5452100E0652180
:10536000A0F1010800F8011C09980FA9A1EB08079A
:10537000FF1D00B10120411901EBEA70A169384419
:10538000081A401EA0612078C00602D42046FFF70C
:10539000BFFA099828B1D4E901219047206A401C3E
:1053A00020622078C00622D52046FFF7B1FA1EE021
:1053B000002E04DBB34502DD01A8805D00E0302053
:1053C000D4E901219047206A401C2062761CAAF192
:1053D00001005FEA000A0AD100F018FAC06801680B
:1053E000405CD4E901219047206A401C2062281EBD
:1053F000A5F10105DCDC07E0D4E9012118F8010B77
:105400009047206A401C2062381EA7F10107F3DC98
:105410002046FFF793FA032011B041E62DE9F04F43
:1054200004460D46D21D22F0070089B0D0E900974E
:105430004846394600F0BDFE0246F80F01D02D2344
:1054400007E02068810701D52B2302E0202101EA33
:10545000C0038DF820300BB1012000E00020032AAA
:10546000824601D0072A04DB2946204600F0D2F903
:105470003FE12078800601D40D2500E0E569C7F3FF
:105480000A560D2D49DA00214FEA175B08464FF006
:105490000000002F00F4400007DA00EB80004FF41A
:1054A000400100EBD07001EA60008115012901DDA7
:1054B0004FF0FF3100224FEA850CBCF1180F06D3E4
:1054C0001346ACF118004FF08052C24003E04FF495
:1054D000801323FA0CF30CF10C0CBCF1200F04D355
:1054E000ACF1200C09FA0CF001E007FA0CF00029ED
:1054F0004FF0004801DD18B90FE00ED140450CD344
:1055000019EB02095F4121B9404502D19F4329EAC5
:105510000209BBEB175F00D0761C2088000502D57E
:105520007B48784402E07A487844193808AA302346
:1055300002F80A30037C0AF10101002E0AF1020A86
:1055400053546A4602DC4FF0300101E04FF0310164
:105550004FF001088DF8001002D0A6F2FF3603E0EC
:1055600059EA470100D06B4E002D02DC2178090773
:1055700004D54FF002082E218DF80110C4460021F9
:105580000BE0C7F303433F01C35C491C6D1E02F8E7
:105590000830052908F1010801DA002DF1DC0021AD
:1055A0000CE000EB1973491C1B786D1E082902F8EA
:1055B00008304FEA091908F1010801DA002DF0DC82
:1055C00021688B0602D516E0A8F10108E04505DD4B
:1055D00002EB080313F8013C302BF5D0B8F1000FB3
:1055E00009DD02EB080313F8013C2E2B03D1090758
:1055F00001D4A8F10108002D05DD3E2102F80810B4
:105600006D1E08F10108407C002E02F8080008F128
:10561000010804DA2D20764202F8080002E02B206F
:1056200002F808000A214FF47A70864208F1010856
:105630000BDB96FBF0F3303302F8083096FBF0F307
:1056400008F1010800FB136601E0642E0CDB642006
:1056500096FBF0F3303302F8083096FBF0F308F1D4
:10566000010800FB136601E00A2E06DB96FBF1F051
:10567000303002F8080008F1010896FBF1F001FB58
:105680001060303002F80800A16908F1010808EB49
:10569000050202EB0A00081AA0612078C00602D4B5
:1056A0002046FFF735F9216A08AE01EB0A002062B7
:1056B00004E0D4E9012116F8010B9047BAF1010A80
:1056C000F7D22078C00602D52046FFF721F96E46B2
:1056D00009E016F8010B3E280FD0D4E901219047CC
:1056E000206A401C2062B8F10108F2D22046FFF780
:1056F00025F909B00320BDE8F08F206A2844206214
:1057000003E0D4E90121302090476D1EEBD3F8E788
:10571000A212000002FCFFFF10B5436913B1AFF302
:10572000008001E0FFF72DF9012010BD127800F193
:1057300024010A7000224A700122EDE711684FF03F
:10574000FF32E9E710B5436913B1AFF3008001E020
:10575000FFF7AEF9012010BD128800F12401828408
:105760000022C2840122EDE711684FF0FF32E9E721
:1057700070B516460C46054600F040F8036893F8ED
:105780000101012806D0FF2C0FD8185D68B1012057
:105790002C7070BDD3F807013246214603F207137F
:1057A00003442846BDE8704018474FF0FF3070BDF5
:1057B000754600F0EBF8AE4605006946534620F00A
:1057C0000700854618B020B5FAF752FEBDE8204024
:1057D0004FF000064FF000074FF000084FF0000BAD
:1057E00021F00701AC46ACE8C009ACE8C009ACE860
:1057F000C009ACE8C0098D467047000010B500F044
:1058000005F8001D10BD00BF0D0A000000487047DC
:10581000700900202DE9F0411F4604460326016867
:10582000072A01F4006004DB08B116A505E016A5FF
:1058300003E008B115A500E015A521F010002060D7
:10584000A069C01EA0610FB1401EA0612046FFF7F5
:105850005FF84FB1D4E9012138469047206A401CD7
:105860002062C01C206206E0206AFAE7D4E9012128
:1058700015F8010B9047761EF8D22046FFF75EF828
:10588000BDE8F0814E414E006E616E00494E46000B
:10589000696E66002DE9F047814616468AB03548A4
:1058A00078440DC88DE80D0032487844801C03AC64
:1058B0000DC884E80D0041F69B300844372190FB69
:1058C000F1F290FBF1F5A5F1800501FB12041B3C00
:1058D00002D56442012000E00020DFF898A0804655
:1058E0000027FA44AAF1BE0A0EE0E0070AD03246C9
:1058F000684607EB470101230AEB810100F022FB18
:105900008DE8070064107F1C002CEED1194F7F44F6
:10591000AE3F19E0E80715D007EB04100DF1180AA7
:1059200090E80E008AE80E00C068F04201D1981994
:1059300008903246012306A903A800F003FB03AB3D
:1059400083E807006D10641C002DE3D14FF00103C4
:1059500032466946B8F1000F03A802D000F0DDFA24
:1059600001E000F0EFFAC9E90001C9F808200AB027
:10597000BDE8F087B40F000010B50446AFF3008017
:105980002046BDE81040FAF76EBC000000487047A2
:10599000500900204FF0013C50F8042B51F8043B13
:1059A0009A4221D1A2EB0C03934313EACC1317D1F3
:1059B00050F8042B51F8043B9A4215D1A2EB0C038A
:1059C000934313EACC130BD150F8042B51F8043B4A
:1059D0009A4209D1A2EB0C03934313EACC13DBD018
:1059E0004FF00000704700BFD01A01BAB1FA81F140
:1059F00001F0180122FA01F0CB40C1F12001DBB225
:105A0000C0B2C01A2CFA01F3D11A914311EAC311A2
:105A1000E6D1704701491820ABBEFEE72600020020
:105A200070475FEA400C08BF91F0000F4FEA8C23EB
:105A30004FEAC12243EA51514FEA1C5018BF00F50A
:105A4000F0404FEA300018BF41F000415FEA6C5C63
:105A500000F02980BCF1FF3F08BF40F08040704754
:105A6000130C06BF12044FF0100C4FF0000C130E75
:105A700004BF12020CF1080C130F04BF12010CF149
:105A8000040C930F04BF92000CF1020CD30F04BF5F
:105A900052000CF1010C11464FF00002A0F11F0062
:105AA000A0EB0C00704711F0004F08BF704731F0B9
:105AB00000413FF4D5AF0B0C06BF09044FF0100CAA
:105AC0004FF0000C0B0E04BF09020CF1080C0B0F79
:105AD00004BF09010CF1040C8B0F04BF89000CF109
