:020000040800F2
:100000001807002069030008710300087303000843
:10001000750300087703000879030008000000005A
:100020000000000000000000000000007B0300084A
:100030007D030008000000007F0300088103000822
:100040008303000883030008830300088303000878
:100050008303000883030008830300088303000868
:100060008303000883030008830300088303000858
:100070008303000883030008830300088303000848
:100080008303000883030008830300088303000838
:10009000830300088303000883030008A1400008CD
:1000A0008303000883030008830300088303000818
:1000B000830300080F2B0008830300088303000854
:1000C00083030008830300088303000883030008F8
:1000D00083030008830300088303000883030008E8
:1000E00083030008830300088303000800F002F87C
:1000F00000F03AF80AA090E8000C82448344AAF188
:100100000107DA4501D100F02FF8AFF2090EBAE885
:100110000F0013F0010F18BFFB1A43F0010318473B
:100120005C4600007C460000103A24BF78C878C1C5
:10013000FAD8520724BF30C830C144BF04680C60ED
:10014000704700000023002400250026103A28BF35
:1001500078C1FBD8520728BF30C148BF0B60704739
:100160001FB51FBD10B510BD04F037F81146FFF7DD
:10017000F7FF00F0CDFD04F055F803B4FFF7F2FFF0
:1001800003BC04F05DF800000CB500200190009065
:100190006C48006840F480306A49086000BF6948D4
:1001A000006800F4003000900198401C0190009815
:1001B00018B90198B0F5A06FF1D16248006800F459
:1001C000003010B10120009001E000200090009864
:1001D000012843D15C48006840F010005A4908608B
:1001E0000846006820F0030008600846006840F0F8
:1001F0000200086053484068524948600846406819
:1002000048600846406840F480604860084640689E
:1002100020F47C1048600846406840F4E8104860CC
:100220000846006840F08070086000BF45480068DC
:1002300000F000700028F9D04248406820F0030028
:10024000404948600846406840F00200486000BFEE
:100250003C48406800F00C000828F9D10CBD10B5EE
:10026000FFF792FF10BD10B53648006840F001005E
:1002700034490860084640683449084031494860BC
:1002800008460068324908402E4908600846006860
:1002900020F4802008600846406820F4FE00486092
:1002A0004FF41F008860FFF7DAFF4FF00060294924
:1002B000086010BD10B5002100200022214B5B68B2
:1002C00003F00C0121B1042906D0082928D107E048
:1002D000214B224C236027E01F4B204C236023E05E
:1002E000184B5B6803F47010164B5B6803F48032A4
:1002F000022303EB904022B9194B4343174C236070
:100300000DE0104B5B6803F4003323B1144B4343FF
:10031000124C236003E0104B4343104C236003E076
:100320000D4B0E4C236000BF00BF064B5B68C3F350
:1003300003130C4CE15C094B1B68CB40074C23605A
:1003400010BD000000100240002002400000FFF835
:10035000FFFFF6FE08ED00E000127A00000000202A
:1003600000093D0004000020094880470948004773
:10037000FEE7FEE7FEE7FEE7FEE7FEE7FEE7FEE755
:10038000FEE7FEE704480549054A064B70470000B2
:1003900067020008ED00000818010020180700207F
:1003A000180300201803002010B56FF0040000F0BF
:1003B0003AFC2E4800682E49B0FBF1F02D49087038
:1003C0000846007800EB4001C1EBC0104FF6FF710A
:1003D00001EAC0002849088010BD0146254A12786C
:1003E0004A434FF0E0235A6100229A611A4612698B
:1003F00042F001021A6100BF4FF0E022106900F0E4
:1004000001021AB100F48032002AF5D04FF0E02248
:10041000126922F001024FF0E0231A6100229A6172
:1004200070470146144A12884A434FF0E0235A614C
:1004300000229A611A46126942F001021A6100BF55
:100440004FF0E022106900F001021AB100F480328E
:10045000002AF5D04FF0E022126922F001024FF09D
:10046000E0231A6100229A6170470000000000201A
:1004700000127A00140000201600002010B54FF47E
:10048000A06000F081FB10BD10B50446CC4884424A
:1004900008D10121042000F02DFB0021042000F0F0
:1004A00029FB46E0C748844208D10121082000F01A
:1004B00021FB0021082000F01DFB3AE0C2488442E5
:1004C00008D10121102000F015FB0021102000F0C0
:1004D00011FB2EE0BD48844208D10121202000F00C
:1004E00009FB0021202000F005FB22E0B8488442EF
:1004F00008D10121402000F0FDFA0021402000F049
:10050000F9FA16E0B348844208D10121802000F0B6
:10051000F1FA0021802000F0EDFA0AE0AE488442B2
:1005200007D10121801500F0E5FA0021A01500F0A7
:10053000E1FA10BD10B50121084600F0DBFA0021F8
:10054000012000F0D7FA10BD2DE9F0410246002548
:100550000026002000230024002791F803C00CF09F
:100560000F0591F803C00CF0100CBCF1000F03D084
:1005700091F802C04CEA050591F800C0BCF1000FEB
:1005800031D0146800202BE04FF0010C0CFA00F37E
:10059000B1F800C00CEA03069E4220D183004FF060
:1005A0000F0C0CFA03F7BC4305FA03FC4CEA0404F5
:1005B00091F803C0BCF1280F06D14FF0010C0CFAE2
:1005C00000FCC2F814C00AE091F803C0BCF1480F67
:1005D00005D14FF0010C0CFA00FCC2F810C0401C11
:1005E0000828D1D31460B1F800C0BCF1FF0F34DD8E
:1005F000546800202EE000F1080C4FF0010808FAC2
:100600000CF3B1F800C00CEA03069E4221D183002E
:100610004FF00F0C0CFA03F7BC4305FA03FC4CEA4D
:10062000040491F803C0BCF1280F05D100F1080CB7
:1006300008FA0CF8C2F8148091F803C0BCF1480F16
:1006400007D100F1080C4FF0010808FA0CF8C2F8C5
:100650001080401C0828CED35460BDE8F0814FF6CE
:10066000FF710180022181700421C1707047024630
:10067000002093680B400BB1012000E00020704780
:100680000146886880B2704702460020D3680B405C
:100690000BB1012000E0002070470146C86880B21D
:1006A000704701617047416170470AB1016100E024
:1006B00041617047C16070474FF480320A438261E4
:1006C0008161826182698269704702460020434BE2
:1006D00018684FF68073184040EA021008433F4BF9
:1006E000186070473E49C8617047F0B50A4600235C
:1006F00000240021002500F00046B6F1004F02D191
:10070000364EF16901E0354E7168C0F3034583B29E
:1007100000F44016B6F5401F08D121F070612F4E4D
:10072000766826F070662D4F7E6012E000F4801629
:10073000B6F5801F06D1032606FA05F4A14341F061
:10074000706106E0460D360103FA06F6B14341F04A
:10075000706122B1460D360103FA06F6314300F00E
:100760000046B6F1004F02D11C4EF16101E01B4E74
:100770007160F0BD30B500228B071C0F0F2303FA08
:1007800004F2164B08338C1053F824309343134C67
:1007900008348D1044F8253023468C1053F824304B
:1007A0008C07240F00FA04F423430C4C08348D10FA
:1007B00044F8253030BD0A49DC310860704700003C
:1007C00000080140000C01400010014000140140ED
:1007D00000180140001C01400020014000000140C1
:1007E00000002042DF48006840F00100DD49086059
:1007F00008464068DC490840DA4948600846006815
:10080000DA490840D74908600846006820F480208B
:1008100008600846406820F4FE0048604FF41F005E
:1008200088607047CF49096821F48031CD4A116052
:100830001146096821F480211160B0F5803F03D092
:10084000B0F5802F0ED106E0C649096841F4803129
:10085000C44A116007E0C349096841F4A021C14AB4
:10086000116000E000BF00BF704710B501460022D4
:10087000002300204A11012A02D1BA4C236806E065
:10088000022A02D1B74C236A01E0B64C636A01F038
:100890001F02012494401C400CB1012000E0002004
:1008A00010BD38B5002000900024002500BF312085
:1008B000FFF7DBFF05460098401C00900098B0F55C
:1008C000A06F01D0002DF2D03120FFF7CEFF08B18C
:1008D000012400E00024204638BD01460020A14A42
:1008E000106820F0F80040EAC10010607047A0498D
:1008F00008607047024600209A4B586820F47C102C
:1009000042EA01031843974B5860704798490866BC
:10091000704701460020934A506820F003000843C6
:10092000506070478F48406800F00C0070470146E7
:1009300000208C4A506820F0F00008435060704757
:1009400001460020874A506820F4E0600843506068
:10095000704701460020834A506820F4605040EA06
:10096000C1005060704729B17E4A527A02437D4BE4
:100970005A7204E07B4A527A82437A4B5A72704729
:100980007B49D8310860704701460020754A50689D
:1009900020F440400843506070470021714A2032E3
:1009A0001170704A82F82010012802D004280AD160
:1009B00004E001216B4A2032117005E00521694AEB
:1009C0002032117000E000BF00BF70476949086025
:1009D00070476449096A0143624A11627047654978
:1009E00044390860704730B50021002200240023FC
:1009F0005C4D6D6805F00C0121B1042905D0082972
:100A000023D105E05C4D056022E05B4D05601FE0F1
:100A1000544D6D6805F47012524D6D6805F48034C4
:100A2000022505EB92421CB9544D554305600BE07D
:100A30004C4D6D6805F400351DB1504D55430560B2
:100A400002E04D4D5543056002E04B4D056000BF8F
:100A500000BF444D6D6805F0F0010909484D6B5C1D
:100A60000568DD4045603F4D6D6805F4E061090AA9
:100A7000434D6B5C4568DD4085603A4D6D6805F41B
:100A80006051C90A3E4D6B5C4568DD40C560354D1F
:100A90006D6805F44041890B3A4D6B5CC568B5FB48
:100AA000F3F5056130BD29B12E4A526902432D4B41
:100AB0005A6104E02B4A526982432A4B5A617047BB
:100AC00029B1284A92690243264B9A6104E0254ADB
:100AD00092698243234B9A61704729B1214AD269B6
:100AE0000243204BDA6104E01E4AD26982431D4B67
:100AF000DA61704729B11B4AD2680243194BDA60A8
:100B000004E0184AD2688243164BDA60704729B174
:100B1000144A12690243134B1A6104E0114A126924
:100B20008243104B1A617047124940390860704780
:100B30000F49C86470470B49C87170470948406A3B
:100B400040F0807007494862704701460020054A1E
:100B500092680A400AB1012000E000207047014974
:100B600088727047001002400000FFF8FFFFF6FE99
:100B7000000042428004424200127A0000093D0017
:100B8000180000202800002031490143314A11603B
:100B9000704770B5002100230F22C47804B32D4C98
:100BA000246804F4E064C4F5E064210AC1F104039C
:100BB000CA40447804FA03F18478144021430901BF
:100BC000254C0678A155047804F01F050124AC409B
:100BD00005786D11AD0005F1E025C5F8004109E08B
:100BE000047804F01F050124AC401C4D06787611F2
:100BF00045F8264070BD1A4A0A400243154B1B1F98
:100C00001A60704739B1134A121D12680243114B22
:100C10001B1D1A6006E00F4A121D126882430D4B1D
:100C20001B1D1A607047042808D14FF0E0210969A4
:100C300041F004014FF0E022116107E04FF0E021A4
:100C4000096921F004014FF0E022116170470000B2
:100C50000000FA050CED00E000E400E080E100E0B7
:100C600080FFFF1F10B50024802001F02EFE00BF82
:100C700005E0F749085D01F07BFE601CC4B2102C52
:100C8000F7DBC02001F021FE002405E0F149085DFA
:100C900001F06EFE601CC4B2102CF7DB10BD08B56D
:100CA00048208DF8030003208DF802004FF47040B7
:100CB000ADF800006946E848FFF746FC48208DF88B
:100CC000030003208DF80200C002ADF80000694661
:100CD000E248FFF739FC10208DF8030003208DF85F
:100CE00002004FF48070ADF800006946DB48FFF762
:100CF0002BFC10208DF8030003208DF8020040F635
:100D00000340ADF800006946D348FFF71DFC08BD5D
:100D100000BF4FF0000A00BF01213C20FFF7D0FECA
:100D2000FFF742FB41F61F4140F2F31001F0C2FE13
:100D3000FFF7B5FFFFF7A2FB01F06CFE01221102E5
:100D4000C648FFF7B2FC01F0C6BAC54800780A21D0
:100D500090FBF1F03030BE498873C14800780A2119
:100D600090FBF1F201FB12003030B949C8736420E6
:100D7000FFF757FB012003F02CF9BA49522003F08A
:100D800027F8B9490870B74803F04CF8B64908701D
:100D900008460078002841F09C8201221102AF48E9
:100DA000FFF783FC9620FFF73CFB00224FF4807195
:100DB000AA48FFF77AFC4FF0000A1FE0A94810F894
:100DC0000A00AA4901EB201001780AEB4A00C01C76
:100DD000A04A1154A34810F80A0000F00F00A349DC
:100DE000095C0AEB4A00001D115420210AEB4A005D
:100DF000401D11540AF1010000F0FF0ABAF1040F7E
:100E0000DCDBFFF72FFF9748007857287AD1954809
:100E10004078C128FAD193488078C128F6D191480A
:100E2000C0786028F2D19248007800287CD1012057
:100E30008F49087000208F4908708FA2012101F0AE
:100E40001AFE00224FF400618348FFF72EFC0122B6
:100E500091028148FFF729FC4FF47A70FFF7E1FA1D
:100E600000224FF400617C48FFF71FFC00224FF482
:100E700080617948FFF719FC0122D1027748FFF71A
:100E800014FC012211027548FFF70FFC6420FFF7E4
:100E9000C8FA00224FF480717048FFF706FC0FE09B
:100EA0004FF400616D48FFF7E2FB48B93220FFF7CD
:100EB000B8FA4FF400616948FFF7D9FB00B900E0C8
:100EC000EEE700BF0122D1026348FFF7EEFB0022EC
:100ED0004FF480616048FFF7E8FB4FF47A70FFF74A
:100EE000A0FA11E04FF480515B48FFF7C0FB58B9FE
:100EF0003220FFF796FA4FF480515748FFF7B7FBBF
:100F000010B902E0D5E10FE0ECE700BF00224FF49A
:100F100000615148FFF7C9FB00224FF480614E4841
:100F2000FFF7C3FB01F0D5B9514800780128F9D18A
:100F300000204F4908704F48007803F00EFB8046B0
:100F40000022524B03F084F9064600224FF0804302
:100F500003F016FB044603F0D3FA4D4908804D48D0
:100F600000880988884272DD4A4800884849098813
:100F7000401A4849088008460088642190FBF1F037
:100F8000303045490872434800880A2190FBF1F04F
:100F900090FBF1F201FB120030303F4948723D48AE
:100FA00000880A2190FBF1F201FB120030303A492F
:100FB0008872304800783C2190FBF1F00A2190FBC8
:100FC000F1F03030354908712A4800783C2190FB17
:100FD000F1F00A2190FBF1F201FB120030302F49B1
:100FE00048712B480088642190FBF1F030302B4988
:100FF0000873274800880A2190FBF1F090FBF1F27A
:1010000001FB1200303025494873214800880A212D
:1010100090FBF1F201FB12003030204988738020F0
:1010200001F053FC4FF0000A08E01B4911F80A00D8
:1010300001F09EFC0AF1010000F0FF0ABAF1100F66
:10104000F3DBC02001F041FC4FF0000A31E034E056
:101050004200002053000020000C01400008014025
:10106000AC0000202C0000204100002030000020B7
:10107000A0000020AE000020496E206C61796572EE
:101080002031206E6F2E20310000000000004E4005
:10109000A4000020980000206400002075000020BB
:1010A000FE4911F80A0001F063FC0AF1010000F0AA
:1010B000FF0ABAF1100FF3DB9AE0F94800886421C7
:1010C00090FBF1F03030F7490872F54800880A21AA
:1010D00090FBF1F090FBF1F201FB12003030F1498E
:1010E0004872EF4800880A2190FBF1F201FB1200E0
:1010F0003030EC498872EC4800783C2190FBF1F0EC
:101100000A2190FBF1F03030E4490871E64800789C
:101110003C2190FBF1F00A2190FBF1F201FB12005F
:101120003030DE494871E1480088642190FBF1F0DD
:101130003030DA490873DD4800880A2190FBF1F06D
:1011400090FBF1F201FB12003030D4494873D748CC
:1011500000880A2190FBF1F201FB12003030CF49E8
:101160008873802001F0B1FB4FF0000A08E0CD4900
:1011700011F80A0001F0FCFB0AF1010000F0FF0A7F
:10118000BAF1100FF3DBC02001F09FFB4FF0000A13
:1011900008E0C24911F80A0001F0EAFB0AF1010077
:1011A00000F0FF0ABAF1100FF3DB01221103C0486F
:1011B000FFF77BFA01221102BD48FFF776FA0FE034
:1011C0004FF48051BA48FFF752FA48B93220FFF77E
:1011D00028F94FF48051B648FFF749FA00B900E00A
:1011E000EEE700BF00224FF48071B148FFF75DFACF
:1011F00000224FF40061AF48FFF757FA0122910235
:10120000AC48FFF752FA4FF47A70FFF70AF9002260
:101210004FF40061A748FFF748FA00224FF48061BD
:10122000A448FFF742FA0122D102A148FFF73DFA94
:10123000012211029E48FFF738FA6420FFF7F1F807
:1012400000224FF480719A48FFF72FFA0FE04FF415
:1012500000619748FFF70BFA48B93220FFF7E1F831
:101260004FF400619248FFF702FA00B900E0EEE7A0
:1012700000BF0122D1028F48FFF717FA00224FF476
:1012800080618C48FFF711FA4FF47A70FFF7C9F8C4
:1012900000224FF400618748FFF707FA00224FF45D
:1012A00080618448FFF701FA40F2DC50FFF7B9F89B
:1012B00038E681480078D62872D17F484078ED28FA
:1012C000FAD17D488078C628F6D17B48C078F728C7
:1012D000F2D17A480078002873D10120774908704C
:1012E00000207749087077A2012101F0C4FB002299
:1012F0004FF400616F48FFF7D8F9012291026D4861
:10130000FFF7D3F94FF47A70FFF78BF84FF47A7048
:10131000FFF787F800224FF400616648FFF7C5F930
:1013200000224FF480616348FFF7BFF90122D10228
:101330005F48FFF7BAF9012211025D48FFF7B5F9DE
:101340006420FFF76EF800224FF480715848FFF7D1
:10135000ACF90FE04FF400615548FFF788F948B940
:101360003220FFF75EF84FF400615148FFF77FF934
:1013700000B900E0EEE700BF0122D1024D48FFF7BF
:1013800094F900224FF480614A48FFF78EF94FF438
:101390007A70FFF746F84FF47A70FFF742F811E0E1
:1013A000E8E14FF400514348FFF761F950B93220AA
:1013B000FFF737F84FF400513E48FFF758F908B9E6
:1013C00001E00EE0EDE700BF00224FF40061394874
:1013D000FFF76BF900224FF480613648FFF765F99B
:1013E000A0E5364800780128FAD10020334908707A
:1013F0003348007803F0B1F880460022364B02F003
:1014000027FF064600224FF0804303F0B9F8044658
:1014100003F076F82549088030480088098888421A
:101420007EDD2E48008821490988401A2B49088012
:1014300008460088642190FBF1F0303019490872A9
:10144000264800880A2190FBF1F090FBF1F201FBA5
:101450001200303013494872204800880A2190FB5E
:10146000F1F201FB120030300E4988721448007806
:101470003C2190FBF1F00A2190FBF1F0303007495C
:1014800008710F4800783C2190FBF1F00A2190FB95
:10149000F1F201FB12003030004921E0750000201C
:1014A0009800002064000020AE000020A40000206E
:1014B00000080140000C01402C000020A100002089
:1014C000AF000020496E206C617965722031206E7A
:1014D0006F2E20320000000000004E409A000020D5
:1014E0004871FE480088642190FBF1F03030FC49DF
:1014F0000873FA4800880A2190FBF1F090FBF1F2A2
:1015000001FB12003030F6494873F44800880A2184
:1015100090FBF1F201FB12003030F149887300E0DA
:1015200024E0802001F0D1F94FF0000A08E0ED49F5
:1015300011F80A0001F01CFA0AF1010000F0FF0A9C
:10154000BAF1100FF3DBC02001F0BFF94FF0000A31
:1015500008E0E34911F80A0001F00AFA0AF1010073
:1015600000F0FF0ABAF1100FF3DB9AE0DE480088C2
:10157000642190FBF1F03030DA490872DA480088D3
:101580000A2190FBF1F090FBF1F201FB12003030E8
:10159000D4494872D44800880A2190FBF1F201FB3B
:1015A00012003030CF498872D04800783C2190FB3F
:1015B000F1F00A2190FBF1F03030C9490871CB48B5
:1015C00000783C2190FBF1F00A2190FBF1F201FB45
:1015D00012003030C2494871C0480088642190FB35
:1015E000F1F03030BE490873BC4800880A2190FBF6
:1015F000F1F090FBF1F201FB12003030B849487372
:10160000B64800880A2190FBF1F201FB120030304D
:10161000B3498873802001F058F94FF0000A08E0C0
:10162000B04911F80A0001F0A3F90AF1010000F035
:10163000FF0ABAF1100FF3DBC02001F046F94FF0BA
:10164000000A08E0A64911F80A0001F091F90AF130
:10165000010000F0FF0ABAF1100FF3DB01221103C1
:10166000A348FFF722F801221102A148FFF71DF855
:101670000FE04FF480519E48FEF7F9FF48B9322041
:10168000FEF7CFFE4FF480519948FEF7F0FF00B906
:1016900000E0EEE700BF00224FF480719448FFF7AE
:1016A00004F800224FF400619248FEF7FEFF012289
:1016B00091029048FEF7F9FF4FF47A70FEF7B1FE01
:1016C0004FF47A70FEF7ADFE00224FF400618948B6
:1016D000FEF7EBFF00224FF480618648FEF7E5FF3E
:1016E0000122D1028248FEF7E0FF01221102804868
:1016F000FEF7DBFF6420FEF794FE00224FF48071BA
:101700007B48FEF7D2FF0FE04FF400617848FEF708
:10171000AEFF48B93220FEF784FE4FF400617448F2
:10172000FEF7A5FF00B900E0EEE700BF0122D102FD
:101730007048FEF7BAFF00224FF480616D48FEF753
:10174000B4FF4FF47A70FEF76CFE4FF47A70FEF738
:1017500068FE00224FF400616648FEF7A6FF0022F3
:101760004FF480616348FEF7A0FF40F2DC50FEF7C3
:1017700058FE9DE560480078852870D15E48407825
:101780001628FAD15C4880788128F6D15A48C0786A
:101790005F28F2D15948007800287DD101205749AF
:1017A000087000205649087056A2012101F063F923
:1017B000002202214F48FEF778FF012211464D48D2
:1017C000FEF773FF4FF47A70FEF72BFE0022022122
:1017D0004848FEF76AFF002201214648FEF765FFF0
:1017E00000224FF400614348FEF75FFF012291029F
:1017F0004048FEF75AFF4FF47A70FEF712FE0022BF
:101800004FF400613B48FEF750FF00224FF4806127
:101810003848FEF74AFF0122D1023548FEF745FF5E
:10182000012211023248FEF740FF6420FEF7F9FD65
:1018300000224FF480712E48FEF737FF10E04FF47E
:1018400000612B48FEF713FF50B93220FEF7E9FD87
:101850004FF400612648FEF70AFF08B901E039E2BB
:10186000EDE700BF0122D1022248FEF71EFF002251
:101870004FF480611F48FEF718FF4FF47A70FEF7AF
:10188000D0FD00224FF400611A48FEF70EFF00223F
:101890004FF48061174800E04CE0FEF706FF01229C
:1018A00002211448FEF701FF002201211148FEF732
:1018B000FCFE4FF47A70FEF7B4FD2EE04FF4804149
:1018C0000C48FEF7D4FE38BB3220FEF7AAFD4FF4D9
:1018D00080410848FEF7CBFEF0B91FE0A4000020CD
:1018E00075000020640000209A000020AF00002056
:1018F00000080140000C01402C000020A200002044
:10190000B0000020496E206C617965722032206E33
:101910006F2E203100000000FFE7CFE700BF00225C
:101920000221FE48FEF7C1FE00220121FB48FEF71E
:10193000BCFEBDE4FA4800780128FAD10020F8493D
:101940000870F848007802F008FE06460022F64BC0
:1019500002F07EFC044600224FF0804302F010FEAD
:10196000804602F0CDFDF1490880F14800880988E1
:10197000884272DDEE480088EC490988401AEC493B
:10198000088008460088642190FBF1F03030E94976
:101990000872E74800880A2190FBF1F090FBF1F211
:1019A00001FB12003030E3494872E14800880A2107
:1019B00090FBF1F201FB12003030DE498872D94809
:1019C00000783C2190FBF1F00A2190FBF1F03030DF
:1019D000D9490871D34800783C2190FBF1F00A21E5
:1019E00090FBF1F201FB12003030D3494871CF482F
:1019F0000088642190FBF1F03030CF490873CB4868
:101A000000880A2190FBF1F090FBF1F201FB12003B
:101A10003030C9494873C54800880A2190FBF1F26B
:101A200001FB12003030C4498873802000F04DFF64
:101A30004FF0000A08E0BF4911F80A0000F098FFD3
:101A40000AF1010000F0FF0ABAF1100FF3DBC02029
:101A500000F03BFF4FF0000A09E00CE0B64911F836
:101A60000A0000F085FF0AF1010000F0FF0ABAF158
:101A7000100FF3DB9AE0AE480088642190FBF1F090
:101A80003030AC490872AA4800880A2190FBF1F076
:101A900090FBF1F201FB12003030A6494872A448D5
:101AA00000880A2190FBF1F201FB12003030A149BD
:101AB00088729C4800783C2190FBF1F00A2190FB51
:101AC000F1F030309C490871964800783C2190FB39
:101AD000F1F00A2190FBF1F201FB1200303096493F
:101AE000487192480088642190FBF1F030309249AF
:101AF00008738E4800880A2190FBF1F090FBF1F208
:101B000001FB120030308C494873884800880A2154
:101B100090FBF1F201FB120030308749887380207E
:101B200000F0D3FE4FF0000A08E0824911F80A00E5
:101B300000F01EFF0AF1010000F0FF0ABAF1100FD9
:101B4000F3DBC02000F0C1FE4FF0000A08E07A4944
:101B500011F80A0000F00CFF0AF1010000F0FF0A82
:101B6000BAF1100FF3DB012211037448FEF79DFD5B
:101B7000012211027148FEF798FD0FE04FF48051E9
:101B80006E48FEF774FD48B93220FEF74AFC4FF468
:101B900080516A48FEF76BFD00B900E0EEE700BF38
:101BA00000224FF480716548FEF77FFD002202217C
:101BB0005A48FEF77AFD012211465848FEF775FD96
:101BC0004FF47A70FEF72DFC002202215348FEF7F5
:101BD0006CFD002201215148FEF767FD6420FEF7ED
:101BE00020FC00224FF400614C48FEF75EFD01220C
:101BF00091024A48FEF759FD4FF47A70FEF711FC46
:101C000000224FF400614548FEF74FFD00224FF4DB
:101C100080614248FEF749FD0122D1024748FEF7A4
:101C200044FD012211024548FEF73FFD6420FEF706
:101C3000F8FB00224FF480714048FEF736FD0FE0BC
:101C40004FF400613D48FEF712FD48B93220FEF71F
:101C5000E8FB4FF400613948FEF709FD00B900E0E8
:101C6000EEE700BF0122D1022C48FEF71EFD002244
:101C70004FF480612948FEF718FD4FF47A70FEF7A3
:101C8000D0FB00224FF400612448FEF70EFD002235
:101C90004FF480612148FEF708FD012202211F4810
:101CA000FEF703FD002201211C48FEF7FEFC4FF465
:101CB0007A70FEF7B6FB002202211848FEF7F5FC09
:101CC000002201211548FEF7F0FC40F2DC50FEF73F
:101CD000A8FBFEE21A48007852287DD118484078C7
:101CE000BA28FAD116488078B128F6D11448C078BD
:101CF0007328F2D11348007800286ED101201149D1
:101D0000087000201049087010A2012100F0B3FEF5
:101D1000002202210148FEF7C8FC21E0000C01402E
:101D2000A2000020B000002000004E40A4000020CF
:101D30009C00002064000020750000200008014085
:101D40002C000020A3000020B1000020496E206C70
:101D5000617965722032206E6F2E20320000000003
:101D600001221146FE48FEF7A0FC4FF47A70FEF700
:101D700058FB00220221FA48FEF797FC00220121BD
:101D8000F748FEF792FC6420FEF74BFB00224FF46D
:101D90000061F348FEF789FC01229102F048FEF74A
:101DA00084FC4FF47A70FEF73CFB4FF47A70FEF738
:101DB00038FB00224FF40061E948FEF776FC002270
:101DC0004FF48061E648FEF770FC0122D102E5483D
:101DD000FEF76BFC012201E05AE26AE01102E148E1
:101DE000FEF763FC6420FEF71CFB00224FF48071B9
:101DF000DC48FEF75AFC0FE04FF40061D948FEF7CB
:101E000036FC48B93220FEF70CFB4FF40061D54890
:101E1000FEF72DFC00B900E0EEE700BF0122D10281
:101E2000CF48FEF742FC00224FF48061CC48FEF719
:101E30003CFC4FF47A70FEF7F4FA4FF47A70FEF738
:101E4000F0FA00224FF40061C548FEF72EFC002294
:101E50004FF48061C248FEF728FC01220221C048ED
:101E6000FEF723FC00220121BD48FEF71EFC4FF4C3
:101E70007A70FEF7D6FA0FE04FF40041B848FEF74B
:101E8000F6FB48B93220FEF7CCFA4FF40041B448D3
:101E9000FEF7EDFB00B900E0EEE700BF00220221F3
:101EA000AF48FEF702FC00220121AD48FEF7FDFB22
:101EB0000FE2AD4800780128FAD10020AA49087045
:101EC000AA48007802F049FB06460022A84B02F01F
:101ED000BFF9044600224FF0804302F051FB8046D8
:101EE00002F00EFBA3490880A348008809888842B5
:101EF00072DDA14800889F490988401A9E490880E0
:101F000008460088642190FBF1F030309B4908724C
:101F1000994800880A2190FBF1F090FBF1F201FB57
:101F20001200303095494872934800880A2190FB8E
:101F3000F1F201FB12003030904988728B48007832
:101F40003C2190FBF1F00A2190FBF1F030308C49FC
:101F50000871864800783C2190FBF1F00A2190FB43
:101F6000F1F201FB12003030854948718148008848
:101F7000642190FBF1F03030814908737D4800887E
:101F80000A2190FBF1F090FBF1F201FB12003030DE
:101F90007B494873774800880A2190FBF1F201FBE6
:101FA0001200303076498873802000F08EFC4FF0AC
:101FB000000A08E0714911F80A0000F0D9FC0AF1A2
:101FC000010000F0FF0ABAF1100FF3DBC02000F0AF
:101FD0007CFC4FF0000A09E00CE0694911F80A00A6
:101FE00000F0C6FC0AF1010000F0FF0ABAF1100F80
:101FF000F3DB9DE060480088642190FBF1F0303015
:102000005E4908725C4800880A2190FBF1F090FB61
:10201000F1F201FB120030305849487256480088EE
:102020000A2190FBF1F201FB120030305349887213
:102030004E4800783C2190FBF1F00A2190FBF1F032
:1020400030304F490871494800783C2190FBF1F04D
:102050000A2190FBF1F201FB12003030484948712F
:1020600044480088642190FBF1F030304449087303
:10207000404800880A2190FBF1F090FBF1F201FB4F
:10208000120030303E4948733A4800880A2190FBDC
:10209000F1F201FB1200303039498873802000F0E2
:1020A00014FC4FF0000A08E0344911F80A0000F06F
:1020B0005FFC0AF1010000F0FF0ABAF1100FF3DB38
:1020C000C02000F002FC4FF0000A08E02C4911F893
:1020D0000A0000F04DFC0AF1010000F0FF0ABAF11D
:1020E000100FF3DB012211031E48FEF7DEFA0A206F
:1020F000FEF797F9012211021A48FEF7D6FA0FE00F
:102100004FF480511748FEF7B2FA48B93220FEF773
:1021100088F94FF480511348FEF7A9FA00B900E09E
:10212000EEE700BF00224FF480710E48FEF7BDFAC3
:10213000002202210A48FEF7B8FA01221146084897
:10214000FEF7B3FA4FF47A70FEF76BF90022022122
:102150000348FEF7AAFA00220121014812E000001C
:10216000000C014000080140A3000020B100002045
:1021700000004E40A40000209E00002064000020CB
:1021800075000020FEF791FA6420FEF74AF900225C
:102190004FF40061FE48FEF788FA01229102FC48E4
:1021A000FEF783FA4FF47A70FEF73BF94FF47A703A
:1021B000FEF737F900224FF40061F548FEF775FA93
:1021C00000224FF48061F248FEF76FFA0122D1023B
:1021D000F048FEF76AFA01221102EE48FEF765FAAE
:1021E0006420FEF71EF900224FF48071E948FEF7E3
:1021F0005CFA0FE04FF40061E648FEF738FA48B9A0
:102200003220FEF70EF94FF40061E248FEF72FFA94
:1022100000B900E0EEE700BF0122D102DC48FEF782
:1022200044FA00224FF48061D948FEF73EFA4FF499
:102230007A70FEF7F6F84FF47A70FEF7F2F80022A3
:102240004FF40061D248FEF730FA00224FF480616B
:10225000CF48FEF72AFA01220221CD48FEF725FADF
:1022600000220121CA48FEF720FA4FF47A70FEF7E7
:10227000D8F800220221C648FEF717FA00220121F1
:10228000C348FEF712FA40F2DC50FEF7CAF820E02D
:10229000C02000F01AFB4FF0000A08E0BE4911F818
:1022A0000A0000F065FB0AF1010000F0FF0ABAF134
:1022B000100FF3DB01221102B648FEF7F6F940F6E3
:1022C000B830FEF7AEF800224FF48071B148FEF747
:1022D000ECF9FEF7C7FCFEF738BD10B5AF48007843
:1022E00008281AD2DFE800F0041A2F455B7289A093
:1022F0000122D102A648FEF7D8F900224FF48061EE
:10230000A348FEF7D2F900220221A148FEF7CDF939
:10231000002201219E48FEF7C8F99BE00122D1026C
:102320009B48FEF7C2F9012291029948FEF7BDF9D8
:10233000002202219648FEF7B8F9002201219448B4
:10234000FEF7B3F986E000224FF400619048FEF7F3
:10235000ACF9012291028E48FEF7A7F90022022172
:102360008B48FEF7A2F9002201218948FEF79DF96A
:1023700070E000224FF400618548FEF796F90122D3
:1023800091028348FEF791F9012202218048FEF76D
:102390008CF9002201217E48FEF787F95AE00022DD
:1023A0004FF400617A48FEF780F900224FF4806113
:1023B0007748FEF77AF9012202217548FEF775F990
:1023C000002201217248FEF770F943E000224FF429
:1023D00000616F48FEF769F900224FF480616C4894
:1023E000FEF763F9012202216948FEF75EF9012236
:1023F00011466748FEF759F92CE000224FF40061BE
:102400006348FEF752F900224FF480616048FEF7FE
:102410004CF9002202215E48FEF747F901221146DD
:102420005B48FEF742F915E00122D1025848FEF759
:102430003CF900224FF480615548FEF736F900223E
:1024400002215348FEF731F9012211465048FEF7A8
:102450002CF900BF00BF0120FDF7E3FF00224FF47D
:1024600000614B48FEF721F900224FF48061484893
:10247000FEF71BF9002202214548FEF716F900225B
:1024800001214348FEF711F944480078401C4349B4
:10249000087008460078072801DD0020087010BD8C
:1024A00010B53E48007808281BD2DFE800F0041B76
:1024B00032495F7E93A900224FF400613448FEF751
:1024C000F4F800224FF480613148FEF7EEF8002264
:1024D00002212F48FEF7E9F8012211462C48FEF7A9
:1024E000E4F8A3E000224FF400612948FEF7DDF88C
:1024F00000224FF480612648FEF7D7F8012202211E
:102500002348FEF7D2F8012211462148FEF7CDF804
:102510008CE000224FF400611D48FEF7C6F800224F
:102520004FF480611A48FEF7C0F8012202211848D2
:10253000FEF7BBF8002201211548FEF7B6F875E05A
:1025400000224FF400611248FEF7AFF80122910219
:102550000F48FEF7AAF8012202210D48FEF7A5F860
:10256000002201210A48FEF7A0F85FE000224FF4A4
:1025700000610748FEF799F8012291020448FEF72E
:1025800094F8002202210248FEF78FF8002207E0AB
:10259000000C014000080140860000209700002048
:1025A00001219748FEF781F840E00122D1029448CA
:1025B000FEF77BF8012291029148FEF776F800229F
:1025C00002218F48FEF771F8002201218C48FEF7A6
:1025D0006CF82BE00122D1028948FEF766F8002250
:1025E0004FF480618648FEF760F80022022184489B
:1025F000FEF75BF8002201218148FEF756F815E04E
:102600000122D1027E48FEF750F800224FF480618B
:102610007B48FEF74AF8002202217948FEF745F888
:10262000012211467648FEF740F800BF00BF0120A6
:10263000FDF7F7FE00224FF400617148FEF735F810
:1026400000224FF480616E48FEF72FF8002202212D
:102650006B48FEF72AF8002201216948FEF725F8A9
:1026600068480078401C67490870084600780728C9
:1026700001DD0020087010BD6348806940F004004F
:1026800061498861614800686FF313005F49086021
:102690005D48806940F400705B4988610846C06805
:1026A00040F40070C8600846C06820F40070C8603C
:1026B0000846406820F4404048600846406840F4BE
:1026C000004048605248006852490840504908603C
:1026D0000846006808600846006820F480700860BA
:1026E000081D006820F00200091D08600846006807
:1026F00020F4602008600846006840F4602008600C
:102700000846006840F4801008600846006820F41D
:10271000006008603E482830006820F470003C49A2
:1027200028310860084600680020086038480C30EE
:1027300000686FF30F0036490C31086008460068E6
:1027400040F4E04008600846006840F460600860BB
:102750000846006840F4E07008600846006840F0F1
:10276000380008600846006840F007000860284804
:10277000001D006840F001002549091D0860084659
:10278000006840F00800086000BF2148001D006894
:1027900000F008000028F8D11D48001D006840F036
:1027A00004001B49091D086000BF1948001D00688E
:1027B00000F004000028F8D170470146144830307A
:1027C000006820F01F00124A303210601046006886
:1027D000084310600E48001D006840F480000C4A59
:1027E000121D106000BF0A48001F006800F00200C0
:1027F0000028F8D006484830006880B270470000D2
:10280000000C014097000020001002400008014029
:1028100004240140FFFFF00008B510208DF80300EC
:1028200003208DF80200FF20ADF8000069469F48A4
:10283000FDF78AFE4FF46040ADF8000069469C4801
:10284000FDF782FE08BD07E0192101E04A1ED1B262
:102850000029FBDC421E90B20028F5DC704708B569
:1028600048208DF8030003208DF802000120ADF808
:10287000000069468D48FDF767FE00224FF40051C5
:102880008B48FDF712FF012291038948FDF70DFFE8
:102890000122D1038648FDF708FF0120FFF7D3FF8F
:1028A00000BF01218148FDF7E2FE0028F9D1102088
:1028B0008DF8030003208DF802000120ADF8000020
:1028C00069467A48FDF740FE08BD70B5044600260B
:1028D0000025FFF7C4FF00BF0BE04FF6FF7000EAD2
:1028E000450504F0010008B145F001056410701CB5
:1028F000C6B2082EF1DBECB221466C48FDF7DAFED9
:1029000000224FF400416A48FDF7CFFE0A20FFF78E
:102910009AFF00224FF400516548FDF7C6FE0A20D9
:10292000FFF791FF00224FF480416148FDF7BDFEA3
:102930000A20FFF788FF0A20FFF785FF0122D10355
:102940005B48FDF7B2FE0A20FFF77DFF00224FF43F
:1029500000415748FDF7A9FE0A20FFF774FF012246
:1029600091035348FDF7A1FE0A20FFF76CFF70BDED
:1029700070B5044600260025FFF771FF00BF0BE08D
:102980004FF6FF7000EA450504F0010008B145F07C
:1029900001056410701CC6B2082EF1DBECB22146B2
:1029A0004248FDF787FE00224FF400414048FDF702
:1029B0007CFE0A20FFF747FF012251033C48FDF748
:1029C00074FE0A20FFF73FFF00224FF48041384891
:1029D000FDF76BFE0A20FFF736FF0A20FFF733FFF3
:1029E0000122D1033248FDF760FE0A20FFF72BFFDA
:1029F00000224FF400412E48FDF757FE0A20FFF752
:102A000022FF012291032A48FDF74FFE0A20FFF71B
:102A10001AFF70BD10B5FFF7FFFE0120FFF755FF4D
:102A20006420FFF710FF3820FFF74FFF6420FFF707
:102A30000AFF3820FFF749FF6420FFF704FF0C204E
:102A4000FFF743FF6420FFF7FEFE10BD70B505469B
:102A50000C4616461CB905F18000C4B204E0012CF6
:102A600002D105F1C000C4B22046FFF72EFF304668
:102A7000FFF77EFF70BD70B506460C4615461CB9C3
:102A800006F18000C4B204E0012C02D106F1C000BE
:102A9000C4B22046FFF719FF03E02878FFF768FF6C
:102AA0006D1C28780028F8D170BD00000008014096
:102AB000001001407FB505460C4601210220FEF7BB
:102AC0000CF8ADF80850ADF804400020ADF80A004D
:102AD000ADF8060001A9284800F030F9012211469E
:102AE000254800F0A2FC1D208DF8000000208DF884
:102AF000010003208DF8020001208DF803006846D4
:102B0000FEF747F801211C4800F074FC7FBD10B5AA
:102B10000121194800F037FF68B30121164800F081
:102B200043FF164801780078401C144A107014299D
:102B300021DB00201146087011480078401C104924
:102B40000870084600783C2801D1002008700D4824
:102B50000078401C0B4908700B480078401C0A495B
:102B600008700A480078401C084908700848007836
:102B7000401C0749087010BD00040040B20000204E
:102B8000AC000020AE000020AF000020B00000200C
:102B9000B100002010B50446FE48844208D101214E
:102BA000C014FDF7A7FF0021E014FDF7A3FFC4E068
:102BB000B4F1804F08D101210846FDF7A8FF00219C
:102BC0000120FDF7A4FFB8E0F348844208D10121B9
:102BD0000220FDF79CFF00210220FDF798FFACE0EA
:102BE000EE48844208D101210420FDF790FF002126
:102BF0000420FDF78CFFA0E0E948844208D10121C0
:102C00000820FDF784FF00210820FDF780FF94E0F5
:102C1000E448844208D101211020FDF778FF00210B
:102C20001020FDF774FF88E0DF48844208D10121BD
:102C30002020FDF76CFF00212020FDF768FF7CE0DD
:102C4000DA48844208D101214014FDF753FF0021E6
:102C50006014FDF74FFF70E0D548844209D101218F
:102C6000C804FDF747FF00214FF40020FDF742FFA5
:102C700063E0D048844209D101210805FDF73AFFFD
:102C800000214FF48010FDF735FF56E0CA4884421A
:102C900009D101214805FDF72DFF00214FF4001057
:102CA000FDF728FF49E0C548844208D101214020B2
:102CB000FDF72DFF00214020FDF729FF3DE0C04832
:102CC000844208D101218020FDF721FF00218020CE
:102CD000FDF71DFF31E0BB48844208D1012180157A
:102CE000FDF715FF0021A015FDF711FF25E0B648FF
:102CF000844209D101210804FDF7FCFE00214FF4B4
:102D00008030FDF7F7FE18E0B048844209D1012178
:102D10004804FDF7EFFE00214FF40030FDF7EAFE16
:102D20000BE0AB48844208D101218804FDF7E2FEA4
:102D300000214FF48020FDF7DDFE10BD0022028847
:102D4000944B98420ED0994B98420BD0B0F1804FE3
:102D500008D0914B984205D0904B984202D0904BAE
:102D6000984204D14FF68F731A404B881A438D4B0B
:102D7000984207D08C4B984204D04FF6FF431A403C
:102D8000CB881A4302808B8883850B880385814B0F
:102D900098420BD0854B984208D08B4B984205D077
:102DA0008A4B984202D08A4B984201D10B7A038613
:102DB00001238382704770B5002400220023058C14
:102DC0004FF6FE7635400584028C8388048B4FF6DF
:102DD0008F752C40B51E2C400D882C43751E2A4043
:102DE0000D892A434D882A436A4DA8420BD06F4D66
:102DF000A84208D0744DA84205D0744DA84202D014
:102E0000734DA84213D14FF6F7752A404D892A43D6
:102E10004FF6FB752A408D882A434FF6FF652B40FD
:102E20004FF6FF552B408D892B43CD892B43838053
:102E30000483CD888586028470BD70B5002400228D
:102E40000023058C4FF6EF7635400584028C83888D
:102E5000048B48F6FF752C404FF6FF452C400D883B
:102E60004FF6FF7606EA05252C434FF6DF752A401C
:102E70000D8906EA05152A434D8806EA05152A43F9
:102E8000444DA84202D0494DA8421DD14FF67F754E
:102E90002A404D894FF6FF7606EA05152A434FF67C
:102EA000BF752A408D8806EA05152A434FF6FF357F
:102EB0002B404FF2FF752B408D8906EA85052B4389
:102EC000CD8906EA85052B4383800483CD88058759
:102ED000028470BD70B5002400220023058C4FF6DB
:102EE000FF6635400584028C8388848B4FF68F758E
:102EF0002C404FF6FC752C400D882C434FF6FF55A7
:102F00002A400D894FF6FF7606EA05252A434D88AB
:102F100006EA05252A431F4DA84202D0234DA842A8
:102F20001DD14FF2FF752A404D894FF6FF7606EA14
:102F300005252A434FF6FF352A408D8806EA0525E8
:102F40002A434EF6FF752B404DF6FF752B408D89B9
:102F500006EA05152B43CD8906EA05152B43838028
:102F60008483CD888587028470BD70B500220023DC
:102F70000024058C4EF6FF7635400584038C84884A
:102F8000828B48F6FF752A404FF6FF452A400D8890
:102F900020E00000002C0140000400400008004038
:102FA000000C0040001000400014004000340140BC
:102FB000004C014000500140005401400018004006
:102FC000001C00400020004000400140004401403F
:102FD000004801404FF6FF7606EA05252A434DF6E4
:102FE000FF752B400D8906EA05352B434D8806EA0F
:102FF00005352B43FA4DA84202D0FA4DA84208D11C
:103000004BF6FF752C408D894FF6FF7606EA851545
:103010002C4384808283CD88A0F84050038470BD07
:10302000828B4FF2FF331A408283828B4FF6FF73FD
:1030300003EA01231A4382837047F0B50C46154614
:10304000002200210026078C4EF6FF7C07EA0C07C1
:103050000784828B018C4FF6FF7707EA043640F62F
:10306000FF473A404FF6FF7707EA05273A434FF606
:10307000FF7707EA03373A43D94FB8420ED0D94F0A
:10308000B8420BD0B0F1804F08D0D74FB84205D02E
:10309000D64FB84202D0D64FB84206D14DF6FF7790
:1030A000394046F48057394305E047F6FF57394029
:1030B00044F48057394382830184F0BD828B4FF6FC
:1030C000F3731A408283828B0A4382837047F0B580
:1030D0000C461546002200210026078C4FF6FF6C97
:1030E00007EA0C070784828B018C4FF6FF7707EA0B
:1030F00004264FF60C773A404FF6FF7707EA03179E
:103100002F433A43B64FB8420ED0B64FB8420BD019
:10311000B0F1804F08D0B44FB84205D0B34FB84299
:1031200002D0B34FB84206D14FF6FF57394046F4AC
:103130008077394305E04FF2FF57394044F48077F8
:10314000394382830184F0BD028B4FF2FF331A4072
:103150000283028B4FF6FF7303EA01231A430283B3
:103160007047F0B50C461546002200210026078C5A
:103170004FF6EF7C07EA0C070784028B018C4FF6B1
:10318000FF7707EA041640F6FF473A404FF6FF770D
:1031900007EA03373A434FF6FF7707EA05273A4332
:1031A0008F4FB8420ED08F4FB8420BD0B0F1804F46
:1031B00008D08D4FB84205D08C4FB84202D08C4F0A
:1031C000B84206D14FF6DF77394046F01007394351
:1031D00005E04FF65F77394044F01007394302832A
:1031E0000184F0BD028B4FF6F3731A400283028B09
:1031F0000A4302837047F0B50C46154600220021B1
:10320000068C4FF6FE773E400684028B018C4FF60B
:103210000C7632407E1C06EA03162E433243704E73
:10322000B0420ED06F4EB0420BD0B0F1804F08D0FC
:103230006D4EB04205D06D4EB04202D06C4EB042E1
:1032400006D14FF6FD76314044F00106314305E0EA
:103250004FF6F576314044F0010631430283018494
:10326000F0BD70B505460C465D4885420ED05D4800
:1032700085420BD0B5F1804F08D05B48854205D020
:103280005A48854202D05A48854200D100E000BF2A
:10329000208850B92389A28861882846FFF7ABFFB0
:1032A000E1882846FFF79EFF25E0208804280AD100
:1032B0002389A28861882846FFF753FFE1882846C2
:1032C000FFF742FF17E0208808280AD12389A28847
:1032D00061882846FFF7FBFEE1882846FFF7EEFEEF
:1032E00009E02389A28861882846FFF7A6FEE188C5
:1032F0002846FFF795FE70BD2DE9F04105460C46C6
:1033000000260127608808B9022600E00026A08870
:10331000012801D1022700E001272088A0B92389D4
:10332000A28861882846FFF766FFE1882846FFF7F4
:1033300059FF23893A4631462846FFF712FFE188B4
:103340002846FFF701FF13E02389A28861882846F9
:10335000FFF707FFE1882846FFF7F6FE23893A4684
:1033600031462846FFF747FFE1882846FFF73AFF36
:10337000BDE8F0810A884B881A438B881A43CB88B2
:103380001A430B891A434B891A438B891A43A0F8B5
:10339000442070474FF6FF71818000210180C18079
:1033A0004180017270470021018041808180C1808D
:1033B000018141818181C18170470021018041806B
:1033C000012181800021C18001817047002101809D
:1033D00041808180C18001814181818170470000ED
:1033E000002C01400034014000040040000800406F
:1033F000000C004021B1028842F00102028004E08A
:1034000002884FF6FE731A400280704731B1B0F85F
:10341000442042F40042A0F8442005E0B0F84420E3
:10342000C2F30E02A0F8442070471AB183890B43FF
:10343000838102E083898B43838170478182704757
:1034400041EA0203A0F8483070471AB183890B4360
:10345000838102E083898B438381704701894FF622
:10346000F8721140018170470A46002101894FF628
:103470008F73194011430181704730B504460D46E2
:1034800029462046FFF7F0FF208940F00700208101
:1034900030BD2DE9F04104460D4616461F46602D0D
:1034A00006D13B46012231462046FFF75AFE05E091
:1034B0003B46012231462046FFF79DFE2946204625
:1034C000FFF7D2FF208940F007002081BDE8F0819E
:1034D00030B50C4600210189C9B24FF6FF7505EAE7
:1034E0000325154325432943018130BD2DE9F041D2
:1034F00005460E4617469846002443463A4631464E
:103500002846FFF7E5FF2C894FF6F870044044F099
:1035100007044FF68F70044044F070042C81BDE81E
:10352000F081F0B504460D4616461F463B4632462E
:1035300029462046FFF7CCFF208940F480402081B7
:10354000F0BD0185828270470A46002101884FF64E
:103550008F731940114301807047F0B50C46154632
:103560001E460021002200230189028B038C4FF6A6
:10357000F877394021434FF6FC473A4040F20117B3
:103580003A434FF6DD773B404FF6FF7707EA0617E1
:103590002F433B43018102830384F0BD0A4600218F
:1035A000018B4FF68F7319401143018370470A4610
:1035B0000021018B48F6FF7319404FF6FF7303EAB1
:1035C00002231943018370470A460021818B4FF67D
:1035D0008F7319401143818370470A460021818B04
:1035E00048F6FF7319404FF6FF7303EA02231943AD
:1035F0008183704721B1028842F08002028004E09A
:1036000002884FF67F731A400280704721B182888A
:1036100042F00402828004E082884FF6FB731A4075
:103620008280704721B1828842F00802828004E0E3
:1036300082884FF6F7731A408280704721B18288E2
:1036400042F00102828004E082884FF6FE731A4045
:10365000828070470A460021018B4FF6F7731940AC
:103660001143018370470A460021018B4FF2FF731B
:1036700019404FF6FF7303EA022319430183704791
:103680000A460021818B4FF6F7731940114381835D
:1036900070470A460021818B4FF2FF7319404FF6A5
:1036A000FF7303EA02231943818370470A4600210E
:1036B000018B4FF6FB7319401143018370470A4693
:1036C0000021018B4FF6FF3319404FF6FF7303EAD9
:1036D00002231943018370470A460021818B4FF66C
:1036E000FB7319401143818370470A460021818B87
:1036F0004FF6FF3319404FF6FF7303EA02231943D5
:10370000818370470A460021018B4FF67F73194071
:103710001143018370470A460021018BC1F30E015A
:103720004FF6FF7303EA02231943018370470A46E9
:103730000021818B4FF67F731940114381837047BD
:103740000A460021818BC1F30E014FF6FF7303EA95
:1037500002231943818370470A460021018C4FF6EA
:10376000FD7319401143018470470A460021018C02
:103770004FF6F77319401143018470470A46002140
:10378000018C4FF6DF7319404FF6FF7303EA021303
:103790001943018470470A460021018C4FF67F735C
:1037A00019404FF6FF7303EA02131943018470476F
:1037B0000A460021018C4FF6FF5319404FF6FF7364
:1037C00003EA02231943018470470A460021018C51
:1037D0004FF2FF7319404FF6FF7303EA02231943B8
:1037E000018470470A460021018C4DF6FF73194091
:1037F0004FF6FF7303EA023319430184704730B573
:10380000002301248C40A3B2048C9C430484048CC8
:1038100002FA01F5ADB22C43048430BD30B500236B
:1038200004248C40A3B2048C9C430484048C02FACC
:1038300001F5ADB22C43048430BD70B503460020C1
:1038400000241846183001258D40ACB21D8CA543CC
:103850001D8409B1082909D100EB6100056825F034
:10386000700505600568154305600EE00D1FC5F382
:103870004E052844056825F4E045056005684FF6C7
:10388000FF7606EA02263543056070BD21B1028845
:1038900042F00202028004E002884FF6FD731A40F3
:1038A0000280704721B1028842F00402028004E0E5
:1038B00002884FF6FB731A400280704721B182885C
:1038C00042F08002828004E082884FF67F731A40C3
:1038D0008280704702884FF6F7731A400280028890
:1038E0000A430280704782884FF68F731A408280A5
:1038F00082880A438280704702894FF6F8731A4023
:10390000028102890A430281704702894FF67F7360
:103910001A40028102890A430281704781847047FC
:10392000818570478186704701877047818770471E
:10393000A0F84010704702884FF6FF431A400280FB
:1039400002880A43028070470146888E704701460C
:10395000088F70470146888F70470146B1F84000D4
:1039600070470146888C70470146088D70470246B3
:103970000020138A0B400BB1012000E000207047AB
:10398000CA430282704730B502460020002300245B
:10399000158A05EA0103958905EA010413B10CB102
:1039A000012000E0002030BDCA43028270470000C1
:1039B00008B510208DF8030003208DF802004FF4A5
:1039C0006870ADF800006946F848FCF7BDFD482076
:1039D0008DF8030003208DF802004020ADF80000B0
:1039E0006946F248FCF7B0FD08BD2DE9F0410746F5
:1039F0000D4600224FF48071EC48FCF756FE08207B
:103A0000FCF7EBFCEA480078012805D100224102CE
:103A1000E648FCF74AFE0AE0E5480078022805D1AE
:103A200000220102E148FCF740FE00E000BF082050
:103A3000FCF7D3FC7E2000EA4706082426E006F0C7
:103A40008000802805D101228021D848FCF72DFE76
:103A500004E000228021D548FCF727FE0820FCF76F
:103A6000BCFC01221102D148FCF71FFE0820FCF724
:103A7000B4FC7006060E00224FF48071CB48FCF7B0
:103A800014FE0820FCF7A9FC601EC4B2002CD6DC92
:103A9000082426E005F08000802805D1012280213D
:103AA000C248FCF702FE04E000228021BF48FCF778
:103AB000FCFD0820FCF791FC01221102BB48FCF739
:103AC000F4FD0820FCF789FC6806050E00224FF47F
:103AD0008071B648FCF7E9FD0820FCF77EFC601E0B
:103AE000C4B2002CD6DCB2480078012805D10122EE
:103AF0004102AE48FCF7D9FD0AE0AD480078022843
:103B000005D101220102A948FCF7CFFD00E000BF6A
:103B10000820FCF762FC01221102A448FCF7C5FD55
:103B20000820FCF75AFCBDE8F0812DE9F04107467A
:103B3000002600224FF480719C48FCF7B6FD082057
:103B4000FCF74BFC9A480078012805D1002241027D
:103B50009648FCF7AAFD0AE095480078022805D1AE
:103B6000002201029148FCF7A0FD00E000BF082000
:103B7000FCF733FC7E2000EA470040F08005082473
:103B800026E005F08000802805D1012280218748A9
:103B9000FCF78BFD04E0002280218448FCF785FDC2
:103BA0000820FCF71AFC012211028048FCF77DFD79
:103BB0000820FCF712FC6806050E00224FF4807105
:103BC0007A48FCF772FD0820FCF707FC601EC4B2BF
:103BD000002CD6DC08241CE0012211027348FCF7FB
:103BE00064FD0820FCF7F9FB7006060E40216F48C3
:103BF000FCF73DFD06430820FCF7EFFB00224FF4E5
:103C000080716A48FCF751FD0820FCF7E6FB601E56
:103C1000C4B2002CE0DC66480078012805D10122FE
:103C200041026248FCF741FD0AE061480078022841
:103C300005D1012201025D48FCF737FD00E000BF1D
:103C40000820FCF7CAFB012211025848FCF72DFDA1
:103C50000820FCF7C2FB3046BDE8F08170B5054690
:103C60000C4600262846FFF760FF064646EA040198
:103C70002846FFF7BAFE70BD70B505460C46002613
:103C80002846FFF752FF064626EA04012846FFF7BA
:103C9000ACFE70BD2DE9FE4F0646884691469A4619
:103CA000DDF830B0FE2002900020019000900C2E34
:103CB00006D00E2E09D1122001901020009005E0B0
:103CC000772001903020009000E000BF00BF0198F5
:103CD00040F080010220FFF788FE80210420FFF7DA
:103CE000CBFF00210120FFF780FE80210A20FFF793
:103CF000B5FF002505E018F805100920FFF775FE4F
:103D00006D1C4D45F7D331460120FFF76EFE0C2E9A
:103D100003D180210D20FFF7A1FF4FF4167500BFDE
:103D20000420FFF702FF04466D1E35B104F00100C8
:103D300018B9009820400028F2D080210D20FFF70C
:103D40009BFF95B30620FFF7F0FE00F01B0088BB39
:103D5000002002900198204000F0010008B1FF20EF
:103D600002900C2E29D10A20FFF7DFFE04460C201A
:103D7000FFF7DBFE00F007072FB1601E07EBC00066
:103D8000CBF8000002E0E000CBF8000004B9012409
:103D9000122C00DD1224002505E00920FFF7C5FEE6
:103DA0000AF805006D1CA542F7D306E0000C01409F
:103DB000B3000020FFE7FE20029080210C20FFF7D7
:103DC0004DFF00210120FFF710FE0298BDE8FE8F95
:103DD00070B588B005460C4608210846FFF74CFF31
:103DE00007210D20FFF701FE03211420FFF736FF06
:103DF0008DF8085007A802AB012202A900900C2000
:103E0000FFF748FF06464EB90798102806D19DF8DF
:103E1000080020709DF80900607000E0FE26304622
:103E200008B070BDF0B587B00546002708210846E8
:103E3000FFF722FF00210D20FFF7D7FD80210E2084
:103E4000FFF71AFF93208DF8040020208DF805005D
:103E500006A801AB022201A900900C20FFF71AFF6F
:103E6000064686B9002407E001A8005D285501A890
:103E7000005D4740601CC4B2042CF5DB01A8005D66
:103E8000B84200D0FE2680210E20FFF7E7FE304624
:103E900007B0F0BD2DE9F0410746884615460421DC
:103EA0000520FFF7E9FE00210120FFF79EFD80219C
:103EB0000A20FFF7D3FE002405E0395D0920FFF753
:103EC00094FD601CC4B24445F7DB03210120FFF7D9
:103ED0008CFDFF2400BF0520FFF727FE0646601E6D
:103EE000C4B21CB106F004000028F4D02220FFF771
:103EF0001CFE28702120FFF718FE6870BDE8F081D5
:103F000010B588B050208DF8080000208DF8090009
:103F10000DF10A02022102A8FFF7BCFF07A802ABBD
:103F2000042202A900900C20FFF7B4FE04460020F2
:103F300008B010BD10B5FFF73BFD01222021394824
:103F4000FCF7B3FB0520FCF76CFA00222021354872
:103F5000FCF7ABFB0520FCF764FA01222021314875
:103F6000FCF7A3FB0520FCF75CFA0F210120FFF70B
:103F70003CFD0520FCF755FA3D211120FFF735FDEA
:103F80001E212D20FFF731FD00212C20FFF72DFDF4
:103F90008D212A20FFF729FD3E212B20FFF725FD4B
:103FA00040211520FFF721FD002010BD10B5142081
:103FB000FFF7BBFD044604F0030018B903211420E9
:103FC000FFF74CFE10BD10B503211420FFF754FE7F
:103FD00010BD10B50446144804700078012805D1BE
:103FE000012241020F48FCF760FB0AE00E4800780E
:103FF000022805D1012201020A48FCF756FB00E025
:1040000000BFFFF797FF0320FCF70BFAFFF7DBFF7A
:104010000320FCF706FAFFF7C9FF0320FCF701FABB
:1040200010BD0000000C0140B30000201FB50121AD
:104030000846FCF745FD4FF48070ADF800004820BD
:104040008DF8030069461B48FCF77EFA4FF4807038
:1040500000F0B7F808210020FCF78CFB4FF48070CB
:10406000029000208DF80C000C208DF80D0001202E
:104070008DF80E0002A800F02DF84FF4A060FCF7B8
:1040800083FD17208DF8040002208DF805008DF8BF
:10409000060001208DF8070001A8FCF77AFD1FBD7E
:1040A00010B54FF4807000F08CF83220FCF7B9F9AD
:1040B00010BD000000080140002044490860091DAF
:1040C0000860091D0860091D086041483F49143116
:1040D0000860704700213D498279002A3AD00A469B
:1040E000126803689A430B461A600A1D1268036837
:1040F0009A430B1D1A60027911440A6803681A4337
:104100000A60324A0832126803689A432F4B083318
:104110001A601A1D126803689A432C4B0C331A60FC
:104120004279102A0ED11A1F126803681A43274BCE
:1041300008331A601A1D126803681A43234B0C33A4
:104140001A600DE02149427911440A6803681A4354
:104150000A6005E0027911440A6803689A430A601C
:1041600070470021016001710C21417100218171B2
:1041700070471649103109680143144A1032116022
:10418000704701460020114A143212680A400AB1F1
:10419000012000E0002070470C491431086070478E
:1041A000014600200022094B1B6803EA0102074B6D
:1041B00014331B680B4013B10AB1012000E000204A
:1041C0007047024914310860704700000004014044
:1041D000FFFF0F00704770477047754600F02CF8DE
:1041E000AE4605006946534620F00700854618B0E4
:1041F00020B5FCF7C7F8BDE820404FF000064FF0AF
:1042000000074FF000084FF0000B21F00701AC460B
:10421000ACE8C009ACE8C009ACE8C009ACE8C0092A
:104220008D46704710B50446AFF300802046BDE8C8
:104230001040FBF7A2BF000000487047B400002008
:1042400001491820ABBEFEE72600020070470000BF
:104250002DE9C04130B4DFF8A0C23CEA111418BF08
:104260003CEA131400F0EC8081EA03051CEA111407
:1042700044EAD57418BF1CEA131500F0C780A4EBFC
:1042800005044FF0004545EAC12145EAC32341EA50
:10429000505143EA525304F17F74994204F50034BB
:1042A0004FEAC0204FEAC22208BF904200F09C8033
:1042B0004FEA13650FF24016765D4FEA134506FB91
:1042C00005F7C7F1807706FB07F74FEAD737A7FB5B
:1042D00003687642C8F58038A7FB06CE38BFA8F140
:1042E000010807FB08E64FF0000EA6FB028CE6FB78
:1042F00003CEDCF1000CCEF1004E38BFAEF1010E62
:10430000A6FB0C584FF000074FF00005E6FB0E87A8
:10431000A1FB08C6A0FB07CE16EB0E0645F1000573
:10432000E1FB076515F1E04E7EBFA4F580345FEA3E
:1043300046066D4116F1800745F100054FEA172743
:104340004FEA066647EA0567A6F1DE46B6F1805FEA
:104350004FEA15251FD9384624F0010C05EBC4712E
:10436000BCF1FE6F01EB0C1102D8F0BCBDE800817E
:1043700024425CBF01F5801E9EEAC47F02D4F0BCDB
:10438000BDE80081244238D4F0BCA1F1C041BDE8B1
:10439000004100F0EDB94FEAD22242EA43524FEA1F
:1043A000D323A7FB02864FEAD02040EA415007FB07
:1043B00003661EEA0E0F4FEAD12105FB026658BFC5
:1043C000A6EB0056B6EB00564FEA520E4EEAC37EFD
:1043D00018EB0E0E56EB530EBDD518EB02085E41DE
:1043E0007F1C55F10005B6E74FF480154FF000072C
:1043F0004FF000064FF00008ADE7F0BC4FF00000B2
:1044000001F1C04101F00041BDE8008111EA0C1F3B
:104410000CEA131500D00CE013EA0C1F00F0258005
:104420004FF00000F0BC81EA030101F00041BDE85B
:104430000081F0BCBDE8004181EA030100F098B9B9
:10444000F0BCBDE8004170B500F044F9097EFC3EC7
:1044500000F007B881EA03014FF0000001F00041CD
:10446000704781EA030100F083B9F0BCBDE8004168
:104470004FF0000021497047FFFDFBF9F7F5F4F21A
:10448000F0EEEDEBE9E8E6E4E3E1E0DEDDDBDAD8EF
:10449000D7D5D4D3D1D0CFCDCCCBCAC8C7C6C5C44D
:1044A000C2C1C0BFBEBDBCBBBAB9B8B7B6B5B4B364
:1044B000B2B1B0AFAEADACABAAA9A8A8A7A6A5A44F
:1044C000A3A3A2A1A09F9F9E9D9C9C9B9A99999813
:1044D0009797969595949393929191908F8F8E8EB6
:1044E0008D8C8C8B8B8A8989888887878685858443
:1044F00084838382828181800000FF070000F87F2F
:104500004FEA1153A3F58063D3F11E03A8BFD3F183
:10451000200C08DB4FF0004242EAC12252EA50521E
:1045200032FA03F0704709420BD4102BC4BF0020AD
:10453000704703F5787CBCF1FF3F05D04FF0FF30AA
:1045400070474FF00000704770B500F0C3F800BF2F
:104550004992248000207047F0E7B0FA80F310FA07
:1045600003F10AD0C3F11D0303F580634FEA415004
:104570004FEA035202EBD12170474FF00000704721
:10458000DFF848C170B51CEA111E1EBF1CEA1315E6
:104590009EEA0C0F95EA0C0F00F06F8081EA03048D
:1045A00023EA4C134EEAD47E21EA4C1141F48011E7
:1045B00043F48013AE44A1FB024CA0FB0365AEF1B3
:1045C0007F7E361955EB0C05A1FB034C4CF1000323
:1045D000A0FB021C16EB0C06654153F100030942D7
:1045E00018BF46F0010613F4007F0BD14FEA0331E8
:1045F0004FEA0530340341EA155140EA16506FF096
:1046000003020AE04FEAC3214FEAC520F40241EA5F
:10461000555140EA56506FF0020202EB2E4201EB78
:10462000025585EACE710AD05FEA440C18BF24F027
:10463000004450F1000041F1000120EAD47040F242
:10464000FE7C624500D270BDA84214BF4FF080448A
:104650004FF04044002E08BF0024BEF1806FA8BF79
:10466000A1F1C041BDE8704080F282804FF00000AF
:1046700001F1C04101F0004170479EEA0C0F0CEAC5
:10468000131518BF95EA0C0F06D04FF0000081EA11
:10469000030E0EF0004170BD00F01CF88900013ED1
:1046A00000F007B800F009B84FEA430C5FEA5C5C21
:1046B00008D081EA030100F05BB84FEA410C5FEAE1
:1046C0005C5CF6D14FF00000014970470000FF0725
:1046D0000000F87F0EF1020E2EF0030E5EF8046B60
:1046E000364205D4012A43EB030515F5001F12D805
:1046F000012841EB010C1CF5001F0CD80ED14FEA2C
:10470000D17C15F5001F0CEB4C0C0CF1020C08BF12
:104710004CEBD37C04E04FF0080C01E04FEAD37C73
:104720000CEB4C0526FA05F606F00706B6F1040C6C
:1047300006D20EEB860CBDE870404CF0010C6047D1
:10474000DFE80CF0090B02024FF000414FF00000CF
:10475000A1F5002170BD19461046012851EB010456
:1047600018BFD4F5001484BF002001F0004170BDD3
:104770000808A0F500114FEA310170479C47000876
:1047800000000020B4000000280100085048000884
:10479000B4000020640600004401000800A24A049E
:1047A00000000000000000000102030406070809E1
:1047B00000000000000000000102030401020304E5
:1047C00006070809020406080000000030313233F1
:1047D00034353637383941424344454600002020BD
:1047E00020202057656C636F6D65202020200049D4
:1047F000443A20202020202020202020202020009B
:1048000042616C616E63653A303030202020202098
:104810000054696D3A30306D204D6F6E3A30303053
:104820002000496E76616C696420494420436172BE
:1048300064210000640064006400030000000000C4
:104840000000E2070B140F00000000000000000051
:04000005080000ED02
:00000001FF
